{
  "contractName": "VGR",
  "abi": [
    {
      "inputs": [
        {
          "internalType": "address",
          "name": "_machineOwner",
          "type": "address"
        },
        {
          "internalType": "address",
          "name": "_machineID",
          "type": "address"
        },
        {
          "internalType": "address",
          "name": "_productContractAddress",
          "type": "address"
        }
      ],
      "stateMutability": "nonpayable",
      "type": "constructor"
    },
    {
      "anonymous": false,
      "inputs": [
        {
          "indexed": true,
          "internalType": "uint256",
          "name": "issueID",
          "type": "uint256"
        },
        {
          "indexed": false,
          "internalType": "string",
          "name": "reason",
          "type": "string"
        },
        {
          "indexed": false,
          "internalType": "string",
          "name": "issueType",
          "type": "string"
        }
      ],
      "name": "NewIssue",
      "type": "event"
    },
    {
      "anonymous": false,
      "inputs": [
        {
          "indexed": true,
          "internalType": "uint256",
          "name": "maintenanceOperationID",
          "type": "uint256"
        },
        {
          "indexed": true,
          "internalType": "address",
          "name": "maintainer",
          "type": "address"
        },
        {
          "indexed": false,
          "internalType": "string",
          "name": "description",
          "type": "string"
        }
      ],
      "name": "NewMaintenanceOperation",
      "type": "event"
    },
    {
      "anonymous": false,
      "inputs": [
        {
          "indexed": true,
          "internalType": "enum Machine.ReadingType",
          "name": "readingType",
          "type": "uint8"
        }
      ],
      "name": "NewReading",
      "type": "event"
    },
    {
      "anonymous": false,
      "inputs": [
        {
          "indexed": true,
          "internalType": "address",
          "name": "previousOwner",
          "type": "address"
        },
        {
          "indexed": true,
          "internalType": "address",
          "name": "newOwner",
          "type": "address"
        }
      ],
      "name": "OwnershipTransferred",
      "type": "event"
    },
    {
      "anonymous": false,
      "inputs": [
        {
          "indexed": true,
          "internalType": "uint256",
          "name": "taskID",
          "type": "uint256"
        },
        {
          "indexed": false,
          "internalType": "string",
          "name": "taskName",
          "type": "string"
        },
        {
          "indexed": false,
          "internalType": "address",
          "name": "productDID",
          "type": "address"
        },
        {
          "indexed": false,
          "internalType": "uint256",
          "name": "processID",
          "type": "uint256"
        },
        {
          "indexed": false,
          "internalType": "address",
          "name": "processContractAddress",
          "type": "address"
        }
      ],
      "name": "TaskAssigned",
      "type": "event"
    },
    {
      "anonymous": false,
      "inputs": [
        {
          "indexed": true,
          "internalType": "uint256",
          "name": "taskID",
          "type": "uint256"
        },
        {
          "indexed": false,
          "internalType": "string",
          "name": "taskName",
          "type": "string"
        },
        {
          "indexed": false,
          "internalType": "address",
          "name": "productDID",
          "type": "address"
        },
        {
          "indexed": false,
          "internalType": "uint256",
          "name": "processID",
          "type": "uint256"
        },
        {
          "indexed": false,
          "internalType": "address",
          "name": "processContractAddress",
          "type": "address"
        }
      ],
      "name": "TaskFinished",
      "type": "event"
    },
    {
      "anonymous": false,
      "inputs": [
        {
          "indexed": true,
          "internalType": "uint256",
          "name": "taskID",
          "type": "uint256"
        },
        {
          "indexed": false,
          "internalType": "string",
          "name": "taskName",
          "type": "string"
        },
        {
          "indexed": false,
          "internalType": "address",
          "name": "productDID",
          "type": "address"
        },
        {
          "indexed": false,
          "internalType": "uint256",
          "name": "processID",
          "type": "uint256"
        },
        {
          "indexed": false,
          "internalType": "address",
          "name": "processContractAddress",
          "type": "address"
        }
      ],
      "name": "TaskStarted",
      "type": "event"
    },
    {
      "inputs": [
        {
          "internalType": "address",
          "name": "maintainerAddress",
          "type": "address"
        }
      ],
      "name": "authorizeMaintainer",
      "outputs": [],
      "stateMutability": "nonpayable",
      "type": "function"
    },
    {
      "inputs": [
        {
          "internalType": "address",
          "name": "manufacturerAddress",
          "type": "address"
        }
      ],
      "name": "authorizeManufacturer",
      "outputs": [],
      "stateMutability": "nonpayable",
      "type": "function"
    },
    {
      "inputs": [
        {
          "internalType": "address",
          "name": "maintainerAddress",
          "type": "address"
        }
      ],
      "name": "deauthorizeMaintainer",
      "outputs": [],
      "stateMutability": "nonpayable",
      "type": "function"
    },
    {
      "inputs": [
        {
          "internalType": "address",
          "name": "manufacturerAddress",
          "type": "address"
        }
      ],
      "name": "deauthorizeManufacturer",
      "outputs": [],
      "stateMutability": "nonpayable",
      "type": "function"
    },
    {
      "inputs": [
        {
          "internalType": "uint256",
          "name": "taskID",
          "type": "uint256"
        }
      ],
      "name": "finishTask",
      "outputs": [],
      "stateMutability": "nonpayable",
      "type": "function"
    },
    {
      "inputs": [],
      "name": "getAuthorizedMaintainers",
      "outputs": [
        {
          "internalType": "address[]",
          "name": "",
          "type": "address[]"
        }
      ],
      "stateMutability": "view",
      "type": "function",
      "constant": true
    },
    {
      "inputs": [],
      "name": "getAuthorizedManufacturers",
      "outputs": [
        {
          "internalType": "address[]",
          "name": "",
          "type": "address[]"
        }
      ],
      "stateMutability": "view",
      "type": "function",
      "constant": true
    },
    {
      "inputs": [
        {
          "internalType": "uint256",
          "name": "issueID",
          "type": "uint256"
        }
      ],
      "name": "getIssue",
      "outputs": [
        {
          "internalType": "uint256",
          "name": "",
          "type": "uint256"
        },
        {
          "internalType": "uint256",
          "name": "",
          "type": "uint256"
        },
        {
          "internalType": "string",
          "name": "",
          "type": "string"
        },
        {
          "internalType": "string",
          "name": "",
          "type": "string"
        }
      ],
      "stateMutability": "view",
      "type": "function",
      "constant": true
    },
    {
      "inputs": [],
      "name": "getIssuesCount",
      "outputs": [
        {
          "internalType": "uint256",
          "name": "",
          "type": "uint256"
        }
      ],
      "stateMutability": "view",
      "type": "function",
      "constant": true
    },
    {
      "inputs": [],
      "name": "getMachineID",
      "outputs": [
        {
          "internalType": "address",
          "name": "",
          "type": "address"
        }
      ],
      "stateMutability": "view",
      "type": "function",
      "constant": true
    },
    {
      "inputs": [
        {
          "internalType": "bytes32",
          "name": "infoName",
          "type": "bytes32"
        }
      ],
      "name": "getMachineInfo",
      "outputs": [
        {
          "internalType": "bytes32",
          "name": "",
          "type": "bytes32"
        }
      ],
      "stateMutability": "view",
      "type": "function",
      "constant": true
    },
    {
      "inputs": [],
      "name": "getMachineInfoNames",
      "outputs": [
        {
          "internalType": "bytes32[]",
          "name": "",
          "type": "bytes32[]"
        }
      ],
      "stateMutability": "view",
      "type": "function",
      "constant": true
    },
    {
      "inputs": [],
      "name": "getMachineOwner",
      "outputs": [
        {
          "internalType": "address",
          "name": "",
          "type": "address"
        }
      ],
      "stateMutability": "view",
      "type": "function",
      "constant": true
    },
    {
      "inputs": [
        {
          "internalType": "uint256",
          "name": "maintenanceOperationID",
          "type": "uint256"
        }
      ],
      "name": "getMaintenanceOperation",
      "outputs": [
        {
          "internalType": "uint256",
          "name": "",
          "type": "uint256"
        },
        {
          "internalType": "address",
          "name": "",
          "type": "address"
        },
        {
          "internalType": "string",
          "name": "",
          "type": "string"
        }
      ],
      "stateMutability": "view",
      "type": "function",
      "constant": true
    },
    {
      "inputs": [],
      "name": "getMaintenanceOperationsCount",
      "outputs": [
        {
          "internalType": "uint256",
          "name": "",
          "type": "uint256"
        }
      ],
      "stateMutability": "view",
      "type": "function",
      "constant": true
    },
    {
      "inputs": [
        {
          "internalType": "enum Machine.ReadingType",
          "name": "readingType",
          "type": "uint8"
        }
      ],
      "name": "getNewReading",
      "outputs": [],
      "stateMutability": "nonpayable",
      "type": "function"
    },
    {
      "inputs": [
        {
          "internalType": "uint256",
          "name": "taskID",
          "type": "uint256"
        }
      ],
      "name": "getProductID",
      "outputs": [
        {
          "internalType": "address",
          "name": "",
          "type": "address"
        }
      ],
      "stateMutability": "view",
      "type": "function",
      "constant": true
    },
    {
      "inputs": [
        {
          "internalType": "uint256",
          "name": "opeationID",
          "type": "uint256"
        }
      ],
      "name": "getProductOperation",
      "outputs": [
        {
          "internalType": "address",
          "name": "",
          "type": "address"
        },
        {
          "internalType": "uint256",
          "name": "",
          "type": "uint256"
        },
        {
          "internalType": "uint256",
          "name": "",
          "type": "uint256"
        },
        {
          "internalType": "string",
          "name": "",
          "type": "string"
        },
        {
          "internalType": "string",
          "name": "",
          "type": "string"
        }
      ],
      "stateMutability": "view",
      "type": "function",
      "constant": true
    },
    {
      "inputs": [
        {
          "internalType": "address",
          "name": "productDID",
          "type": "address"
        }
      ],
      "name": "getProductOperations",
      "outputs": [
        {
          "internalType": "uint256[]",
          "name": "",
          "type": "uint256[]"
        }
      ],
      "stateMutability": "view",
      "type": "function",
      "constant": true
    },
    {
      "inputs": [
        {
          "internalType": "address",
          "name": "productDID",
          "type": "address"
        }
      ],
      "name": "getProductTasks",
      "outputs": [
        {
          "internalType": "uint256[]",
          "name": "",
          "type": "uint256[]"
        }
      ],
      "stateMutability": "view",
      "type": "function",
      "constant": true
    },
    {
      "inputs": [
        {
          "internalType": "uint256",
          "name": "readingID",
          "type": "uint256"
        }
      ],
      "name": "getReading",
      "outputs": [
        {
          "internalType": "uint256",
          "name": "",
          "type": "uint256"
        },
        {
          "internalType": "enum Machine.ReadingType",
          "name": "",
          "type": "uint8"
        },
        {
          "internalType": "int256",
          "name": "",
          "type": "int256"
        },
        {
          "internalType": "uint256",
          "name": "",
          "type": "uint256"
        }
      ],
      "stateMutability": "view",
      "type": "function",
      "constant": true
    },
    {
      "inputs": [],
      "name": "getReadingsCount",
      "outputs": [
        {
          "internalType": "uint256",
          "name": "",
          "type": "uint256"
        }
      ],
      "stateMutability": "view",
      "type": "function",
      "constant": true
    },
    {
      "inputs": [
        {
          "internalType": "uint256",
          "name": "taskID",
          "type": "uint256"
        }
      ],
      "name": "getTask",
      "outputs": [
        {
          "internalType": "address",
          "name": "",
          "type": "address"
        },
        {
          "internalType": "string",
          "name": "",
          "type": "string"
        },
        {
          "internalType": "uint256",
          "name": "",
          "type": "uint256"
        },
        {
          "internalType": "uint256",
          "name": "",
          "type": "uint256"
        },
        {
          "internalType": "bytes32[]",
          "name": "",
          "type": "bytes32[]"
        }
      ],
      "stateMutability": "view",
      "type": "function",
      "constant": true
    },
    {
      "inputs": [
        {
          "internalType": "uint256",
          "name": "taskID",
          "type": "uint256"
        },
        {
          "internalType": "bytes32",
          "name": "inputName",
          "type": "bytes32"
        }
      ],
      "name": "getTaskInput",
      "outputs": [
        {
          "internalType": "string",
          "name": "",
          "type": "string"
        }
      ],
      "stateMutability": "view",
      "type": "function",
      "constant": true
    },
    {
      "inputs": [],
      "name": "getTasksCount",
      "outputs": [
        {
          "internalType": "uint256",
          "name": "",
          "type": "uint256"
        }
      ],
      "stateMutability": "view",
      "type": "function",
      "constant": true
    },
    {
      "inputs": [
        {
          "internalType": "bytes32",
          "name": "",
          "type": "bytes32"
        }
      ],
      "name": "info",
      "outputs": [
        {
          "internalType": "bytes32",
          "name": "",
          "type": "bytes32"
        }
      ],
      "stateMutability": "view",
      "type": "function",
      "constant": true
    },
    {
      "inputs": [
        {
          "internalType": "uint256",
          "name": "taskID",
          "type": "uint256"
        }
      ],
      "name": "isTaskFinished",
      "outputs": [
        {
          "internalType": "bool",
          "name": "",
          "type": "bool"
        }
      ],
      "stateMutability": "view",
      "type": "function",
      "constant": true
    },
    {
      "inputs": [
        {
          "internalType": "uint256",
          "name": "taskID",
          "type": "uint256"
        }
      ],
      "name": "killTask",
      "outputs": [],
      "stateMutability": "nonpayable",
      "type": "function"
    },
    {
      "inputs": [],
      "name": "machineID",
      "outputs": [
        {
          "internalType": "address",
          "name": "",
          "type": "address"
        }
      ],
      "stateMutability": "view",
      "type": "function",
      "constant": true
    },
    {
      "inputs": [],
      "name": "machineOwner",
      "outputs": [
        {
          "internalType": "address",
          "name": "",
          "type": "address"
        }
      ],
      "stateMutability": "view",
      "type": "function",
      "constant": true
    },
    {
      "inputs": [],
      "name": "owner",
      "outputs": [
        {
          "internalType": "address",
          "name": "",
          "type": "address"
        }
      ],
      "stateMutability": "view",
      "type": "function",
      "constant": true
    },
    {
      "inputs": [],
      "name": "renounceOwnership",
      "outputs": [],
      "stateMutability": "nonpayable",
      "type": "function"
    },
    {
      "inputs": [
        {
          "internalType": "bytes32",
          "name": "infoName",
          "type": "bytes32"
        },
        {
          "internalType": "bytes32",
          "name": "infoValue",
          "type": "bytes32"
        }
      ],
      "name": "saveMachineInfo",
      "outputs": [],
      "stateMutability": "nonpayable",
      "type": "function"
    },
    {
      "inputs": [
        {
          "internalType": "string",
          "name": "description",
          "type": "string"
        }
      ],
      "name": "saveMaintenanceOperation",
      "outputs": [
        {
          "internalType": "uint256",
          "name": "",
          "type": "uint256"
        }
      ],
      "stateMutability": "nonpayable",
      "type": "function"
    },
    {
      "inputs": [
        {
          "internalType": "uint256",
          "name": "taskID",
          "type": "uint256"
        },
        {
          "internalType": "string",
          "name": "operationName",
          "type": "string"
        },
        {
          "internalType": "string",
          "name": "operationResult",
          "type": "string"
        }
      ],
      "name": "saveProductOperation",
      "outputs": [],
      "stateMutability": "nonpayable",
      "type": "function"
    },
    {
      "inputs": [
        {
          "internalType": "uint256",
          "name": "taskID",
          "type": "uint256"
        },
        {
          "internalType": "bytes32",
          "name": "inputName",
          "type": "bytes32"
        },
        {
          "internalType": "string",
          "name": "inputValue",
          "type": "string"
        }
      ],
      "name": "saveTaskParam",
      "outputs": [],
      "stateMutability": "nonpayable",
      "type": "function"
    },
    {
      "inputs": [
        {
          "internalType": "uint256",
          "name": "taskID",
          "type": "uint256"
        }
      ],
      "name": "startTask",
      "outputs": [],
      "stateMutability": "nonpayable",
      "type": "function"
    },
    {
      "inputs": [
        {
          "internalType": "address",
          "name": "newOwner",
          "type": "address"
        }
      ],
      "name": "transferOwnership",
      "outputs": [],
      "stateMutability": "nonpayable",
      "type": "function"
    },
    {
      "inputs": [
        {
          "internalType": "uint256",
          "name": "taskID",
          "type": "uint256"
        }
      ],
      "name": "getTaskName",
      "outputs": [
        {
          "internalType": "string",
          "name": "",
          "type": "string"
        }
      ],
      "stateMutability": "view",
      "type": "function",
      "constant": true
    },
    {
      "inputs": [
        {
          "internalType": "uint256",
          "name": "processID",
          "type": "uint256"
        },
        {
          "internalType": "address",
          "name": "productDID",
          "type": "address"
        }
      ],
      "name": "assignGetInfoTask",
      "outputs": [],
      "stateMutability": "nonpayable",
      "type": "function"
    },
    {
      "inputs": [
        {
          "internalType": "uint256",
          "name": "taskID",
          "type": "uint256"
        },
        {
          "internalType": "string",
          "name": "nfcTag",
          "type": "string"
        },
        {
          "internalType": "string",
          "name": "color",
          "type": "string"
        }
      ],
      "name": "finishGetInfoTask",
      "outputs": [],
      "stateMutability": "nonpayable",
      "type": "function"
    },
    {
      "inputs": [
        {
          "internalType": "uint256",
          "name": "processID",
          "type": "uint256"
        },
        {
          "internalType": "address",
          "name": "productDID",
          "type": "address"
        }
      ],
      "name": "assignDropToHBWTask",
      "outputs": [],
      "stateMutability": "nonpayable",
      "type": "function"
    },
    {
      "inputs": [
        {
          "internalType": "uint256",
          "name": "processID",
          "type": "uint256"
        },
        {
          "internalType": "address",
          "name": "productDID",
          "type": "address"
        }
      ],
      "name": "assignMoveHBW2MPOTask",
      "outputs": [],
      "stateMutability": "nonpayable",
      "type": "function"
    },
    {
      "inputs": [
        {
          "internalType": "uint256",
          "name": "processID",
          "type": "uint256"
        },
        {
          "internalType": "address",
          "name": "productDID",
          "type": "address"
        },
        {
          "internalType": "string",
          "name": "color",
          "type": "string"
        }
      ],
      "name": "assignPickSortedTask",
      "outputs": [],
      "stateMutability": "nonpayable",
      "type": "function"
    },
    {
      "inputs": [
        {
          "internalType": "uint256",
          "name": "taskID",
          "type": "uint256"
        },
        {
          "internalType": "enum Machine.ReadingType",
          "name": "readingType",
          "type": "uint8"
        },
        {
          "internalType": "int256",
          "name": "readingValue",
          "type": "int256"
        }
      ],
      "name": "saveReadingVGR",
      "outputs": [],
      "stateMutability": "nonpayable",
      "type": "function"
    }
  ],
  "bytecode": "0x60806040523480156200001157600080fd5b506040516200562d3803806200562d833981810160405260608110156200003757600080fd5b81019080805190602001909291908051906020019092919080519060200190929190505050828282600062000071620001de60201b60201c565b9050806000806101000a81548173ffffffffffffffffffffffffffffffffffffffff021916908373ffffffffffffffffffffffffffffffffffffffff1602179055508073ffffffffffffffffffffffffffffffffffffffff16600073ffffffffffffffffffffffffffffffffffffffff167f8be0079c531659141344cd1fd0a4f28419497f9722a3daafe3b4186f6b6457e060405160405180910390a35082600260006101000a81548173ffffffffffffffffffffffffffffffffffffffff021916908373ffffffffffffffffffffffffffffffffffffffff16021790555081600360006101000a81548173ffffffffffffffffffffffffffffffffffffffff021916908373ffffffffffffffffffffffffffffffffffffffff16021790555080600160006101000a81548173ffffffffffffffffffffffffffffffffffffffff021916908373ffffffffffffffffffffffffffffffffffffffff160217905550505050505050620001e6565b600033905090565b61543780620001f66000396000f3fe608060405234801561001057600080fd5b506004361061027e5760003560e01c8063935086a21161015c578063c0ddec42116100ce578063e5abfd0c11610087578063e5abfd0c14611552578063ed210f99146115b1578063ee19dc85146115f3578063f2fde38b14611637578063f75609521461167b578063ffd7bb5e146116c15761027e565b8063c0ddec421461118d578063cef27d82146111ab578063d4b5a61f1461120a578063d4c3a63214611258578063d83e6be2146112a2578063dc787f1a146113fe5761027e565b8063abeff4dd11610120578063abeff4dd14610f7b578063afbf505414610fbf578063b3620b361461101e578063b64a097e14611062578063bd98acd0146110a4578063c0b4621a146110dc5761027e565b8063935086a214610c4857806393d6c1c114610c96578063976b311314610df25780639f89927314610f13578063abc06f8514610f315761027e565b806350b59447116101f5578063715018a6116101b9578063715018a614610adc5780637eed8e9f14610ae65780637f4f773c14610b54578063842178b214610b825780638da5cb5b14610bb0578063926b381714610bfa5761027e565b806350b5944714610981578063546457b31461099f57806356755b13146109bd5780635f94432614610a645780636ac740d014610a925761027e565b806315d2d40c1161024757806315d2d40c146105215780631d65e77e146105ba5780632a861d34146106ea57806340265033146107835780634bac69f1146108685780634eed50f5146109375761027e565b806287a78814610283578063089e1b39146102e857806308dd5cfe1461032c5780630f183027146103fb57806311f47ab914610440575b600080fd5b6102af6004803603602081101561029957600080fd5b81019080803590602001909291905050506116f2565b604051808581526020018460048111156102c557fe5b60ff16815260200183815260200182815260200194505050505060405180910390f35b61032a600480360360208110156102fe57600080fd5b81019080803573ffffffffffffffffffffffffffffffffffffffff1690602001909291905050506117f6565b005b6103e56004803603602081101561034257600080fd5b810190808035906020019064010000000081111561035f57600080fd5b82018360208201111561037157600080fd5b8035906020019184600183028401116401000000008311171561039357600080fd5b91908080601f016020809104026020016040519081016040528093929190818152602001838380828437600081840152601f19601f820116905080830192505050505050509192919290505050611941565b6040518082815260200191505060405180910390f35b61043e6004803603606081101561041157600080fd5b8101908080359060200190929190803560ff16906020019092919080359060200190929190505050611b86565b005b61046c6004803603602081101561045657600080fd5b8101908080359060200190929190505050611b97565b604051808481526020018373ffffffffffffffffffffffffffffffffffffffff1673ffffffffffffffffffffffffffffffffffffffff16815260200180602001828103825283818151815260200191508051906020019080838360005b838110156104e45780820151818401526020810190506104c9565b50505050905090810190601f1680156105115780820380516001836020036101000a031916815260200191505b5094505050505060405180910390f35b6105636004803603602081101561053757600080fd5b81019080803573ffffffffffffffffffffffffffffffffffffffff169060200190929190505050611d12565b6040518080602001828103825283818151815260200191508051906020019060200280838360005b838110156105a657808201518184015260208101905061058b565b505050509050019250505060405180910390f35b6105e6600480360360208110156105d057600080fd5b8101908080359060200190929190505050611e8f565b604051808673ffffffffffffffffffffffffffffffffffffffff1673ffffffffffffffffffffffffffffffffffffffff1681526020018060200185815260200184815260200180602001838103835287818151815260200191508051906020019080838360005b8381101561066857808201518184015260208101905061064d565b50505050905090810190601f1680156106955780820380516001836020036101000a031916815260200191505b50838103825284818151815260200191508051906020019060200280838360005b838110156106d15780820151818401526020810190506106b6565b5050505090500197505050505050505060405180910390f35b61072c6004803603602081101561070057600080fd5b81019080803573ffffffffffffffffffffffffffffffffffffffff1690602001909291905050506120b2565b6040518080602001828103825283818151815260200191508051906020019060200280838360005b8381101561076f578082015181840152602081019050610754565b505050509050019250505060405180910390f35b6108666004803603606081101561079957600080fd5b8101908080359060200190929190803573ffffffffffffffffffffffffffffffffffffffff169060200190929190803590602001906401000000008111156107e057600080fd5b8201836020820111156107f257600080fd5b8035906020019184600183028401116401000000008311171561081457600080fd5b91908080601f016020809104026020016040519081016040528093929190818152602001838380828437600081840152601f19601f820116905080830192505050505050509192919290505050612149565b005b6109356004803603606081101561087e57600080fd5b810190808035906020019092919080359060200190929190803590602001906401000000008111156108af57600080fd5b8201836020820111156108c157600080fd5b803590602001918460018302840111640100000000831117156108e357600080fd5b91908080601f016020809104026020016040519081016040528093929190818152602001838380828437600081840152601f19601f820116905080830192505050505050509192919290505050612192565b005b61093f612359565b604051808273ffffffffffffffffffffffffffffffffffffffff1673ffffffffffffffffffffffffffffffffffffffff16815260200191505060405180910390f35b610989612383565b6040518082815260200191505060405180910390f35b6109a7612394565b6040518082815260200191505060405180910390f35b6109e9600480360360208110156109d357600080fd5b81019080803590602001909291905050506123a5565b6040518080602001828103825283818151815260200191508051906020019080838360005b83811015610a29578082015181840152602081019050610a0e565b50505050905090810190601f168015610a565780820380516001836020036101000a031916815260200191505b509250505060405180910390f35b610a9060048036036020811015610a7a57600080fd5b81019080803590602001909291905050506124e5565b005b610a9a61285b565b604051808273ffffffffffffffffffffffffffffffffffffffff1673ffffffffffffffffffffffffffffffffffffffff16815260200191505060405180910390f35b610ae4612885565b005b610b1260048036036020811015610afc57600080fd5b8101908080359060200190929190505050612a0d565b604051808273ffffffffffffffffffffffffffffffffffffffff1673ffffffffffffffffffffffffffffffffffffffff16815260200191505060405180910390f35b610b8060048036036020811015610b6a57600080fd5b8101908080359060200190929190505050612ad5565b005b610bae60048036036020811015610b9857600080fd5b8101908080359060200190929190505050612cb5565b005b610bb861302b565b604051808273ffffffffffffffffffffffffffffffffffffffff1673ffffffffffffffffffffffffffffffffffffffff16815260200191505060405180910390f35b610c4660048036036040811015610c1057600080fd5b8101908080359060200190929190803573ffffffffffffffffffffffffffffffffffffffff169060200190929190505050613054565b005b610c9460048036036040811015610c5e57600080fd5b8101908080359060200190929190803573ffffffffffffffffffffffffffffffffffffffff16906020019092919050505061306d565b005b610df060048036036060811015610cac57600080fd5b810190808035906020019092919080359060200190640100000000811115610cd357600080fd5b820183602082011115610ce557600080fd5b80359060200191846001830284011164010000000083111715610d0757600080fd5b91908080601f016020809104026020016040519081016040528093929190818152602001838380828437600081840152601f19601f82011690508083019250505050505050919291929080359060200190640100000000811115610d6a57600080fd5b820183602082011115610d7c57600080fd5b80359060200191846001830284011164010000000083111715610d9e57600080fd5b91908080601f016020809104026020016040519081016040528093929190818152602001838380828437600081840152601f19601f820116905080830192505050505050509192919290505050613086565b005b610e1e60048036036020811015610e0857600080fd5b81019080803590602001909291905050506133bb565b604051808581526020018481526020018060200180602001838103835285818151815260200191508051906020019080838360005b83811015610e6e578082015181840152602081019050610e53565b50505050905090810190601f168015610e9b5780820380516001836020036101000a031916815260200191505b50838103825284818151815260200191508051906020019080838360005b83811015610ed4578082015181840152602081019050610eb9565b50505050905090810190601f168015610f015780820380516001836020036101000a031916815260200191505b50965050505050505060405180910390f35b610f1b6135e8565b6040518082815260200191505060405180910390f35b610f396135f9565b604051808273ffffffffffffffffffffffffffffffffffffffff1673ffffffffffffffffffffffffffffffffffffffff16815260200191505060405180910390f35b610fbd60048036036020811015610f9157600080fd5b81019080803573ffffffffffffffffffffffffffffffffffffffff16906020019092919050505061361f565b005b610fc7613769565b6040518080602001828103825283818151815260200191508051906020019060200280838360005b8381101561100a578082015181840152602081019050610fef565b505050509050019250505060405180910390f35b6110606004803603602081101561103457600080fd5b81019080803573ffffffffffffffffffffffffffffffffffffffff1690602001909291905050506137fa565b005b61108e6004803603602081101561107857600080fd5b8101908080359060200190929190505050613944565b6040518082815260200191505060405180910390f35b6110da600480360360408110156110ba57600080fd5b81019080803590602001909291908035906020019092919050505061395c565b005b611112600480360360408110156110f257600080fd5b810190808035906020019092919080359060200190929190505050613a39565b6040518080602001828103825283818151815260200191508051906020019080838360005b83811015611152578082015181840152602081019050611137565b50505050905090810190601f16801561117f5780820380516001836020036101000a031916815260200191505b509250505060405180910390f35b611195613b8b565b6040518082815260200191505060405180910390f35b6111b3613b9c565b6040518080602001828103825283818151815260200191508051906020019060200280838360005b838110156111f65780820151818401526020810190506111db565b505050509050019250505060405180910390f35b6112566004803603604081101561122057600080fd5b8101908080359060200190929190803573ffffffffffffffffffffffffffffffffffffffff169060200190929190505050613bf7565b005b611260613c10565b604051808273ffffffffffffffffffffffffffffffffffffffff1673ffffffffffffffffffffffffffffffffffffffff16815260200191505060405180910390f35b6113fc600480360360608110156112b857600080fd5b8101908080359060200190929190803590602001906401000000008111156112df57600080fd5b8201836020820111156112f157600080fd5b8035906020019184600183028401116401000000008311171561131357600080fd5b91908080601f016020809104026020016040519081016040528093929190818152602001838380828437600081840152601f19601f8201169050808301925050505050505091929192908035906020019064010000000081111561137657600080fd5b82018360208201111561138857600080fd5b803590602001918460018302840111640100000000831117156113aa57600080fd5b91908080601f016020809104026020016040519081016040528093929190818152602001838380828437600081840152601f19601f820116905080830192505050505050509192919290505050613c36565b005b61142a6004803603602081101561141457600080fd5b8101908080359060200190929190505050613cc4565b604051808673ffffffffffffffffffffffffffffffffffffffff1673ffffffffffffffffffffffffffffffffffffffff1681526020018581526020018481526020018060200180602001838103835285818151815260200191508051906020019080838360005b838110156114ac578082015181840152602081019050611491565b50505050905090810190601f1680156114d95780820380516001836020036101000a031916815260200191505b50838103825284818151815260200191508051906020019080838360005b838110156115125780820151818401526020810190506114f7565b50505050905090810190601f16801561153f5780820380516001836020036101000a031916815260200191505b5097505050505050505060405180910390f35b61155a613f20565b6040518080602001828103825283818151815260200191508051906020019060200280838360005b8381101561159d578082015181840152602081019050611582565b505050509050019250505060405180910390f35b6115dd600480360360208110156115c757600080fd5b8101908080359060200190929190505050613fb1565b6040518082815260200191505060405180910390f35b6116356004803603602081101561160957600080fd5b81019080803573ffffffffffffffffffffffffffffffffffffffff169060200190929190505050613fce565b005b6116796004803603602081101561164d57600080fd5b81019080803573ffffffffffffffffffffffffffffffffffffffff169060200190929190505050614119565b005b6116a76004803603602081101561169157600080fd5b8101908080359060200190929190505050614326565b604051808215151515815260200191505060405180910390f35b6116f0600480360360208110156116d757600080fd5b81019080803560ff169060200190929190505050614404565b005b60008060008061170c85601161450890919063ffffffff16565b61177e576040517f08c379a00000000000000000000000000000000000000000000000000000000081526004018080602001828103825260168152602001807f52656164696e6720646f65736e27742065786973742e0000000000000000000081525060200191505060405180910390fd5b60136000868152602001908152602001600020600001546013600087815260200190815260200160002060010160009054906101000a900460ff166013600088815260200190815260200160002060020154601360008981526020019081526020016000206003015493509350935093509193509193565b600260009054906101000a900473ffffffffffffffffffffffffffffffffffffffff1673ffffffffffffffffffffffffffffffffffffffff1661183761455c565b73ffffffffffffffffffffffffffffffffffffffff16146118a3576040517f08c379a000000000000000000000000000000000000000000000000000000000815260040180806020018281038252602a815260200180615305602a913960400191505060405180910390fd5b6118b781601c61456490919063ffffffff16565b1561192a576040517f08c379a000000000000000000000000000000000000000000000000000000000815260040180806020018281038252601b8152602001807f4d616e75666163747572657220616c72656164792065786973742e000000000081525060200191505060405180910390fd5b61193e81601c61463090919063ffffffff16565b50565b600061195e61194e61455c565b601e61456490919063ffffffff16565b806119bd5750600260009054906101000a900473ffffffffffffffffffffffffffffffffffffffff1673ffffffffffffffffffffffffffffffffffffffff166119a561455c565b73ffffffffffffffffffffffffffffffffffffffff16145b611a12576040517f08c379a00000000000000000000000000000000000000000000000000000000081526004018080602001828103825260338152602001806152a86033913960400191505060405180910390fd5b611a1c6018614749565b6000611a28601861475f565b9050611a3e81601961476d90919063ffffffff16565b6000601b60008381526020019081526020016000209050428160000181905550611a6661455c565b8160010160006101000a81548173ffffffffffffffffffffffffffffffffffffffff021916908373ffffffffffffffffffffffffffffffffffffffff16021790555083816002019080519060200190611ac09291906151b9565b50611ac961455c565b73ffffffffffffffffffffffffffffffffffffffff16827fdf898f82123c1d886ac510dab0606c18eb18e75ec238c4930cb278508fc2a445866040518080602001828103825283818151815260200191508051906020019080838360005b83811015611b42578082015181840152602081019050611b27565b50505050905090810190601f168015611b6f5780820380516001836020036101000a031916815260200191505b509250505060405180910390a38192505050919050565b611b91838383614820565b50505050565b6000806060611bb084601961450890919063ffffffff16565b611c05576040517f08c379a00000000000000000000000000000000000000000000000000000000081526004018080602001828103825260238152602001806152856023913960400191505060405180910390fd5b601b600085815260200190815260200160002060000154601b600086815260200190815260200160002060010160009054906101000a900473ffffffffffffffffffffffffffffffffffffffff16601b6000878152602001908152602001600020600201808054600181600116156101000203166002900480601f016020809104026020016040519081016040528092919081815260200182805460018160011615610100020316600290048015611cfe5780601f10611cd357610100808354040283529160200191611cfe565b820191906000526020600020905b815481529060010190602001808311611ce157829003601f168201915b505050505090509250925092509193909250565b6060600160009054906101000a900473ffffffffffffffffffffffffffffffffffffffff1673ffffffffffffffffffffffffffffffffffffffff166315d2d40c836040518263ffffffff1660e01b8152600401808273ffffffffffffffffffffffffffffffffffffffff1673ffffffffffffffffffffffffffffffffffffffff16815260200191505060006040518083038186803b158015611db357600080fd5b505afa158015611dc7573d6000803e3d6000fd5b505050506040513d6000823e3d601f19601f820116820180604052506020811015611df157600080fd5b8101908080516040519392919084640100000000821115611e1157600080fd5b83820191506020820185811115611e2757600080fd5b8251866020820283011164010000000082111715611e4457600080fd5b8083526020830192505050908051906020019060200280838360005b83811015611e7b578082015181840152602081019050611e60565b505050509050016040525050509050919050565b60006060600080606085611ead81600861450890919063ffffffff16565b611f1f576040517f08c379a00000000000000000000000000000000000000000000000000000000081526004018080602001828103825260138152602001807f5461736b20646f65736e27742065786973742e0000000000000000000000000081525060200191505060405180910390fd5b600b600088815260200190815260200160002060000160009054906101000a900473ffffffffffffffffffffffffffffffffffffffff16600b6000898152602001908152602001600020600101600b60008a815260200190815260200160002060020154600b60008b815260200190815260200160002060030154600b60008c8152602001908152602001600020600501838054600181600116156101000203166002900480601f0160208091040260200160405190810160405280929190818152602001828054600181600116156101000203166002900480156120455780601f1061201a57610100808354040283529160200191612045565b820191906000526020600020905b81548152906001019060200180831161202857829003601f168201915b505050505093508080548060200260200160405190810160405280929190818152602001828054801561209757602002820191906000526020600020905b815481526020019060010190808311612083575b50505050509050955095509550955095505091939590929450565b6060600a60008373ffffffffffffffffffffffffffffffffffffffff1673ffffffffffffffffffffffffffffffffffffffff16815260200190815260200160002080548060200260200160405190810160405280929190818152602001828054801561213d57602002820191906000526020600020905b815481526020019060010190808311612129575b50505050509050919050565b600061215f848461215a600361495e565b614af1565b905061218c817f636f6c6f7200000000000000000000000000000000000000000000000000000084612192565b50505050565b826121a781600861450890919063ffffffff16565b612219576040517f08c379a00000000000000000000000000000000000000000000000000000000081526004018080602001828103825260138152602001807f5461736b20646f65736e27742065786973742e0000000000000000000000000081525060200191505060405180910390fd5b61222d32601c61456490919063ffffffff16565b806122855750600260009054906101000a900473ffffffffffffffffffffffffffffffffffffffff1673ffffffffffffffffffffffffffffffffffffffff163273ffffffffffffffffffffffffffffffffffffffff16145b6122da576040517f08c379a000000000000000000000000000000000000000000000000000000000815260040180806020018281038252603481526020018061537a6034913960400191505060405180910390fd5b81600b6000868152602001908152602001600020600401600085815260200190815260200160002090805190602001906123159291906151b9565b50600b600085815260200190815260200160002060050183908060018154018082558091505060019003906000526020600020016000909190919091505550505050565b6000600360009054906101000a900473ffffffffffffffffffffffffffffffffffffffff16905090565b600061238f6015614e69565b905090565b60006123a06011614e69565b905090565b6060816123bc81600861450890919063ffffffff16565b61242e576040517f08c379a00000000000000000000000000000000000000000000000000000000081526004018080602001828103825260138152602001807f5461736b20646f65736e27742065786973742e0000000000000000000000000081525060200191505060405180910390fd5b600b60008481526020019081526020016000206001018054600181600116156101000203166002900480601f0160208091040260200160405190810160405280929190818152602001828054600181600116156101000203166002900480156124d85780601f106124ad576101008083540402835291602001916124d8565b820191906000526020600020905b8154815290600101906020018083116124bb57829003601f168201915b5050505050915050919050565b806124fa81600861450890919063ffffffff16565b61256c576040517f08c379a00000000000000000000000000000000000000000000000000000000081526004018080602001828103825260138152602001807f5461736b20646f65736e27742065786973742e0000000000000000000000000081525060200191505060405180910390fd5b600360009054906101000a900473ffffffffffffffffffffffffffffffffffffffff1673ffffffffffffffffffffffffffffffffffffffff166125ad61455c565b73ffffffffffffffffffffffffffffffffffffffff1614612619576040517f08c379a00000000000000000000000000000000000000000000000000000000081526004018080602001828103825260248152602001806153566024913960400191505060405180910390fd5b6000600b600084815260200190815260200160002060020154146126a5576040517f08c379a00000000000000000000000000000000000000000000000000000000081526004018080602001828103825260158152602001807f5461736b20616c726561647920737461727465642e000000000000000000000081525060200191505060405180910390fd5b42600b600084815260200190815260200160002060020181905550817f27948a5425a88d5227a8da6bb904d02bdffce847e7464b28965943c1df6eeb346126eb846123a5565b600b600086815260200190815260200160002060000160009054906101000a900473ffffffffffffffffffffffffffffffffffffffff16600b600087815260200190815260200160002060060154600b600088815260200190815260200160002060070160009054906101000a900473ffffffffffffffffffffffffffffffffffffffff1660405180806020018573ffffffffffffffffffffffffffffffffffffffff1673ffffffffffffffffffffffffffffffffffffffff1681526020018481526020018373ffffffffffffffffffffffffffffffffffffffff1673ffffffffffffffffffffffffffffffffffffffff168152602001828103825286818151815260200191508051906020019080838360005b8381101561281a5780820151818401526020810190506127ff565b50505050905090810190601f1680156128475780820380516001836020036101000a031916815260200191505b509550505050505060405180910390a25050565b6000600260009054906101000a900473ffffffffffffffffffffffffffffffffffffffff16905090565b61288d61455c565b73ffffffffffffffffffffffffffffffffffffffff166000809054906101000a900473ffffffffffffffffffffffffffffffffffffffff1673ffffffffffffffffffffffffffffffffffffffff161461294e576040517f08c379a00000000000000000000000000000000000000000000000000000000081526004018080602001828103825260208152602001807f4f776e61626c653a2063616c6c6572206973206e6f7420746865206f776e657281525060200191505060405180910390fd5b600073ffffffffffffffffffffffffffffffffffffffff166000809054906101000a900473ffffffffffffffffffffffffffffffffffffffff1673ffffffffffffffffffffffffffffffffffffffff167f8be0079c531659141344cd1fd0a4f28419497f9722a3daafe3b4186f6b6457e060405160405180910390a360008060006101000a81548173ffffffffffffffffffffffffffffffffffffffff021916908373ffffffffffffffffffffffffffffffffffffffff160217905550565b600081612a2481600861450890919063ffffffff16565b612a96576040517f08c379a00000000000000000000000000000000000000000000000000000000081526004018080602001828103825260138152602001807f5461736b20646f65736e27742065786973742e0000000000000000000000000081525060200191505060405180910390fd5b600b600084815260200190815260200160002060000160009054906101000a900473ffffffffffffffffffffffffffffffffffffffff16915050919050565b80612aea81600861450890919063ffffffff16565b612b5c576040517f08c379a00000000000000000000000000000000000000000000000000000000081526004018080602001828103825260138152602001807f5461736b20646f65736e27742065786973742e0000000000000000000000000081525060200191505060405180910390fd5b600260009054906101000a900473ffffffffffffffffffffffffffffffffffffffff1673ffffffffffffffffffffffffffffffffffffffff16612b9d61455c565b73ffffffffffffffffffffffffffffffffffffffff1614612c09576040517f08c379a000000000000000000000000000000000000000000000000000000000815260040180806020018281038252602a815260200180615305602a913960400191505060405180910390fd5b6000600b60008481526020019081526020016000206003015414612c95576040517f08c379a00000000000000000000000000000000000000000000000000000000081526004018080602001828103825260168152602001807f5461736b20616c72656164792066696e69736865642e0000000000000000000081525060200191505060405180910390fd5b6001600b6000848152602001908152602001600020600301819055505050565b80612cca81600861450890919063ffffffff16565b612d3c576040517f08c379a00000000000000000000000000000000000000000000000000000000081526004018080602001828103825260138152602001807f5461736b20646f65736e27742065786973742e0000000000000000000000000081525060200191505060405180910390fd5b600360009054906101000a900473ffffffffffffffffffffffffffffffffffffffff1673ffffffffffffffffffffffffffffffffffffffff16612d7d61455c565b73ffffffffffffffffffffffffffffffffffffffff1614612de9576040517f08c379a00000000000000000000000000000000000000000000000000000000081526004018080602001828103825260248152602001806153566024913960400191505060405180910390fd5b6000600b60008481526020019081526020016000206003015414612e75576040517f08c379a00000000000000000000000000000000000000000000000000000000081526004018080602001828103825260168152602001807f5461736b20616c72656164792066696e69736865642e0000000000000000000081525060200191505060405180910390fd5b42600b600084815260200190815260200160002060030181905550817f61cf6a5d2a06194dbc71984d6f115141bd2f9399cbe66137af5462d871884b1b612ebb846123a5565b600b600086815260200190815260200160002060000160009054906101000a900473ffffffffffffffffffffffffffffffffffffffff16600b600087815260200190815260200160002060060154600b600088815260200190815260200160002060070160009054906101000a900473ffffffffffffffffffffffffffffffffffffffff1660405180806020018573ffffffffffffffffffffffffffffffffffffffff1673ffffffffffffffffffffffffffffffffffffffff1681526020018481526020018373ffffffffffffffffffffffffffffffffffffffff1673ffffffffffffffffffffffffffffffffffffffff168152602001828103825286818151815260200191508051906020019080838360005b83811015612fea578082015181840152602081019050612fcf565b50505050905090810190601f1680156130175780820380516001836020036101000a031916815260200191505b509550505050505060405180910390a25050565b60008060009054906101000a900473ffffffffffffffffffffffffffffffffffffffff16905090565b6130688282613063600161495e565b614af1565b505050565b613081828261307c600261495e565b614af1565b505050565b8261309b81600861450890919063ffffffff16565b61310d576040517f08c379a00000000000000000000000000000000000000000000000000000000081526004018080602001828103825260138152602001807f5461736b20646f65736e27742065786973742e0000000000000000000000000081525060200191505060405180910390fd5b600360009054906101000a900473ffffffffffffffffffffffffffffffffffffffff1673ffffffffffffffffffffffffffffffffffffffff1661314e61455c565b73ffffffffffffffffffffffffffffffffffffffff16146131ba576040517f08c379a00000000000000000000000000000000000000000000000000000000081526004018080602001828103825260248152602001806153566024913960400191505060405180910390fd5b6000600b600086815260200190815260200160002060000160009054906101000a900473ffffffffffffffffffffffffffffffffffffffff169050600160009054906101000a900473ffffffffffffffffffffffffffffffffffffffff1673ffffffffffffffffffffffffffffffffffffffff16630601e9ef828787876040518563ffffffff1660e01b8152600401808573ffffffffffffffffffffffffffffffffffffffff1673ffffffffffffffffffffffffffffffffffffffff1681526020018481526020018060200180602001838103835285818151815260200191508051906020019080838360005b838110156132c25780820151818401526020810190506132a7565b50505050905090810190601f1680156132ef5780820380516001836020036101000a031916815260200191505b50838103825284818151815260200191508051906020019080838360005b8381101561332857808201518184015260208101905061330d565b50505050905090810190601f1680156133555780820380516001836020036101000a031916815260200191505b509650505050505050602060405180830381600087803b15801561337857600080fd5b505af115801561338c573d6000803e3d6000fd5b505050506040513d60208110156133a257600080fd5b8101908080519060200190929190505050505050505050565b6000806060806133d585601561450890919063ffffffff16565b613447576040517f08c379a00000000000000000000000000000000000000000000000000000000081526004018080602001828103825260148152602001807f497373756520646f65736e27742065786973742e00000000000000000000000081525060200191505060405180910390fd5b601760008681526020019081526020016000206000015460176000878152602001908152602001600020600101546017600088815260200190815260200160002060020160176000898152602001908152602001600020600301818054600181600116156101000203166002900480601f0160208091040260200160405190810160405280929190818152602001828054600181600116156101000203166002900480156135365780601f1061350b57610100808354040283529160200191613536565b820191906000526020600020905b81548152906001019060200180831161351957829003601f168201915b50505050509150808054600181600116156101000203166002900480601f0160208091040260200160405190810160405280929190818152602001828054600181600116156101000203166002900480156135d25780601f106135a7576101008083540402835291602001916135d2565b820191906000526020600020905b8154815290600101906020018083116135b557829003601f168201915b5050505050905093509350935093509193509193565b60006135f46008614e69565b905090565b600260009054906101000a900473ffffffffffffffffffffffffffffffffffffffff1681565b600260009054906101000a900473ffffffffffffffffffffffffffffffffffffffff1673ffffffffffffffffffffffffffffffffffffffff1661366061455c565b73ffffffffffffffffffffffffffffffffffffffff16146136cc576040517f08c379a000000000000000000000000000000000000000000000000000000000815260040180806020018281038252602a815260200180615305602a913960400191505060405180910390fd5b6136e081601c61456490919063ffffffff16565b613752576040517f08c379a000000000000000000000000000000000000000000000000000000000815260040180806020018281038252601b8152602001807f4d616e75666163747572657220646f65736e27742065786973742e000000000081525060200191505060405180910390fd5b61376681601c614e7a90919063ffffffff16565b50565b6060601c6001018054806020026020016040519081016040528092919081815260200182805480156137f057602002820191906000526020600020905b8160009054906101000a900473ffffffffffffffffffffffffffffffffffffffff1673ffffffffffffffffffffffffffffffffffffffff16815260200190600101908083116137a6575b5050505050905090565b600260009054906101000a900473ffffffffffffffffffffffffffffffffffffffff1673ffffffffffffffffffffffffffffffffffffffff1661383b61455c565b73ffffffffffffffffffffffffffffffffffffffff16146138a7576040517f08c379a000000000000000000000000000000000000000000000000000000000815260040180806020018281038252602a815260200180615305602a913960400191505060405180910390fd5b6138bb81601e61456490919063ffffffff16565b61392d576040517f08c379a00000000000000000000000000000000000000000000000000000000081526004018080602001828103825260198152602001807f4d61696e7461696e657220646f65736e27742065786973742e0000000000000081525060200191505060405180910390fd5b61394181601e614e7a90919063ffffffff16565b50565b60046020528060005260406000206000915090505481565b600260009054906101000a900473ffffffffffffffffffffffffffffffffffffffff1673ffffffffffffffffffffffffffffffffffffffff1661399d61455c565b73ffffffffffffffffffffffffffffffffffffffff1614613a09576040517f08c379a000000000000000000000000000000000000000000000000000000000815260040180806020018281038252602a815260200180615305602a913960400191505060405180910390fd5b613a1d8260056150a190919063ffffffff16565b8060046000848152602001908152602001600020819055505050565b606082613a5081600861450890919063ffffffff16565b613ac2576040517f08c379a00000000000000000000000000000000000000000000000000000000081526004018080602001828103825260138152602001807f5461736b20646f65736e27742065786973742e0000000000000000000000000081525060200191505060405180910390fd5b600b600085815260200190815260200160002060040160008481526020019081526020016000208054600181600116156101000203166002900480601f016020809104026020016040519081016040528092919081815260200182805460018160011615610100020316600290048015613b7d5780601f10613b5257610100808354040283529160200191613b7d565b820191906000526020600020905b815481529060010190602001808311613b6057829003601f168201915b505050505091505092915050565b6000613b976019614e69565b905090565b60606005600101805480602002602001604051908101604052809291908181526020018280548015613bed57602002820191906000526020600020905b815481526020019060010190808311613bd9575b5050505050905090565b613c0b8282613c06600061495e565b614af1565b505050565b600360009054906101000a900473ffffffffffffffffffffffffffffffffffffffff1681565b613c76836040518060400160405280600d81526020017f4e464354616752656164696e670000000000000000000000000000000000000081525084613086565b613cb6836040518060400160405280600e81526020017f436f6c6f72446574656374696f6e00000000000000000000000000000000000081525083613086565b613cbf83612cb5565b505050565b6000806000606080600160009054906101000a900473ffffffffffffffffffffffffffffffffffffffff1673ffffffffffffffffffffffffffffffffffffffff1663dc787f1a876040518263ffffffff1660e01b81526004018082815260200191505060006040518083038186803b158015613d3f57600080fd5b505afa158015613d53573d6000803e3d6000fd5b505050506040513d6000823e3d601f19601f8201168201806040525060a0811015613d7d57600080fd5b8101908080519060200190929190805190602001909291908051906020019092919080516040519392919084640100000000821115613dbb57600080fd5b83820191506020820185811115613dd157600080fd5b8251866001820283011164010000000082111715613dee57600080fd5b8083526020830192505050908051906020019080838360005b83811015613e22578082015181840152602081019050613e07565b50505050905090810190601f168015613e4f5780820380516001836020036101000a031916815260200191505b5060405260200180516040519392919084640100000000821115613e7257600080fd5b83820191506020820185811115613e8857600080fd5b8251866001820283011164010000000082111715613ea557600080fd5b8083526020830192505050908051906020019080838360005b83811015613ed9578082015181840152602081019050613ebe565b50505050905090810190601f168015613f065780820380516001836020036101000a031916815260200191505b506040525050509450945094509450945091939590929450565b6060601e600101805480602002602001604051908101604052809291908181526020018280548015613fa757602002820191906000526020600020905b8160009054906101000a900473ffffffffffffffffffffffffffffffffffffffff1673ffffffffffffffffffffffffffffffffffffffff1681526020019060010190808311613f5d575b5050505050905090565b600060046000838152602001908152602001600020549050919050565b600260009054906101000a900473ffffffffffffffffffffffffffffffffffffffff1673ffffffffffffffffffffffffffffffffffffffff1661400f61455c565b73ffffffffffffffffffffffffffffffffffffffff161461407b576040517f08c379a000000000000000000000000000000000000000000000000000000000815260040180806020018281038252602a815260200180615305602a913960400191505060405180910390fd5b61408f81601e61456490919063ffffffff16565b15614102576040517f08c379a00000000000000000000000000000000000000000000000000000000081526004018080602001828103825260198152602001807f4d61696e7461696e657220616c72656164792065786973742e0000000000000081525060200191505060405180910390fd5b61411681601e61463090919063ffffffff16565b50565b61412161455c565b73ffffffffffffffffffffffffffffffffffffffff166000809054906101000a900473ffffffffffffffffffffffffffffffffffffffff1673ffffffffffffffffffffffffffffffffffffffff16146141e2576040517f08c379a00000000000000000000000000000000000000000000000000000000081526004018080602001828103825260208152602001807f4f776e61626c653a2063616c6c6572206973206e6f7420746865206f776e657281525060200191505060405180910390fd5b600073ffffffffffffffffffffffffffffffffffffffff168173ffffffffffffffffffffffffffffffffffffffff161415614268576040517f08c379a000000000000000000000000000000000000000000000000000000000815260040180806020018281038252602681526020018061525f6026913960400191505060405180910390fd5b8073ffffffffffffffffffffffffffffffffffffffff166000809054906101000a900473ffffffffffffffffffffffffffffffffffffffff1673ffffffffffffffffffffffffffffffffffffffff167f8be0079c531659141344cd1fd0a4f28419497f9722a3daafe3b4186f6b6457e060405160405180910390a3806000806101000a81548173ffffffffffffffffffffffffffffffffffffffff021916908373ffffffffffffffffffffffffffffffffffffffff16021790555050565b60008161433d81600861450890919063ffffffff16565b6143af576040517f08c379a00000000000000000000000000000000000000000000000000000000081526004018080602001828103825260138152602001807f5461736b20646f65736e27742065786973742e0000000000000000000000000081525060200191505060405180910390fd5b6000600b6000858152602001908152602001600020600301541415806143eb57506001600b600085815260200190815260200160002060030154145b156143f957600191506143fe565b600091505b50919050565b61440c61455c565b73ffffffffffffffffffffffffffffffffffffffff166000809054906101000a900473ffffffffffffffffffffffffffffffffffffffff1673ffffffffffffffffffffffffffffffffffffffff16146144cd576040517f08c379a00000000000000000000000000000000000000000000000000000000081526004018080602001828103825260208152602001807f4f776e61626c653a2063616c6c6572206973206e6f7420746865206f776e657281525060200191505060405180910390fd5b8060048111156144d957fe5b7fc456bf1769220afbee617f618ca674e78fd1cf51d5b5e89f10c81b8a517aae5f60405160405180910390a250565b600080836001018054905014156145225760009050614556565b8183600101846000016000858152602001908152602001600020548154811061454757fe5b90600052602060002001541490505b92915050565b600033905090565b6000808360010180549050141561457e576000905061462a565b8173ffffffffffffffffffffffffffffffffffffffff16836001018460000160008573ffffffffffffffffffffffffffffffffffffffff1673ffffffffffffffffffffffffffffffffffffffff16815260200190815260200160002054815481106145e557fe5b9060005260206000200160009054906101000a900473ffffffffffffffffffffffffffffffffffffffff1673ffffffffffffffffffffffffffffffffffffffff161490505b92915050565b61463a8282614564565b15614690576040517f08c379a000000000000000000000000000000000000000000000000000000000815260040180806020018281038252602a8152602001806153d8602a913960400191505060405180910390fd5b81600101819080600181540180825580915050600190039060005260206000200160009091909190916101000a81548173ffffffffffffffffffffffffffffffffffffffff021916908373ffffffffffffffffffffffffffffffffffffffff16021790555060018260010180549050038260000160008373ffffffffffffffffffffffffffffffffffffffff1673ffffffffffffffffffffffffffffffffffffffff168152602001908152602001600020819055505050565b6001816000016000828254019250508190555050565b600081600001549050919050565b6147778282614508565b156147cd576040517f08c379a000000000000000000000000000000000000000000000000000000000815260040180806020018281038252602781526020018061532f6027913960400191505060405180910390fd5b816001018190806001815401808255809150506001900390600052602060002001600090919091909150556001826001018054905003826000016000838152602001908152602001600020819055505050565b6000600360009054906101000a900473ffffffffffffffffffffffffffffffffffffffff1673ffffffffffffffffffffffffffffffffffffffff1661486361455c565b73ffffffffffffffffffffffffffffffffffffffff16146148cf576040517f08c379a00000000000000000000000000000000000000000000000000000000081526004018080602001828103825260248152602001806153566024913960400191505060405180910390fd5b6148d96010614749565b60006148e5601061475f565b90506148fb81601161476d90919063ffffffff16565b6000601360008381526020019081526020016000209050428160000181905550848160010160006101000a81548160ff0219169083600481111561493b57fe5b021790555083816002018190555085816003018190555081925050509392505050565b6060600582600381111561496e57fe5b60ff16111561497c57600080fd5b81600381111561498857fe5b6000600381111561499557fe5b14156149d8576040518060400160405280600781526020017f476574496e666f000000000000000000000000000000000000000000000000008152509050614aec565b8160038111156149e457fe5b600160038111156149f157fe5b1415614a34576040518060400160405280600981526020017f44726f70546f48425700000000000000000000000000000000000000000000008152509050614aec565b816003811115614a4057fe5b600380811115614a4c57fe5b1415614a8f576040518060400160405280600a81526020017f5069636b536f72746564000000000000000000000000000000000000000000008152509050614aec565b816003811115614a9b57fe5b60026003811115614aa857fe5b1415614aeb576040518060400160405280600b81526020017f4d6f7665484257324d504f0000000000000000000000000000000000000000008152509050614aec565b5b919050565b6000614b0732601c61456490919063ffffffff16565b80614b5f5750600260009054906101000a900473ffffffffffffffffffffffffffffffffffffffff1673ffffffffffffffffffffffffffffffffffffffff163273ffffffffffffffffffffffffffffffffffffffff16145b614bb4576040517f08c379a000000000000000000000000000000000000000000000000000000000815260040180806020018281038252603481526020018061537a6034913960400191505060405180910390fd5b614bbe6007614749565b6000614bca600761475f565b9050614be081600861476d90919063ffffffff16565b6000600b6000838152602001908152602001600020905083816001019080519060200190614c0f9291906151b9565b50848160000160006101000a81548173ffffffffffffffffffffffffffffffffffffffff021916908373ffffffffffffffffffffffffffffffffffffffff160217905550858160060181905550614c6461455c565b8160070160006101000a81548173ffffffffffffffffffffffffffffffffffffffff021916908373ffffffffffffffffffffffffffffffffffffffff160217905550600073ffffffffffffffffffffffffffffffffffffffff168573ffffffffffffffffffffffffffffffffffffffff1614614d4157600a60008673ffffffffffffffffffffffffffffffffffffffff1673ffffffffffffffffffffffffffffffffffffffff1681526020019081526020016000208290806001815401808255809150506001900390600052602060002001600090919091909150555b817f5587ff6d86d684c7f358b08135dce901c0047029ca150f5dc8e125fefc659def614d6c846123a5565b8789614d7661455c565b60405180806020018573ffffffffffffffffffffffffffffffffffffffff1673ffffffffffffffffffffffffffffffffffffffff1681526020018481526020018373ffffffffffffffffffffffffffffffffffffffff1673ffffffffffffffffffffffffffffffffffffffff168152602001828103825286818151815260200191508051906020019080838360005b83811015614e20578082015181840152602081019050614e05565b50505050905090810190601f168015614e4d5780820380516001836020036101000a031916815260200191505b509550505050505060405180910390a281925050509392505050565b600081600101805490509050919050565b614e848282614564565b614ed9576040517f08c379a000000000000000000000000000000000000000000000000000000000815260040180806020018281038252602a8152602001806152db602a913960400191505060405180910390fd5b60006001614ee684615154565b03905060008360000160008473ffffffffffffffffffffffffffffffffffffffff1673ffffffffffffffffffffffffffffffffffffffff168152602001908152602001600020549050818114615014576000846001018381548110614f4757fe5b9060005260206000200160009054906101000a900473ffffffffffffffffffffffffffffffffffffffff169050818560000160008373ffffffffffffffffffffffffffffffffffffffff1673ffffffffffffffffffffffffffffffffffffffff1681526020019081526020016000208190555080856001018381548110614fca57fe5b9060005260206000200160006101000a81548173ffffffffffffffffffffffffffffffffffffffff021916908373ffffffffffffffffffffffffffffffffffffffff160217905550505b8360000160008473ffffffffffffffffffffffffffffffffffffffff1673ffffffffffffffffffffffffffffffffffffffff168152602001908152602001600020600090558360010180548061506657fe5b6001900381819060005260206000200160006101000a81549073ffffffffffffffffffffffffffffffffffffffff0219169055905550505050565b6150ab8282615165565b15615101576040517f08c379a000000000000000000000000000000000000000000000000000000000815260040180806020018281038252602a8152602001806153ae602a913960400191505060405180910390fd5b816001018190806001815401808255809150506001900390600052602060002001600090919091909150556001826001018054905003826000016000838152602001908152602001600020819055505050565b600081600101805490509050919050565b6000808360010180549050141561517f57600090506151b3565b818360010184600001600085815260200190815260200160002054815481106151a457fe5b90600052602060002001541490505b92915050565b828054600181600116156101000203166002900490600052602060002090601f016020900481019282601f106151fa57805160ff1916838001178555615228565b82800160010185558215615228579182015b8281111561522757825182559160200191906001019061520c565b5b5090506152359190615239565b5090565b61525b91905b8082111561525757600081600090555060010161523f565b5090565b9056fe4f776e61626c653a206e6577206f776e657220697320746865207a65726f20616464726573734d61696e74656e616e63654f7065726174696f6e20646f65736e27742065786973742e4f6e6c7920617574686f72697a6564206d61696e7461696e6572732063616e2063616c6c20746869732066756e6374696f6e2e416464726573735365743a206b657920646f6573206e6f7420657869737420696e20746865207365742e4f6e6c79206d616368696e65206f776e65722063616e2063616c6c20746869732066756e6374696f6e2e55696e745365743a206b657920616c72656164792065786973747320696e20746865207365742e4f6e6c79206d616368696e652063616e2063616c6c20746869732066756e6374696f6e2e4f6e6c7920617574686f72697a6564206d616e7566616374757265732063616e2063616c6c20746869732066756e6374696f6e2e427974657333325365743a206b657920616c72656164792065786973747320696e20746865207365742e416464726573735365743a206b657920616c72656164792065786973747320696e20746865207365742ea2646970667358221220e5660788bb552e2447bd7bc43958315f2d338f76cd5589fec9c6a807522bb31e64736f6c634300060a0033",
  "immutableReferences": {},
  "source": "// SPDX-License-Identifier: MIT\npragma solidity >=0.4.21 <0.7.0;\n\nimport \"./Machine.sol\";\n\ncontract VGR is Machine {\n\n    enum TasksNames { GetInfo, DropToHBW, MoveHBW2MPO, PickSorted }\n\n    constructor(address _machineOwner, address _machineID, address _productContractAddress) Machine(_machineOwner, _machineID, _productContractAddress) public {}\n\n    function getTaskName(TasksNames taskName) internal pure returns (string memory) {\n        require(uint8(taskName) <= 5);\n        if (TasksNames.GetInfo == taskName) return \"GetInfo\";\n        if (TasksNames.DropToHBW == taskName) return \"DropToHBW\";\n        if (TasksNames.PickSorted == taskName) return \"PickSorted\";\n        if (TasksNames.MoveHBW2MPO == taskName) return \"MoveHBW2MPO\";\n    }\n\n    function assignGetInfoTask(uint processID, address productDID) public {\n        super.assignTask(processID, productDID, getTaskName(TasksNames.GetInfo));\n    }\n\n    function finishGetInfoTask(uint taskID, string memory nfcTag, string memory color) public {\n        super.saveProductOperation(taskID, \"NFCTagReading\", nfcTag);\n        super.saveProductOperation(taskID, \"ColorDetection\", color);\n        super.finishTask(taskID);\n    }\n\n    function assignDropToHBWTask(uint processID, address productDID) public{\n        super.assignTask(processID, productDID, getTaskName(TasksNames.DropToHBW));\n    }\n\n    function assignMoveHBW2MPOTask(uint processID, address productDID) public{\n        super.assignTask(processID, productDID, getTaskName(TasksNames.MoveHBW2MPO));\n    }\n\n    function assignPickSortedTask(uint processID, address productDID, string memory color) public{\n       uint taskID = super.assignTask(processID, productDID, getTaskName(TasksNames.PickSorted));\n       super.saveTaskParam(taskID, \"color\", color);\n    }\n\n    function saveReadingVGR(uint taskID, ReadingType readingType, int readingValue) public {\n        super.saveReading(taskID, readingType, readingValue);\n    }\n}",
  "sourcePath": "/Users/mohammadghanem/Desktop/studious-enigma/contracts/machines/VGR.sol",
  "compiler": {
    "name": "solc",
    "version": "0.6.10+commit.00c0fcaf.Emscripten.clang"
  },
  "schemaVersion": "3.2.3",
  "updatedAt": "2020-10-14T07:37:58.401Z",
  "networkType": "ethereum",
  "devdoc": {
    "methods": {
      "owner()": {
        "details": "Returns the address of the current owner."
      },
      "renounceOwnership()": {
        "details": "Leaves the contract without owner. It will not be possible to call `onlyOwner` functions anymore. Can only be called by the current owner. NOTE: Renouncing ownership will leave the contract without an owner, thereby removing any functionality that is only available to the owner."
      },
      "transferOwnership(address)": {
        "details": "Transfers ownership of the contract to a new account (`newOwner`). Can only be called by the current owner."
      }
    }
  },
  "userdoc": {
    "methods": {}
  }
}