{
  "contractName": "HBW",
  "abi": [
    {
      "inputs": [
        {
          "internalType": "address",
          "name": "_machineOwner",
          "type": "address"
        },
        {
          "internalType": "address",
          "name": "_machineID",
          "type": "address"
        },
        {
          "internalType": "address",
          "name": "_productContractAddress",
          "type": "address"
        }
      ],
      "stateMutability": "nonpayable",
      "type": "constructor"
    },
    {
      "anonymous": false,
      "inputs": [
        {
          "indexed": true,
          "internalType": "uint256",
          "name": "issueID",
          "type": "uint256"
        },
        {
          "indexed": false,
          "internalType": "string",
          "name": "reason",
          "type": "string"
        },
        {
          "indexed": false,
          "internalType": "string",
          "name": "issueType",
          "type": "string"
        }
      ],
      "name": "NewIssue",
      "type": "event"
    },
    {
      "anonymous": false,
      "inputs": [
        {
          "indexed": true,
          "internalType": "uint256",
          "name": "maintenanceOperationID",
          "type": "uint256"
        },
        {
          "indexed": true,
          "internalType": "address",
          "name": "maintainer",
          "type": "address"
        },
        {
          "indexed": false,
          "internalType": "string",
          "name": "description",
          "type": "string"
        }
      ],
      "name": "NewMaintenanceOperation",
      "type": "event"
    },
    {
      "anonymous": false,
      "inputs": [
        {
          "indexed": true,
          "internalType": "enum Machine.ReadingType",
          "name": "readingType",
          "type": "uint8"
        }
      ],
      "name": "NewReading",
      "type": "event"
    },
    {
      "anonymous": false,
      "inputs": [
        {
          "indexed": true,
          "internalType": "address",
          "name": "previousOwner",
          "type": "address"
        },
        {
          "indexed": true,
          "internalType": "address",
          "name": "newOwner",
          "type": "address"
        }
      ],
      "name": "OwnershipTransferred",
      "type": "event"
    },
    {
      "anonymous": false,
      "inputs": [
        {
          "indexed": true,
          "internalType": "uint256",
          "name": "taskID",
          "type": "uint256"
        },
        {
          "indexed": false,
          "internalType": "string",
          "name": "taskName",
          "type": "string"
        },
        {
          "indexed": false,
          "internalType": "address",
          "name": "productDID",
          "type": "address"
        },
        {
          "indexed": false,
          "internalType": "uint256",
          "name": "processID",
          "type": "uint256"
        },
        {
          "indexed": false,
          "internalType": "address",
          "name": "processContractAddress",
          "type": "address"
        }
      ],
      "name": "TaskAssigned",
      "type": "event"
    },
    {
      "anonymous": false,
      "inputs": [
        {
          "indexed": true,
          "internalType": "uint256",
          "name": "taskID",
          "type": "uint256"
        },
        {
          "indexed": false,
          "internalType": "string",
          "name": "taskName",
          "type": "string"
        },
        {
          "indexed": false,
          "internalType": "address",
          "name": "productDID",
          "type": "address"
        },
        {
          "indexed": false,
          "internalType": "uint256",
          "name": "processID",
          "type": "uint256"
        },
        {
          "indexed": false,
          "internalType": "address",
          "name": "processContractAddress",
          "type": "address"
        }
      ],
      "name": "TaskFinished",
      "type": "event"
    },
    {
      "anonymous": false,
      "inputs": [
        {
          "indexed": true,
          "internalType": "uint256",
          "name": "taskID",
          "type": "uint256"
        },
        {
          "indexed": false,
          "internalType": "string",
          "name": "taskName",
          "type": "string"
        },
        {
          "indexed": false,
          "internalType": "address",
          "name": "productDID",
          "type": "address"
        },
        {
          "indexed": false,
          "internalType": "uint256",
          "name": "processID",
          "type": "uint256"
        },
        {
          "indexed": false,
          "internalType": "address",
          "name": "processContractAddress",
          "type": "address"
        }
      ],
      "name": "TaskStarted",
      "type": "event"
    },
    {
      "inputs": [
        {
          "internalType": "address",
          "name": "maintainerAddress",
          "type": "address"
        }
      ],
      "name": "authorizeMaintainer",
      "outputs": [],
      "stateMutability": "nonpayable",
      "type": "function"
    },
    {
      "inputs": [
        {
          "internalType": "address",
          "name": "manufacturerAddress",
          "type": "address"
        }
      ],
      "name": "authorizeManufacturer",
      "outputs": [],
      "stateMutability": "nonpayable",
      "type": "function"
    },
    {
      "inputs": [
        {
          "internalType": "address",
          "name": "maintainerAddress",
          "type": "address"
        }
      ],
      "name": "deauthorizeMaintainer",
      "outputs": [],
      "stateMutability": "nonpayable",
      "type": "function"
    },
    {
      "inputs": [
        {
          "internalType": "address",
          "name": "manufacturerAddress",
          "type": "address"
        }
      ],
      "name": "deauthorizeManufacturer",
      "outputs": [],
      "stateMutability": "nonpayable",
      "type": "function"
    },
    {
      "inputs": [
        {
          "internalType": "uint256",
          "name": "taskID",
          "type": "uint256"
        }
      ],
      "name": "finishTask",
      "outputs": [],
      "stateMutability": "nonpayable",
      "type": "function"
    },
    {
      "inputs": [],
      "name": "getAuthorizedMaintainers",
      "outputs": [
        {
          "internalType": "address[]",
          "name": "",
          "type": "address[]"
        }
      ],
      "stateMutability": "view",
      "type": "function",
      "constant": true
    },
    {
      "inputs": [],
      "name": "getAuthorizedManufacturers",
      "outputs": [
        {
          "internalType": "address[]",
          "name": "",
          "type": "address[]"
        }
      ],
      "stateMutability": "view",
      "type": "function",
      "constant": true
    },
    {
      "inputs": [
        {
          "internalType": "uint256",
          "name": "issueID",
          "type": "uint256"
        }
      ],
      "name": "getIssue",
      "outputs": [
        {
          "internalType": "uint256",
          "name": "",
          "type": "uint256"
        },
        {
          "internalType": "uint256",
          "name": "",
          "type": "uint256"
        },
        {
          "internalType": "string",
          "name": "",
          "type": "string"
        },
        {
          "internalType": "string",
          "name": "",
          "type": "string"
        }
      ],
      "stateMutability": "view",
      "type": "function",
      "constant": true
    },
    {
      "inputs": [],
      "name": "getIssuesCount",
      "outputs": [
        {
          "internalType": "uint256",
          "name": "",
          "type": "uint256"
        }
      ],
      "stateMutability": "view",
      "type": "function",
      "constant": true
    },
    {
      "inputs": [],
      "name": "getMachineID",
      "outputs": [
        {
          "internalType": "address",
          "name": "",
          "type": "address"
        }
      ],
      "stateMutability": "view",
      "type": "function",
      "constant": true
    },
    {
      "inputs": [
        {
          "internalType": "bytes32",
          "name": "infoName",
          "type": "bytes32"
        }
      ],
      "name": "getMachineInfo",
      "outputs": [
        {
          "internalType": "bytes32",
          "name": "",
          "type": "bytes32"
        }
      ],
      "stateMutability": "view",
      "type": "function",
      "constant": true
    },
    {
      "inputs": [],
      "name": "getMachineInfoNames",
      "outputs": [
        {
          "internalType": "bytes32[]",
          "name": "",
          "type": "bytes32[]"
        }
      ],
      "stateMutability": "view",
      "type": "function",
      "constant": true
    },
    {
      "inputs": [],
      "name": "getMachineOwner",
      "outputs": [
        {
          "internalType": "address",
          "name": "",
          "type": "address"
        }
      ],
      "stateMutability": "view",
      "type": "function",
      "constant": true
    },
    {
      "inputs": [
        {
          "internalType": "uint256",
          "name": "maintenanceOperationID",
          "type": "uint256"
        }
      ],
      "name": "getMaintenanceOperation",
      "outputs": [
        {
          "internalType": "uint256",
          "name": "",
          "type": "uint256"
        },
        {
          "internalType": "address",
          "name": "",
          "type": "address"
        },
        {
          "internalType": "string",
          "name": "",
          "type": "string"
        }
      ],
      "stateMutability": "view",
      "type": "function",
      "constant": true
    },
    {
      "inputs": [],
      "name": "getMaintenanceOperationsCount",
      "outputs": [
        {
          "internalType": "uint256",
          "name": "",
          "type": "uint256"
        }
      ],
      "stateMutability": "view",
      "type": "function",
      "constant": true
    },
    {
      "inputs": [
        {
          "internalType": "enum Machine.ReadingType",
          "name": "readingType",
          "type": "uint8"
        }
      ],
      "name": "getNewReading",
      "outputs": [],
      "stateMutability": "nonpayable",
      "type": "function"
    },
    {
      "inputs": [
        {
          "internalType": "uint256",
          "name": "taskID",
          "type": "uint256"
        }
      ],
      "name": "getProductID",
      "outputs": [
        {
          "internalType": "address",
          "name": "",
          "type": "address"
        }
      ],
      "stateMutability": "view",
      "type": "function",
      "constant": true
    },
    {
      "inputs": [
        {
          "internalType": "uint256",
          "name": "opeationID",
          "type": "uint256"
        }
      ],
      "name": "getProductOperation",
      "outputs": [
        {
          "internalType": "address",
          "name": "",
          "type": "address"
        },
        {
          "internalType": "uint256",
          "name": "",
          "type": "uint256"
        },
        {
          "internalType": "uint256",
          "name": "",
          "type": "uint256"
        },
        {
          "internalType": "string",
          "name": "",
          "type": "string"
        },
        {
          "internalType": "string",
          "name": "",
          "type": "string"
        }
      ],
      "stateMutability": "view",
      "type": "function",
      "constant": true
    },
    {
      "inputs": [
        {
          "internalType": "address",
          "name": "productDID",
          "type": "address"
        }
      ],
      "name": "getProductOperations",
      "outputs": [
        {
          "internalType": "uint256[]",
          "name": "",
          "type": "uint256[]"
        }
      ],
      "stateMutability": "view",
      "type": "function",
      "constant": true
    },
    {
      "inputs": [
        {
          "internalType": "address",
          "name": "productDID",
          "type": "address"
        }
      ],
      "name": "getProductTasks",
      "outputs": [
        {
          "internalType": "uint256[]",
          "name": "",
          "type": "uint256[]"
        }
      ],
      "stateMutability": "view",
      "type": "function",
      "constant": true
    },
    {
      "inputs": [
        {
          "internalType": "uint256",
          "name": "readingID",
          "type": "uint256"
        }
      ],
      "name": "getReading",
      "outputs": [
        {
          "internalType": "uint256",
          "name": "",
          "type": "uint256"
        },
        {
          "internalType": "enum Machine.ReadingType",
          "name": "",
          "type": "uint8"
        },
        {
          "internalType": "int256",
          "name": "",
          "type": "int256"
        },
        {
          "internalType": "uint256",
          "name": "",
          "type": "uint256"
        }
      ],
      "stateMutability": "view",
      "type": "function",
      "constant": true
    },
    {
      "inputs": [],
      "name": "getReadingsCount",
      "outputs": [
        {
          "internalType": "uint256",
          "name": "",
          "type": "uint256"
        }
      ],
      "stateMutability": "view",
      "type": "function",
      "constant": true
    },
    {
      "inputs": [
        {
          "internalType": "uint256",
          "name": "taskID",
          "type": "uint256"
        }
      ],
      "name": "getTask",
      "outputs": [
        {
          "internalType": "address",
          "name": "",
          "type": "address"
        },
        {
          "internalType": "string",
          "name": "",
          "type": "string"
        },
        {
          "internalType": "uint256",
          "name": "",
          "type": "uint256"
        },
        {
          "internalType": "uint256",
          "name": "",
          "type": "uint256"
        },
        {
          "internalType": "bytes32[]",
          "name": "",
          "type": "bytes32[]"
        }
      ],
      "stateMutability": "view",
      "type": "function",
      "constant": true
    },
    {
      "inputs": [
        {
          "internalType": "uint256",
          "name": "taskID",
          "type": "uint256"
        },
        {
          "internalType": "bytes32",
          "name": "inputName",
          "type": "bytes32"
        }
      ],
      "name": "getTaskInput",
      "outputs": [
        {
          "internalType": "string",
          "name": "",
          "type": "string"
        }
      ],
      "stateMutability": "view",
      "type": "function",
      "constant": true
    },
    {
      "inputs": [],
      "name": "getTasksCount",
      "outputs": [
        {
          "internalType": "uint256",
          "name": "",
          "type": "uint256"
        }
      ],
      "stateMutability": "view",
      "type": "function",
      "constant": true
    },
    {
      "inputs": [
        {
          "internalType": "bytes32",
          "name": "",
          "type": "bytes32"
        }
      ],
      "name": "info",
      "outputs": [
        {
          "internalType": "bytes32",
          "name": "",
          "type": "bytes32"
        }
      ],
      "stateMutability": "view",
      "type": "function",
      "constant": true
    },
    {
      "inputs": [
        {
          "internalType": "uint256",
          "name": "taskID",
          "type": "uint256"
        }
      ],
      "name": "isTaskFinished",
      "outputs": [
        {
          "internalType": "bool",
          "name": "",
          "type": "bool"
        }
      ],
      "stateMutability": "view",
      "type": "function",
      "constant": true
    },
    {
      "inputs": [
        {
          "internalType": "uint256",
          "name": "taskID",
          "type": "uint256"
        }
      ],
      "name": "killTask",
      "outputs": [],
      "stateMutability": "nonpayable",
      "type": "function"
    },
    {
      "inputs": [],
      "name": "machineID",
      "outputs": [
        {
          "internalType": "address",
          "name": "",
          "type": "address"
        }
      ],
      "stateMutability": "view",
      "type": "function",
      "constant": true
    },
    {
      "inputs": [],
      "name": "machineOwner",
      "outputs": [
        {
          "internalType": "address",
          "name": "",
          "type": "address"
        }
      ],
      "stateMutability": "view",
      "type": "function",
      "constant": true
    },
    {
      "inputs": [],
      "name": "owner",
      "outputs": [
        {
          "internalType": "address",
          "name": "",
          "type": "address"
        }
      ],
      "stateMutability": "view",
      "type": "function",
      "constant": true
    },
    {
      "inputs": [],
      "name": "renounceOwnership",
      "outputs": [],
      "stateMutability": "nonpayable",
      "type": "function"
    },
    {
      "inputs": [
        {
          "internalType": "bytes32",
          "name": "infoName",
          "type": "bytes32"
        },
        {
          "internalType": "bytes32",
          "name": "infoValue",
          "type": "bytes32"
        }
      ],
      "name": "saveMachineInfo",
      "outputs": [],
      "stateMutability": "nonpayable",
      "type": "function"
    },
    {
      "inputs": [
        {
          "internalType": "string",
          "name": "description",
          "type": "string"
        }
      ],
      "name": "saveMaintenanceOperation",
      "outputs": [
        {
          "internalType": "uint256",
          "name": "",
          "type": "uint256"
        }
      ],
      "stateMutability": "nonpayable",
      "type": "function"
    },
    {
      "inputs": [
        {
          "internalType": "uint256",
          "name": "taskID",
          "type": "uint256"
        },
        {
          "internalType": "string",
          "name": "operationName",
          "type": "string"
        },
        {
          "internalType": "string",
          "name": "operationResult",
          "type": "string"
        }
      ],
      "name": "saveProductOperation",
      "outputs": [],
      "stateMutability": "nonpayable",
      "type": "function"
    },
    {
      "inputs": [
        {
          "internalType": "uint256",
          "name": "taskID",
          "type": "uint256"
        },
        {
          "internalType": "bytes32",
          "name": "inputName",
          "type": "bytes32"
        },
        {
          "internalType": "string",
          "name": "inputValue",
          "type": "string"
        }
      ],
      "name": "saveTaskParam",
      "outputs": [],
      "stateMutability": "nonpayable",
      "type": "function"
    },
    {
      "inputs": [
        {
          "internalType": "uint256",
          "name": "taskID",
          "type": "uint256"
        }
      ],
      "name": "startTask",
      "outputs": [],
      "stateMutability": "nonpayable",
      "type": "function"
    },
    {
      "inputs": [
        {
          "internalType": "address",
          "name": "newOwner",
          "type": "address"
        }
      ],
      "name": "transferOwnership",
      "outputs": [],
      "stateMutability": "nonpayable",
      "type": "function"
    },
    {
      "inputs": [
        {
          "internalType": "uint256",
          "name": "taskID",
          "type": "uint256"
        }
      ],
      "name": "getTaskName",
      "outputs": [
        {
          "internalType": "string",
          "name": "",
          "type": "string"
        }
      ],
      "stateMutability": "view",
      "type": "function",
      "constant": true
    },
    {
      "inputs": [
        {
          "internalType": "uint256",
          "name": "processID",
          "type": "uint256"
        }
      ],
      "name": "assignFetchContainerTask",
      "outputs": [],
      "stateMutability": "nonpayable",
      "type": "function"
    },
    {
      "inputs": [
        {
          "internalType": "uint256",
          "name": "processID",
          "type": "uint256"
        },
        {
          "internalType": "address",
          "name": "productDID",
          "type": "address"
        },
        {
          "internalType": "string",
          "name": "id",
          "type": "string"
        },
        {
          "internalType": "string",
          "name": "color",
          "type": "string"
        }
      ],
      "name": "assignStoreProductTask",
      "outputs": [],
      "stateMutability": "nonpayable",
      "type": "function"
    },
    {
      "inputs": [
        {
          "internalType": "uint256",
          "name": "processID",
          "type": "uint256"
        },
        {
          "internalType": "address",
          "name": "productDID",
          "type": "address"
        }
      ],
      "name": "assignFetchProductTask",
      "outputs": [],
      "stateMutability": "nonpayable",
      "type": "function"
    },
    {
      "inputs": [
        {
          "internalType": "uint256",
          "name": "processID",
          "type": "uint256"
        }
      ],
      "name": "assignStoreContainerTask",
      "outputs": [],
      "stateMutability": "nonpayable",
      "type": "function"
    },
    {
      "inputs": [
        {
          "internalType": "uint256",
          "name": "taskID",
          "type": "uint256"
        },
        {
          "internalType": "enum Machine.ReadingType",
          "name": "readingType",
          "type": "uint8"
        },
        {
          "internalType": "int256",
          "name": "readingValue",
          "type": "int256"
        }
      ],
      "name": "saveReadingHBW",
      "outputs": [],
      "stateMutability": "nonpayable",
      "type": "function"
    }
  ],
  "bytecode": "0x60806040523480156200001157600080fd5b50604051620054bb380380620054bb833981810160405260608110156200003757600080fd5b81019080805190602001909291908051906020019092919080519060200190929190505050828282600062000071620001de60201b60201c565b9050806000806101000a81548173ffffffffffffffffffffffffffffffffffffffff021916908373ffffffffffffffffffffffffffffffffffffffff1602179055508073ffffffffffffffffffffffffffffffffffffffff16600073ffffffffffffffffffffffffffffffffffffffff167f8be0079c531659141344cd1fd0a4f28419497f9722a3daafe3b4186f6b6457e060405160405180910390a35082600260006101000a81548173ffffffffffffffffffffffffffffffffffffffff021916908373ffffffffffffffffffffffffffffffffffffffff16021790555081600360006101000a81548173ffffffffffffffffffffffffffffffffffffffff021916908373ffffffffffffffffffffffffffffffffffffffff16021790555080600160006101000a81548173ffffffffffffffffffffffffffffffffffffffff021916908373ffffffffffffffffffffffffffffffffffffffff160217905550505050505050620001e6565b600033905090565b6152c580620001f66000396000f3fe608060405234801561001057600080fd5b50600436106102735760003560e01c80638da5cb5b11610151578063c0b4621a116100c3578063e5abfd0c11610087578063e5abfd0c14611442578063ed210f99146114a1578063ee19dc85146114e3578063f2fde38b14611527578063f75609521461156b578063ffd7bb5e146115b157610273565b8063c0b4621a14611176578063c0ddec4214611227578063cef27d8214611245578063d4c3a632146112a4578063dc787f1a146112ee57610273565b8063abc06f8511610115578063abc06f8514610fcb578063abeff4dd14611015578063afbf505414611059578063b3620b36146110b8578063b64a097e146110fc578063bd98acd01461113e57610273565b80638da5cb5b14610ca157806393d6c1c114610ceb578063976b311314610e475780639d90a03214610f685780639f89927314610fad57610273565b8063546457b3116101ea578063715018a6116101ae578063715018a614610b7157806378d74cc014610b7b5780637c09e48514610ba95780637eed8e9f14610bd75780637f4f773c14610c45578063842178b214610c7357610273565b8063546457b3146108b857806356755b13146108d657806358285dda1461097d5780635f94432614610af95780636ac740d014610b2757610273565b806315d2d40c1161023c57806315d2d40c1461051f5780631d65e77e146105b85780632a861d34146106e85780634bac69f1146107815780634eed50f51461085057806350b594471461089a57610273565b806287a78814610278578063089e1b39146102dd57806308dd5cfe146103215780630adbfeb5146103f057806311f47ab91461043e575b600080fd5b6102a46004803603602081101561028e57600080fd5b81019080803590602001909291905050506115e2565b604051808581526020018460048111156102ba57fe5b60ff16815260200183815260200182815260200194505050505060405180910390f35b61031f600480360360208110156102f357600080fd5b81019080803573ffffffffffffffffffffffffffffffffffffffff1690602001909291905050506116e6565b005b6103da6004803603602081101561033757600080fd5b810190808035906020019064010000000081111561035457600080fd5b82018360208201111561036657600080fd5b8035906020019184600183028401116401000000008311171561038857600080fd5b91908080601f016020809104026020016040519081016040528093929190818152602001838380828437600081840152601f19601f820116905080830192505050505050509192919290505050611831565b6040518082815260200191505060405180910390f35b61043c6004803603604081101561040657600080fd5b8101908080359060200190929190803573ffffffffffffffffffffffffffffffffffffffff169060200190929190505050611a76565b005b61046a6004803603602081101561045457600080fd5b8101908080359060200190929190505050611a8f565b604051808481526020018373ffffffffffffffffffffffffffffffffffffffff1673ffffffffffffffffffffffffffffffffffffffff16815260200180602001828103825283818151815260200191508051906020019080838360005b838110156104e25780820151818401526020810190506104c7565b50505050905090810190601f16801561050f5780820380516001836020036101000a031916815260200191505b5094505050505060405180910390f35b6105616004803603602081101561053557600080fd5b81019080803573ffffffffffffffffffffffffffffffffffffffff169060200190929190505050611c0a565b6040518080602001828103825283818151815260200191508051906020019060200280838360005b838110156105a4578082015181840152602081019050610589565b505050509050019250505060405180910390f35b6105e4600480360360208110156105ce57600080fd5b8101908080359060200190929190505050611d87565b604051808673ffffffffffffffffffffffffffffffffffffffff1673ffffffffffffffffffffffffffffffffffffffff1681526020018060200185815260200184815260200180602001838103835287818151815260200191508051906020019080838360005b8381101561066657808201518184015260208101905061064b565b50505050905090810190601f1680156106935780820380516001836020036101000a031916815260200191505b50838103825284818151815260200191508051906020019060200280838360005b838110156106cf5780820151818401526020810190506106b4565b5050505090500197505050505050505060405180910390f35b61072a600480360360208110156106fe57600080fd5b81019080803573ffffffffffffffffffffffffffffffffffffffff169060200190929190505050611faa565b6040518080602001828103825283818151815260200191508051906020019060200280838360005b8381101561076d578082015181840152602081019050610752565b505050509050019250505060405180910390f35b61084e6004803603606081101561079757600080fd5b810190808035906020019092919080359060200190929190803590602001906401000000008111156107c857600080fd5b8201836020820111156107da57600080fd5b803590602001918460018302840111640100000000831117156107fc57600080fd5b91908080601f016020809104026020016040519081016040528093929190818152602001838380828437600081840152601f19601f820116905080830192505050505050509192919290505050612041565b005b610858612208565b604051808273ffffffffffffffffffffffffffffffffffffffff1673ffffffffffffffffffffffffffffffffffffffff16815260200191505060405180910390f35b6108a2612232565b6040518082815260200191505060405180910390f35b6108c0612243565b6040518082815260200191505060405180910390f35b610902600480360360208110156108ec57600080fd5b8101908080359060200190929190505050612254565b6040518080602001828103825283818151815260200191508051906020019080838360005b83811015610942578082015181840152602081019050610927565b50505050905090810190601f16801561096f5780820380516001836020036101000a031916815260200191505b509250505060405180910390f35b610af76004803603608081101561099357600080fd5b8101908080359060200190929190803573ffffffffffffffffffffffffffffffffffffffff169060200190929190803590602001906401000000008111156109da57600080fd5b8201836020820111156109ec57600080fd5b80359060200191846001830284011164010000000083111715610a0e57600080fd5b91908080601f016020809104026020016040519081016040528093929190818152602001838380828437600081840152601f19601f82011690508083019250505050505050919291929080359060200190640100000000811115610a7157600080fd5b820183602082011115610a8357600080fd5b80359060200191846001830284011164010000000083111715610aa557600080fd5b91908080601f016020809104026020016040519081016040528093929190818152602001838380828437600081840152601f19601f820116905080830192505050505050509192919290505050612394565b005b610b2560048036036020811015610b0f57600080fd5b8101908080359060200190929190505050612409565b005b610b2f61277f565b604051808273ffffffffffffffffffffffffffffffffffffffff1673ffffffffffffffffffffffffffffffffffffffff16815260200191505060405180910390f35b610b796127a9565b005b610ba760048036036020811015610b9157600080fd5b8101908080359060200190929190505050612931565b005b610bd560048036036020811015610bbf57600080fd5b810190808035906020019092919050505061294a565b005b610c0360048036036020811015610bed57600080fd5b8101908080359060200190929190505050612963565b604051808273ffffffffffffffffffffffffffffffffffffffff1673ffffffffffffffffffffffffffffffffffffffff16815260200191505060405180910390f35b610c7160048036036020811015610c5b57600080fd5b8101908080359060200190929190505050612a2b565b005b610c9f60048036036020811015610c8957600080fd5b8101908080359060200190929190505050612c0b565b005b610ca9612f81565b604051808273ffffffffffffffffffffffffffffffffffffffff1673ffffffffffffffffffffffffffffffffffffffff16815260200191505060405180910390f35b610e4560048036036060811015610d0157600080fd5b810190808035906020019092919080359060200190640100000000811115610d2857600080fd5b820183602082011115610d3a57600080fd5b80359060200191846001830284011164010000000083111715610d5c57600080fd5b91908080601f016020809104026020016040519081016040528093929190818152602001838380828437600081840152601f19601f82011690508083019250505050505050919291929080359060200190640100000000811115610dbf57600080fd5b820183602082011115610dd157600080fd5b80359060200191846001830284011164010000000083111715610df357600080fd5b91908080601f016020809104026020016040519081016040528093929190818152602001838380828437600081840152601f19601f820116905080830192505050505050509192919290505050612faa565b005b610e7360048036036020811015610e5d57600080fd5b81019080803590602001909291905050506132df565b604051808581526020018481526020018060200180602001838103835285818151815260200191508051906020019080838360005b83811015610ec3578082015181840152602081019050610ea8565b50505050905090810190601f168015610ef05780820380516001836020036101000a031916815260200191505b50838103825284818151815260200191508051906020019080838360005b83811015610f29578082015181840152602081019050610f0e565b50505050905090810190601f168015610f565780820380516001836020036101000a031916815260200191505b50965050505050505060405180910390f35b610fab60048036036060811015610f7e57600080fd5b8101908080359060200190929190803560ff1690602001909291908035906020019092919050505061350c565b005b610fb561351d565b6040518082815260200191505060405180910390f35b610fd361352e565b604051808273ffffffffffffffffffffffffffffffffffffffff1673ffffffffffffffffffffffffffffffffffffffff16815260200191505060405180910390f35b6110576004803603602081101561102b57600080fd5b81019080803573ffffffffffffffffffffffffffffffffffffffff169060200190929190505050613554565b005b61106161369e565b6040518080602001828103825283818151815260200191508051906020019060200280838360005b838110156110a4578082015181840152602081019050611089565b505050509050019250505060405180910390f35b6110fa600480360360208110156110ce57600080fd5b81019080803573ffffffffffffffffffffffffffffffffffffffff16906020019092919050505061372f565b005b6111286004803603602081101561111257600080fd5b8101908080359060200190929190505050613879565b6040518082815260200191505060405180910390f35b6111746004803603604081101561115457600080fd5b810190808035906020019092919080359060200190929190505050613891565b005b6111ac6004803603604081101561118c57600080fd5b81019080803590602001909291908035906020019092919050505061396e565b6040518080602001828103825283818151815260200191508051906020019080838360005b838110156111ec5780820151818401526020810190506111d1565b50505050905090810190601f1680156112195780820380516001836020036101000a031916815260200191505b509250505060405180910390f35b61122f613ac0565b6040518082815260200191505060405180910390f35b61124d613ad1565b6040518080602001828103825283818151815260200191508051906020019060200280838360005b83811015611290578082015181840152602081019050611275565b505050509050019250505060405180910390f35b6112ac613b2c565b604051808273ffffffffffffffffffffffffffffffffffffffff1673ffffffffffffffffffffffffffffffffffffffff16815260200191505060405180910390f35b61131a6004803603602081101561130457600080fd5b8101908080359060200190929190505050613b52565b604051808673ffffffffffffffffffffffffffffffffffffffff1673ffffffffffffffffffffffffffffffffffffffff1681526020018581526020018481526020018060200180602001838103835285818151815260200191508051906020019080838360005b8381101561139c578082015181840152602081019050611381565b50505050905090810190601f1680156113c95780820380516001836020036101000a031916815260200191505b50838103825284818151815260200191508051906020019080838360005b838110156114025780820151818401526020810190506113e7565b50505050905090810190601f16801561142f5780820380516001836020036101000a031916815260200191505b5097505050505050505060405180910390f35b61144a613dae565b6040518080602001828103825283818151815260200191508051906020019060200280838360005b8381101561148d578082015181840152602081019050611472565b505050509050019250505060405180910390f35b6114cd600480360360208110156114b757600080fd5b8101908080359060200190929190505050613e3f565b6040518082815260200191505060405180910390f35b611525600480360360208110156114f957600080fd5b81019080803573ffffffffffffffffffffffffffffffffffffffff169060200190929190505050613e5c565b005b6115696004803603602081101561153d57600080fd5b81019080803573ffffffffffffffffffffffffffffffffffffffff169060200190929190505050613fa7565b005b6115976004803603602081101561158157600080fd5b81019080803590602001909291905050506141b4565b604051808215151515815260200191505060405180910390f35b6115e0600480360360208110156115c757600080fd5b81019080803560ff169060200190929190505050614292565b005b6000806000806115fc85601161439690919063ffffffff16565b61166e576040517f08c379a00000000000000000000000000000000000000000000000000000000081526004018080602001828103825260168152602001807f52656164696e6720646f65736e27742065786973742e0000000000000000000081525060200191505060405180910390fd5b60136000868152602001908152602001600020600001546013600087815260200190815260200160002060010160009054906101000a900460ff166013600088815260200190815260200160002060020154601360008981526020019081526020016000206003015493509350935093509193509193565b600260009054906101000a900473ffffffffffffffffffffffffffffffffffffffff1673ffffffffffffffffffffffffffffffffffffffff166117276143ea565b73ffffffffffffffffffffffffffffffffffffffff1614611793576040517f08c379a000000000000000000000000000000000000000000000000000000000815260040180806020018281038252602a815260200180615193602a913960400191505060405180910390fd5b6117a781601c6143f290919063ffffffff16565b1561181a576040517f08c379a000000000000000000000000000000000000000000000000000000000815260040180806020018281038252601b8152602001807f4d616e75666163747572657220616c72656164792065786973742e000000000081525060200191505060405180910390fd5b61182e81601c6144be90919063ffffffff16565b50565b600061184e61183e6143ea565b601e6143f290919063ffffffff16565b806118ad5750600260009054906101000a900473ffffffffffffffffffffffffffffffffffffffff1673ffffffffffffffffffffffffffffffffffffffff166118956143ea565b73ffffffffffffffffffffffffffffffffffffffff16145b611902576040517f08c379a00000000000000000000000000000000000000000000000000000000081526004018080602001828103825260338152602001806151366033913960400191505060405180910390fd5b61190c60186145d7565b600061191860186145ed565b905061192e8160196145fb90919063ffffffff16565b6000601b600083815260200190815260200160002090504281600001819055506119566143ea565b8160010160006101000a81548173ffffffffffffffffffffffffffffffffffffffff021916908373ffffffffffffffffffffffffffffffffffffffff160217905550838160020190805190602001906119b0929190615047565b506119b96143ea565b73ffffffffffffffffffffffffffffffffffffffff16827fdf898f82123c1d886ac510dab0606c18eb18e75ec238c4930cb278508fc2a445866040518080602001828103825283818151815260200191508051906020019080838360005b83811015611a32578082015181840152602081019050611a17565b50505050905090810190601f168015611a5f5780820380516001836020036101000a031916815260200191505b509250505060405180910390a38192505050919050565b611a8a8282611a8560036146ae565b614841565b505050565b6000806060611aa884601961439690919063ffffffff16565b611afd576040517f08c379a00000000000000000000000000000000000000000000000000000000081526004018080602001828103825260238152602001806151136023913960400191505060405180910390fd5b601b600085815260200190815260200160002060000154601b600086815260200190815260200160002060010160009054906101000a900473ffffffffffffffffffffffffffffffffffffffff16601b6000878152602001908152602001600020600201808054600181600116156101000203166002900480601f016020809104026020016040519081016040528092919081815260200182805460018160011615610100020316600290048015611bf65780601f10611bcb57610100808354040283529160200191611bf6565b820191906000526020600020905b815481529060010190602001808311611bd957829003601f168201915b505050505090509250925092509193909250565b6060600160009054906101000a900473ffffffffffffffffffffffffffffffffffffffff1673ffffffffffffffffffffffffffffffffffffffff166315d2d40c836040518263ffffffff1660e01b8152600401808273ffffffffffffffffffffffffffffffffffffffff1673ffffffffffffffffffffffffffffffffffffffff16815260200191505060006040518083038186803b158015611cab57600080fd5b505afa158015611cbf573d6000803e3d6000fd5b505050506040513d6000823e3d601f19601f820116820180604052506020811015611ce957600080fd5b8101908080516040519392919084640100000000821115611d0957600080fd5b83820191506020820185811115611d1f57600080fd5b8251866020820283011164010000000082111715611d3c57600080fd5b8083526020830192505050908051906020019060200280838360005b83811015611d73578082015181840152602081019050611d58565b505050509050016040525050509050919050565b60006060600080606085611da581600861439690919063ffffffff16565b611e17576040517f08c379a00000000000000000000000000000000000000000000000000000000081526004018080602001828103825260138152602001807f5461736b20646f65736e27742065786973742e0000000000000000000000000081525060200191505060405180910390fd5b600b600088815260200190815260200160002060000160009054906101000a900473ffffffffffffffffffffffffffffffffffffffff16600b6000898152602001908152602001600020600101600b60008a815260200190815260200160002060020154600b60008b815260200190815260200160002060030154600b60008c8152602001908152602001600020600501838054600181600116156101000203166002900480601f016020809104026020016040519081016040528092919081815260200182805460018160011615610100020316600290048015611f3d5780601f10611f1257610100808354040283529160200191611f3d565b820191906000526020600020905b815481529060010190602001808311611f2057829003601f168201915b5050505050935080805480602002602001604051908101604052809291908181526020018280548015611f8f57602002820191906000526020600020905b815481526020019060010190808311611f7b575b50505050509050955095509550955095505091939590929450565b6060600a60008373ffffffffffffffffffffffffffffffffffffffff1673ffffffffffffffffffffffffffffffffffffffff16815260200190815260200160002080548060200260200160405190810160405280929190818152602001828054801561203557602002820191906000526020600020905b815481526020019060010190808311612021575b50505050509050919050565b8261205681600861439690919063ffffffff16565b6120c8576040517f08c379a00000000000000000000000000000000000000000000000000000000081526004018080602001828103825260138152602001807f5461736b20646f65736e27742065786973742e0000000000000000000000000081525060200191505060405180910390fd5b6120dc32601c6143f290919063ffffffff16565b806121345750600260009054906101000a900473ffffffffffffffffffffffffffffffffffffffff1673ffffffffffffffffffffffffffffffffffffffff163273ffffffffffffffffffffffffffffffffffffffff16145b612189576040517f08c379a00000000000000000000000000000000000000000000000000000000081526004018080602001828103825260348152602001806152086034913960400191505060405180910390fd5b81600b6000868152602001908152602001600020600401600085815260200190815260200160002090805190602001906121c4929190615047565b50600b600085815260200190815260200160002060050183908060018154018082558091505060019003906000526020600020016000909190919091505550505050565b6000600360009054906101000a900473ffffffffffffffffffffffffffffffffffffffff16905090565b600061223e6015614bb9565b905090565b600061224f6011614bb9565b905090565b60608161226b81600861439690919063ffffffff16565b6122dd576040517f08c379a00000000000000000000000000000000000000000000000000000000081526004018080602001828103825260138152602001807f5461736b20646f65736e27742065786973742e0000000000000000000000000081525060200191505060405180910390fd5b600b60008481526020019081526020016000206001018054600181600116156101000203166002900480601f0160208091040260200160405190810160405280929190818152602001828054600181600116156101000203166002900480156123875780601f1061235c57610100808354040283529160200191612387565b820191906000526020600020905b81548152906001019060200180831161236a57829003601f168201915b5050505050915050919050565b60006123aa85856123a560026146ae565b614841565b90506123d7817f696400000000000000000000000000000000000000000000000000000000000085612041565b612402817f636f6c6f7200000000000000000000000000000000000000000000000000000084612041565b5050505050565b8061241e81600861439690919063ffffffff16565b612490576040517f08c379a00000000000000000000000000000000000000000000000000000000081526004018080602001828103825260138152602001807f5461736b20646f65736e27742065786973742e0000000000000000000000000081525060200191505060405180910390fd5b600360009054906101000a900473ffffffffffffffffffffffffffffffffffffffff1673ffffffffffffffffffffffffffffffffffffffff166124d16143ea565b73ffffffffffffffffffffffffffffffffffffffff161461253d576040517f08c379a00000000000000000000000000000000000000000000000000000000081526004018080602001828103825260248152602001806151e46024913960400191505060405180910390fd5b6000600b600084815260200190815260200160002060020154146125c9576040517f08c379a00000000000000000000000000000000000000000000000000000000081526004018080602001828103825260158152602001807f5461736b20616c726561647920737461727465642e000000000000000000000081525060200191505060405180910390fd5b42600b600084815260200190815260200160002060020181905550817f27948a5425a88d5227a8da6bb904d02bdffce847e7464b28965943c1df6eeb3461260f84612254565b600b600086815260200190815260200160002060000160009054906101000a900473ffffffffffffffffffffffffffffffffffffffff16600b600087815260200190815260200160002060060154600b600088815260200190815260200160002060070160009054906101000a900473ffffffffffffffffffffffffffffffffffffffff1660405180806020018573ffffffffffffffffffffffffffffffffffffffff1673ffffffffffffffffffffffffffffffffffffffff1681526020018481526020018373ffffffffffffffffffffffffffffffffffffffff1673ffffffffffffffffffffffffffffffffffffffff168152602001828103825286818151815260200191508051906020019080838360005b8381101561273e578082015181840152602081019050612723565b50505050905090810190601f16801561276b5780820380516001836020036101000a031916815260200191505b509550505050505060405180910390a25050565b6000600260009054906101000a900473ffffffffffffffffffffffffffffffffffffffff16905090565b6127b16143ea565b73ffffffffffffffffffffffffffffffffffffffff166000809054906101000a900473ffffffffffffffffffffffffffffffffffffffff1673ffffffffffffffffffffffffffffffffffffffff1614612872576040517f08c379a00000000000000000000000000000000000000000000000000000000081526004018080602001828103825260208152602001807f4f776e61626c653a2063616c6c6572206973206e6f7420746865206f776e657281525060200191505060405180910390fd5b600073ffffffffffffffffffffffffffffffffffffffff166000809054906101000a900473ffffffffffffffffffffffffffffffffffffffff1673ffffffffffffffffffffffffffffffffffffffff167f8be0079c531659141344cd1fd0a4f28419497f9722a3daafe3b4186f6b6457e060405160405180910390a360008060006101000a81548173ffffffffffffffffffffffffffffffffffffffff021916908373ffffffffffffffffffffffffffffffffffffffff160217905550565b61294681600061294160006146ae565b614841565b5050565b61295f81600061295a60016146ae565b614841565b5050565b60008161297a81600861439690919063ffffffff16565b6129ec576040517f08c379a00000000000000000000000000000000000000000000000000000000081526004018080602001828103825260138152602001807f5461736b20646f65736e27742065786973742e0000000000000000000000000081525060200191505060405180910390fd5b600b600084815260200190815260200160002060000160009054906101000a900473ffffffffffffffffffffffffffffffffffffffff16915050919050565b80612a4081600861439690919063ffffffff16565b612ab2576040517f08c379a00000000000000000000000000000000000000000000000000000000081526004018080602001828103825260138152602001807f5461736b20646f65736e27742065786973742e0000000000000000000000000081525060200191505060405180910390fd5b600260009054906101000a900473ffffffffffffffffffffffffffffffffffffffff1673ffffffffffffffffffffffffffffffffffffffff16612af36143ea565b73ffffffffffffffffffffffffffffffffffffffff1614612b5f576040517f08c379a000000000000000000000000000000000000000000000000000000000815260040180806020018281038252602a815260200180615193602a913960400191505060405180910390fd5b6000600b60008481526020019081526020016000206003015414612beb576040517f08c379a00000000000000000000000000000000000000000000000000000000081526004018080602001828103825260168152602001807f5461736b20616c72656164792066696e69736865642e0000000000000000000081525060200191505060405180910390fd5b6001600b6000848152602001908152602001600020600301819055505050565b80612c2081600861439690919063ffffffff16565b612c92576040517f08c379a00000000000000000000000000000000000000000000000000000000081526004018080602001828103825260138152602001807f5461736b20646f65736e27742065786973742e0000000000000000000000000081525060200191505060405180910390fd5b600360009054906101000a900473ffffffffffffffffffffffffffffffffffffffff1673ffffffffffffffffffffffffffffffffffffffff16612cd36143ea565b73ffffffffffffffffffffffffffffffffffffffff1614612d3f576040517f08c379a00000000000000000000000000000000000000000000000000000000081526004018080602001828103825260248152602001806151e46024913960400191505060405180910390fd5b6000600b60008481526020019081526020016000206003015414612dcb576040517f08c379a00000000000000000000000000000000000000000000000000000000081526004018080602001828103825260168152602001807f5461736b20616c72656164792066696e69736865642e0000000000000000000081525060200191505060405180910390fd5b42600b600084815260200190815260200160002060030181905550817f61cf6a5d2a06194dbc71984d6f115141bd2f9399cbe66137af5462d871884b1b612e1184612254565b600b600086815260200190815260200160002060000160009054906101000a900473ffffffffffffffffffffffffffffffffffffffff16600b600087815260200190815260200160002060060154600b600088815260200190815260200160002060070160009054906101000a900473ffffffffffffffffffffffffffffffffffffffff1660405180806020018573ffffffffffffffffffffffffffffffffffffffff1673ffffffffffffffffffffffffffffffffffffffff1681526020018481526020018373ffffffffffffffffffffffffffffffffffffffff1673ffffffffffffffffffffffffffffffffffffffff168152602001828103825286818151815260200191508051906020019080838360005b83811015612f40578082015181840152602081019050612f25565b50505050905090810190601f168015612f6d5780820380516001836020036101000a031916815260200191505b509550505050505060405180910390a25050565b60008060009054906101000a900473ffffffffffffffffffffffffffffffffffffffff16905090565b82612fbf81600861439690919063ffffffff16565b613031576040517f08c379a00000000000000000000000000000000000000000000000000000000081526004018080602001828103825260138152602001807f5461736b20646f65736e27742065786973742e0000000000000000000000000081525060200191505060405180910390fd5b600360009054906101000a900473ffffffffffffffffffffffffffffffffffffffff1673ffffffffffffffffffffffffffffffffffffffff166130726143ea565b73ffffffffffffffffffffffffffffffffffffffff16146130de576040517f08c379a00000000000000000000000000000000000000000000000000000000081526004018080602001828103825260248152602001806151e46024913960400191505060405180910390fd5b6000600b600086815260200190815260200160002060000160009054906101000a900473ffffffffffffffffffffffffffffffffffffffff169050600160009054906101000a900473ffffffffffffffffffffffffffffffffffffffff1673ffffffffffffffffffffffffffffffffffffffff16630601e9ef828787876040518563ffffffff1660e01b8152600401808573ffffffffffffffffffffffffffffffffffffffff1673ffffffffffffffffffffffffffffffffffffffff1681526020018481526020018060200180602001838103835285818151815260200191508051906020019080838360005b838110156131e65780820151818401526020810190506131cb565b50505050905090810190601f1680156132135780820380516001836020036101000a031916815260200191505b50838103825284818151815260200191508051906020019080838360005b8381101561324c578082015181840152602081019050613231565b50505050905090810190601f1680156132795780820380516001836020036101000a031916815260200191505b509650505050505050602060405180830381600087803b15801561329c57600080fd5b505af11580156132b0573d6000803e3d6000fd5b505050506040513d60208110156132c657600080fd5b8101908080519060200190929190505050505050505050565b6000806060806132f985601561439690919063ffffffff16565b61336b576040517f08c379a00000000000000000000000000000000000000000000000000000000081526004018080602001828103825260148152602001807f497373756520646f65736e27742065786973742e00000000000000000000000081525060200191505060405180910390fd5b601760008681526020019081526020016000206000015460176000878152602001908152602001600020600101546017600088815260200190815260200160002060020160176000898152602001908152602001600020600301818054600181600116156101000203166002900480601f01602080910402602001604051908101604052809291908181526020018280546001816001161561010002031660029004801561345a5780601f1061342f5761010080835404028352916020019161345a565b820191906000526020600020905b81548152906001019060200180831161343d57829003601f168201915b50505050509150808054600181600116156101000203166002900480601f0160208091040260200160405190810160405280929190818152602001828054600181600116156101000203166002900480156134f65780601f106134cb576101008083540402835291602001916134f6565b820191906000526020600020905b8154815290600101906020018083116134d957829003601f168201915b5050505050905093509350935093509193509193565b613517838383614bca565b50505050565b60006135296008614bb9565b905090565b600260009054906101000a900473ffffffffffffffffffffffffffffffffffffffff1681565b600260009054906101000a900473ffffffffffffffffffffffffffffffffffffffff1673ffffffffffffffffffffffffffffffffffffffff166135956143ea565b73ffffffffffffffffffffffffffffffffffffffff1614613601576040517f08c379a000000000000000000000000000000000000000000000000000000000815260040180806020018281038252602a815260200180615193602a913960400191505060405180910390fd5b61361581601c6143f290919063ffffffff16565b613687576040517f08c379a000000000000000000000000000000000000000000000000000000000815260040180806020018281038252601b8152602001807f4d616e75666163747572657220646f65736e27742065786973742e000000000081525060200191505060405180910390fd5b61369b81601c614d0890919063ffffffff16565b50565b6060601c60010180548060200260200160405190810160405280929190818152602001828054801561372557602002820191906000526020600020905b8160009054906101000a900473ffffffffffffffffffffffffffffffffffffffff1673ffffffffffffffffffffffffffffffffffffffff16815260200190600101908083116136db575b5050505050905090565b600260009054906101000a900473ffffffffffffffffffffffffffffffffffffffff1673ffffffffffffffffffffffffffffffffffffffff166137706143ea565b73ffffffffffffffffffffffffffffffffffffffff16146137dc576040517f08c379a000000000000000000000000000000000000000000000000000000000815260040180806020018281038252602a815260200180615193602a913960400191505060405180910390fd5b6137f081601e6143f290919063ffffffff16565b613862576040517f08c379a00000000000000000000000000000000000000000000000000000000081526004018080602001828103825260198152602001807f4d61696e7461696e657220646f65736e27742065786973742e0000000000000081525060200191505060405180910390fd5b61387681601e614d0890919063ffffffff16565b50565b60046020528060005260406000206000915090505481565b600260009054906101000a900473ffffffffffffffffffffffffffffffffffffffff1673ffffffffffffffffffffffffffffffffffffffff166138d26143ea565b73ffffffffffffffffffffffffffffffffffffffff161461393e576040517f08c379a000000000000000000000000000000000000000000000000000000000815260040180806020018281038252602a815260200180615193602a913960400191505060405180910390fd5b613952826005614f2f90919063ffffffff16565b8060046000848152602001908152602001600020819055505050565b60608261398581600861439690919063ffffffff16565b6139f7576040517f08c379a00000000000000000000000000000000000000000000000000000000081526004018080602001828103825260138152602001807f5461736b20646f65736e27742065786973742e0000000000000000000000000081525060200191505060405180910390fd5b600b600085815260200190815260200160002060040160008481526020019081526020016000208054600181600116156101000203166002900480601f016020809104026020016040519081016040528092919081815260200182805460018160011615610100020316600290048015613ab25780601f10613a8757610100808354040283529160200191613ab2565b820191906000526020600020905b815481529060010190602001808311613a9557829003601f168201915b505050505091505092915050565b6000613acc6019614bb9565b905090565b60606005600101805480602002602001604051908101604052809291908181526020018280548015613b2257602002820191906000526020600020905b815481526020019060010190808311613b0e575b5050505050905090565b600360009054906101000a900473ffffffffffffffffffffffffffffffffffffffff1681565b6000806000606080600160009054906101000a900473ffffffffffffffffffffffffffffffffffffffff1673ffffffffffffffffffffffffffffffffffffffff1663dc787f1a876040518263ffffffff1660e01b81526004018082815260200191505060006040518083038186803b158015613bcd57600080fd5b505afa158015613be1573d6000803e3d6000fd5b505050506040513d6000823e3d601f19601f8201168201806040525060a0811015613c0b57600080fd5b8101908080519060200190929190805190602001909291908051906020019092919080516040519392919084640100000000821115613c4957600080fd5b83820191506020820185811115613c5f57600080fd5b8251866001820283011164010000000082111715613c7c57600080fd5b8083526020830192505050908051906020019080838360005b83811015613cb0578082015181840152602081019050613c95565b50505050905090810190601f168015613cdd5780820380516001836020036101000a031916815260200191505b5060405260200180516040519392919084640100000000821115613d0057600080fd5b83820191506020820185811115613d1657600080fd5b8251866001820283011164010000000082111715613d3357600080fd5b8083526020830192505050908051906020019080838360005b83811015613d67578082015181840152602081019050613d4c565b50505050905090810190601f168015613d945780820380516001836020036101000a031916815260200191505b506040525050509450945094509450945091939590929450565b6060601e600101805480602002602001604051908101604052809291908181526020018280548015613e3557602002820191906000526020600020905b8160009054906101000a900473ffffffffffffffffffffffffffffffffffffffff1673ffffffffffffffffffffffffffffffffffffffff1681526020019060010190808311613deb575b5050505050905090565b600060046000838152602001908152602001600020549050919050565b600260009054906101000a900473ffffffffffffffffffffffffffffffffffffffff1673ffffffffffffffffffffffffffffffffffffffff16613e9d6143ea565b73ffffffffffffffffffffffffffffffffffffffff1614613f09576040517f08c379a000000000000000000000000000000000000000000000000000000000815260040180806020018281038252602a815260200180615193602a913960400191505060405180910390fd5b613f1d81601e6143f290919063ffffffff16565b15613f90576040517f08c379a00000000000000000000000000000000000000000000000000000000081526004018080602001828103825260198152602001807f4d61696e7461696e657220616c72656164792065786973742e0000000000000081525060200191505060405180910390fd5b613fa481601e6144be90919063ffffffff16565b50565b613faf6143ea565b73ffffffffffffffffffffffffffffffffffffffff166000809054906101000a900473ffffffffffffffffffffffffffffffffffffffff1673ffffffffffffffffffffffffffffffffffffffff1614614070576040517f08c379a00000000000000000000000000000000000000000000000000000000081526004018080602001828103825260208152602001807f4f776e61626c653a2063616c6c6572206973206e6f7420746865206f776e657281525060200191505060405180910390fd5b600073ffffffffffffffffffffffffffffffffffffffff168173ffffffffffffffffffffffffffffffffffffffff1614156140f6576040517f08c379a00000000000000000000000000000000000000000000000000000000081526004018080602001828103825260268152602001806150ed6026913960400191505060405180910390fd5b8073ffffffffffffffffffffffffffffffffffffffff166000809054906101000a900473ffffffffffffffffffffffffffffffffffffffff1673ffffffffffffffffffffffffffffffffffffffff167f8be0079c531659141344cd1fd0a4f28419497f9722a3daafe3b4186f6b6457e060405160405180910390a3806000806101000a81548173ffffffffffffffffffffffffffffffffffffffff021916908373ffffffffffffffffffffffffffffffffffffffff16021790555050565b6000816141cb81600861439690919063ffffffff16565b61423d576040517f08c379a00000000000000000000000000000000000000000000000000000000081526004018080602001828103825260138152602001807f5461736b20646f65736e27742065786973742e0000000000000000000000000081525060200191505060405180910390fd5b6000600b60008581526020019081526020016000206003015414158061427957506001600b600085815260200190815260200160002060030154145b15614287576001915061428c565b600091505b50919050565b61429a6143ea565b73ffffffffffffffffffffffffffffffffffffffff166000809054906101000a900473ffffffffffffffffffffffffffffffffffffffff1673ffffffffffffffffffffffffffffffffffffffff161461435b576040517f08c379a00000000000000000000000000000000000000000000000000000000081526004018080602001828103825260208152602001807f4f776e61626c653a2063616c6c6572206973206e6f7420746865206f776e657281525060200191505060405180910390fd5b80600481111561436757fe5b7fc456bf1769220afbee617f618ca674e78fd1cf51d5b5e89f10c81b8a517aae5f60405160405180910390a250565b600080836001018054905014156143b057600090506143e4565b818360010184600001600085815260200190815260200160002054815481106143d557fe5b90600052602060002001541490505b92915050565b600033905090565b6000808360010180549050141561440c57600090506144b8565b8173ffffffffffffffffffffffffffffffffffffffff16836001018460000160008573ffffffffffffffffffffffffffffffffffffffff1673ffffffffffffffffffffffffffffffffffffffff168152602001908152602001600020548154811061447357fe5b9060005260206000200160009054906101000a900473ffffffffffffffffffffffffffffffffffffffff1673ffffffffffffffffffffffffffffffffffffffff161490505b92915050565b6144c882826143f2565b1561451e576040517f08c379a000000000000000000000000000000000000000000000000000000000815260040180806020018281038252602a815260200180615266602a913960400191505060405180910390fd5b81600101819080600181540180825580915050600190039060005260206000200160009091909190916101000a81548173ffffffffffffffffffffffffffffffffffffffff021916908373ffffffffffffffffffffffffffffffffffffffff16021790555060018260010180549050038260000160008373ffffffffffffffffffffffffffffffffffffffff1673ffffffffffffffffffffffffffffffffffffffff168152602001908152602001600020819055505050565b6001816000016000828254019250508190555050565b600081600001549050919050565b6146058282614396565b1561465b576040517f08c379a00000000000000000000000000000000000000000000000000000000081526004018080602001828103825260278152602001806151bd6027913960400191505060405180910390fd5b816001018190806001815401808255809150506001900390600052602060002001600090919091909150556001826001018054905003826000016000838152602001908152602001600020819055505050565b606060048260038111156146be57fe5b60ff1611156146cc57600080fd5b8160038111156146d857fe5b600060038111156146e557fe5b1415614728576040518060400160405280600e81526020017f4665746368436f6e7461696e6572000000000000000000000000000000000000815250905061483c565b81600381111561473457fe5b6001600381111561474157fe5b1415614784576040518060400160405280600e81526020017f53746f7265436f6e7461696e6572000000000000000000000000000000000000815250905061483c565b81600381111561479057fe5b6002600381111561479d57fe5b14156147e0576040518060400160405280600c81526020017f53746f726550726f647563740000000000000000000000000000000000000000815250905061483c565b8160038111156147ec57fe5b6003808111156147f857fe5b141561483b576040518060400160405280600c81526020017f466574636850726f647563740000000000000000000000000000000000000000815250905061483c565b5b919050565b600061485732601c6143f290919063ffffffff16565b806148af5750600260009054906101000a900473ffffffffffffffffffffffffffffffffffffffff1673ffffffffffffffffffffffffffffffffffffffff163273ffffffffffffffffffffffffffffffffffffffff16145b614904576040517f08c379a00000000000000000000000000000000000000000000000000000000081526004018080602001828103825260348152602001806152086034913960400191505060405180910390fd5b61490e60076145d7565b600061491a60076145ed565b90506149308160086145fb90919063ffffffff16565b6000600b600083815260200190815260200160002090508381600101908051906020019061495f929190615047565b50848160000160006101000a81548173ffffffffffffffffffffffffffffffffffffffff021916908373ffffffffffffffffffffffffffffffffffffffff1602179055508581600601819055506149b46143ea565b8160070160006101000a81548173ffffffffffffffffffffffffffffffffffffffff021916908373ffffffffffffffffffffffffffffffffffffffff160217905550600073ffffffffffffffffffffffffffffffffffffffff168573ffffffffffffffffffffffffffffffffffffffff1614614a9157600a60008673ffffffffffffffffffffffffffffffffffffffff1673ffffffffffffffffffffffffffffffffffffffff1681526020019081526020016000208290806001815401808255809150506001900390600052602060002001600090919091909150555b817f5587ff6d86d684c7f358b08135dce901c0047029ca150f5dc8e125fefc659def614abc84612254565b8789614ac66143ea565b60405180806020018573ffffffffffffffffffffffffffffffffffffffff1673ffffffffffffffffffffffffffffffffffffffff1681526020018481526020018373ffffffffffffffffffffffffffffffffffffffff1673ffffffffffffffffffffffffffffffffffffffff168152602001828103825286818151815260200191508051906020019080838360005b83811015614b70578082015181840152602081019050614b55565b50505050905090810190601f168015614b9d5780820380516001836020036101000a031916815260200191505b509550505050505060405180910390a281925050509392505050565b600081600101805490509050919050565b6000600360009054906101000a900473ffffffffffffffffffffffffffffffffffffffff1673ffffffffffffffffffffffffffffffffffffffff16614c0d6143ea565b73ffffffffffffffffffffffffffffffffffffffff1614614c79576040517f08c379a00000000000000000000000000000000000000000000000000000000081526004018080602001828103825260248152602001806151e46024913960400191505060405180910390fd5b614c8360106145d7565b6000614c8f60106145ed565b9050614ca58160116145fb90919063ffffffff16565b6000601360008381526020019081526020016000209050428160000181905550848160010160006101000a81548160ff02191690836004811115614ce557fe5b021790555083816002018190555085816003018190555081925050509392505050565b614d1282826143f2565b614d67576040517f08c379a000000000000000000000000000000000000000000000000000000000815260040180806020018281038252602a815260200180615169602a913960400191505060405180910390fd5b60006001614d7484614fe2565b03905060008360000160008473ffffffffffffffffffffffffffffffffffffffff1673ffffffffffffffffffffffffffffffffffffffff168152602001908152602001600020549050818114614ea2576000846001018381548110614dd557fe5b9060005260206000200160009054906101000a900473ffffffffffffffffffffffffffffffffffffffff169050818560000160008373ffffffffffffffffffffffffffffffffffffffff1673ffffffffffffffffffffffffffffffffffffffff1681526020019081526020016000208190555080856001018381548110614e5857fe5b9060005260206000200160006101000a81548173ffffffffffffffffffffffffffffffffffffffff021916908373ffffffffffffffffffffffffffffffffffffffff160217905550505b8360000160008473ffffffffffffffffffffffffffffffffffffffff1673ffffffffffffffffffffffffffffffffffffffff1681526020019081526020016000206000905583600101805480614ef457fe5b6001900381819060005260206000200160006101000a81549073ffffffffffffffffffffffffffffffffffffffff0219169055905550505050565b614f398282614ff3565b15614f8f576040517f08c379a000000000000000000000000000000000000000000000000000000000815260040180806020018281038252602a81526020018061523c602a913960400191505060405180910390fd5b816001018190806001815401808255809150506001900390600052602060002001600090919091909150556001826001018054905003826000016000838152602001908152602001600020819055505050565b600081600101805490509050919050565b6000808360010180549050141561500d5760009050615041565b8183600101846000016000858152602001908152602001600020548154811061503257fe5b90600052602060002001541490505b92915050565b828054600181600116156101000203166002900490600052602060002090601f016020900481019282601f1061508857805160ff19168380011785556150b6565b828001600101855582156150b6579182015b828111156150b557825182559160200191906001019061509a565b5b5090506150c391906150c7565b5090565b6150e991905b808211156150e55760008160009055506001016150cd565b5090565b9056fe4f776e61626c653a206e6577206f776e657220697320746865207a65726f20616464726573734d61696e74656e616e63654f7065726174696f6e20646f65736e27742065786973742e4f6e6c7920617574686f72697a6564206d61696e7461696e6572732063616e2063616c6c20746869732066756e6374696f6e2e416464726573735365743a206b657920646f6573206e6f7420657869737420696e20746865207365742e4f6e6c79206d616368696e65206f776e65722063616e2063616c6c20746869732066756e6374696f6e2e55696e745365743a206b657920616c72656164792065786973747320696e20746865207365742e4f6e6c79206d616368696e652063616e2063616c6c20746869732066756e6374696f6e2e4f6e6c7920617574686f72697a6564206d616e7566616374757265732063616e2063616c6c20746869732066756e6374696f6e2e427974657333325365743a206b657920616c72656164792065786973747320696e20746865207365742e416464726573735365743a206b657920616c72656164792065786973747320696e20746865207365742ea26469706673582212207dd57b47b951be81148e4509954c062532cf39183f9766c1b1d1eabc1ce859ce64736f6c634300060a0033",
  "immutableReferences": {},
  "source": "// SPDX-License-Identifier: MIT\npragma solidity >=0.4.21 <0.7.0;\n\nimport \"./Machine.sol\";\n\ncontract HBW is Machine {\n\n    constructor(address _machineOwner, address _machineID, address _productContractAddress) Machine(_machineOwner, _machineID, _productContractAddress) public {}\n\n    enum TasksNames { FetchContainer, StoreContainer, StoreProduct, FetchProduct }\n\n    function getTaskName(TasksNames taskName) internal pure returns (string memory) {\n        require(uint8(taskName) <= 4);\n        if (TasksNames.FetchContainer == taskName) return \"FetchContainer\";\n        if (TasksNames.StoreContainer == taskName) return \"StoreContainer\";\n        if (TasksNames.StoreProduct == taskName) return \"StoreProduct\";\n        if (TasksNames.FetchProduct == taskName) return \"FetchProduct\";\n    }\n\n    function assignFetchContainerTask(uint processID) public {\n        super.assignTask(processID, address(0), getTaskName(TasksNames.FetchContainer));\n    }\n\n    function assignStoreProductTask(uint processID, address productDID, string memory id, string memory color) public {\n        uint taskID = super.assignTask(processID, productDID, getTaskName(TasksNames.StoreProduct));\n        super.saveTaskParam(taskID, \"id\", id);\n        super.saveTaskParam(taskID, \"color\", color);\n    }\n\n    function assignFetchProductTask(uint processID, address productDID) public {\n        super.assignTask(processID, productDID, getTaskName(TasksNames.FetchProduct));\n    }\n\n    function assignStoreContainerTask(uint processID) public {\n        super.assignTask(processID, address(0), getTaskName(TasksNames.StoreContainer));\n    }\n\n    function saveReadingHBW(uint taskID, ReadingType readingType, int readingValue) public {\n        super.saveReading(taskID, readingType, readingValue);\n    }\n}",
  "sourcePath": "/Users/mohammadghanem/Desktop/studious-enigma/contracts/machines/HBW.sol",
  "compiler": {
    "name": "solc",
    "version": "0.6.10+commit.00c0fcaf.Emscripten.clang"
  },
  "schemaVersion": "3.2.3",
  "updatedAt": "2020-10-14T07:37:58.391Z",
  "networkType": "ethereum",
  "devdoc": {
    "methods": {
      "owner()": {
        "details": "Returns the address of the current owner."
      },
      "renounceOwnership()": {
        "details": "Leaves the contract without owner. It will not be possible to call `onlyOwner` functions anymore. Can only be called by the current owner. NOTE: Renouncing ownership will leave the contract without an owner, thereby removing any functionality that is only available to the owner."
      },
      "transferOwnership(address)": {
        "details": "Transfers ownership of the contract to a new account (`newOwner`). Can only be called by the current owner."
      }
    }
  },
  "userdoc": {
    "methods": {}
  }
}