{
  "contractName": "HBW",
  "abi": [
    {
      "inputs": [
        {
          "internalType": "address",
          "name": "_machineOwner",
          "type": "address"
        },
        {
          "internalType": "address",
          "name": "_machineID",
          "type": "address"
        }
      ],
      "stateMutability": "nonpayable",
      "type": "constructor"
    },
    {
      "anonymous": false,
      "inputs": [
        {
          "indexed": true,
          "internalType": "uint256",
          "name": "issueID",
          "type": "uint256"
        },
        {
          "indexed": false,
          "internalType": "string",
          "name": "reason",
          "type": "string"
        },
        {
          "indexed": false,
          "internalType": "string",
          "name": "issueType",
          "type": "string"
        }
      ],
      "name": "NewIssue",
      "type": "event"
    },
    {
      "anonymous": false,
      "inputs": [
        {
          "indexed": true,
          "internalType": "uint256",
          "name": "maintenanceOperationID",
          "type": "uint256"
        },
        {
          "indexed": true,
          "internalType": "address",
          "name": "maintainer",
          "type": "address"
        },
        {
          "indexed": false,
          "internalType": "string",
          "name": "description",
          "type": "string"
        }
      ],
      "name": "NewMaintenanceOperation",
      "type": "event"
    },
    {
      "anonymous": false,
      "inputs": [
        {
          "indexed": true,
          "internalType": "enum Machine.ReadingType",
          "name": "readingType",
          "type": "uint8"
        }
      ],
      "name": "NewReading",
      "type": "event"
    },
    {
      "anonymous": false,
      "inputs": [
        {
          "indexed": true,
          "internalType": "uint256",
          "name": "taskID",
          "type": "uint256"
        },
        {
          "indexed": false,
          "internalType": "string",
          "name": "taskName",
          "type": "string"
        },
        {
          "indexed": false,
          "internalType": "address",
          "name": "productID",
          "type": "address"
        }
      ],
      "name": "NewTask",
      "type": "event"
    },
    {
      "anonymous": false,
      "inputs": [
        {
          "indexed": true,
          "internalType": "address",
          "name": "previousOwner",
          "type": "address"
        },
        {
          "indexed": true,
          "internalType": "address",
          "name": "newOwner",
          "type": "address"
        }
      ],
      "name": "OwnershipTransferred",
      "type": "event"
    },
    {
      "anonymous": false,
      "inputs": [
        {
          "indexed": true,
          "internalType": "uint256",
          "name": "taskID",
          "type": "uint256"
        },
        {
          "indexed": false,
          "internalType": "string",
          "name": "taskName",
          "type": "string"
        },
        {
          "indexed": false,
          "internalType": "address",
          "name": "productID",
          "type": "address"
        }
      ],
      "name": "TaskFinished",
      "type": "event"
    },
    {
      "inputs": [
        {
          "internalType": "address",
          "name": "maintainerAddress",
          "type": "address"
        }
      ],
      "name": "authorizeMaintainer",
      "outputs": [],
      "stateMutability": "nonpayable",
      "type": "function"
    },
    {
      "inputs": [
        {
          "internalType": "address",
          "name": "manufacturerAddress",
          "type": "address"
        }
      ],
      "name": "authorizeManufacturer",
      "outputs": [],
      "stateMutability": "nonpayable",
      "type": "function"
    },
    {
      "inputs": [
        {
          "internalType": "address",
          "name": "maintainerAddress",
          "type": "address"
        }
      ],
      "name": "deauthorizeMaintainer",
      "outputs": [],
      "stateMutability": "nonpayable",
      "type": "function"
    },
    {
      "inputs": [
        {
          "internalType": "address",
          "name": "manufacturerAddress",
          "type": "address"
        }
      ],
      "name": "deauthorizeManufacturer",
      "outputs": [],
      "stateMutability": "nonpayable",
      "type": "function"
    },
    {
      "inputs": [
        {
          "internalType": "uint256",
          "name": "taskID",
          "type": "uint256"
        }
      ],
      "name": "finishTask",
      "outputs": [],
      "stateMutability": "nonpayable",
      "type": "function"
    },
    {
      "inputs": [
        {
          "internalType": "uint256",
          "name": "issueID",
          "type": "uint256"
        }
      ],
      "name": "getIssue",
      "outputs": [
        {
          "internalType": "uint256",
          "name": "",
          "type": "uint256"
        },
        {
          "internalType": "uint256",
          "name": "",
          "type": "uint256"
        },
        {
          "internalType": "string",
          "name": "",
          "type": "string"
        },
        {
          "internalType": "string",
          "name": "",
          "type": "string"
        }
      ],
      "stateMutability": "view",
      "type": "function",
      "constant": true
    },
    {
      "inputs": [],
      "name": "getIssuesCount",
      "outputs": [
        {
          "internalType": "uint256",
          "name": "",
          "type": "uint256"
        }
      ],
      "stateMutability": "view",
      "type": "function",
      "constant": true
    },
    {
      "inputs": [],
      "name": "getMachineID",
      "outputs": [
        {
          "internalType": "address",
          "name": "",
          "type": "address"
        }
      ],
      "stateMutability": "view",
      "type": "function",
      "constant": true
    },
    {
      "inputs": [
        {
          "internalType": "bytes32",
          "name": "infoName",
          "type": "bytes32"
        }
      ],
      "name": "getMachineInfo",
      "outputs": [
        {
          "internalType": "bytes32",
          "name": "",
          "type": "bytes32"
        }
      ],
      "stateMutability": "view",
      "type": "function",
      "constant": true
    },
    {
      "inputs": [],
      "name": "getMachineInfoNames",
      "outputs": [
        {
          "internalType": "bytes32[]",
          "name": "",
          "type": "bytes32[]"
        }
      ],
      "stateMutability": "view",
      "type": "function",
      "constant": true
    },
    {
      "inputs": [],
      "name": "getMachineOwner",
      "outputs": [
        {
          "internalType": "address",
          "name": "",
          "type": "address"
        }
      ],
      "stateMutability": "view",
      "type": "function",
      "constant": true
    },
    {
      "inputs": [
        {
          "internalType": "uint256",
          "name": "maintenanceOperationID",
          "type": "uint256"
        }
      ],
      "name": "getMaintenanceOperation",
      "outputs": [
        {
          "internalType": "uint256",
          "name": "",
          "type": "uint256"
        },
        {
          "internalType": "address",
          "name": "",
          "type": "address"
        },
        {
          "internalType": "string",
          "name": "",
          "type": "string"
        }
      ],
      "stateMutability": "view",
      "type": "function",
      "constant": true
    },
    {
      "inputs": [],
      "name": "getMaintenanceOperationsCount",
      "outputs": [
        {
          "internalType": "uint256",
          "name": "",
          "type": "uint256"
        }
      ],
      "stateMutability": "view",
      "type": "function",
      "constant": true
    },
    {
      "inputs": [
        {
          "internalType": "enum Machine.ReadingType",
          "name": "readingType",
          "type": "uint8"
        }
      ],
      "name": "getNewReading",
      "outputs": [],
      "stateMutability": "nonpayable",
      "type": "function"
    },
    {
      "inputs": [
        {
          "internalType": "uint256",
          "name": "taskID",
          "type": "uint256"
        }
      ],
      "name": "getProductID",
      "outputs": [
        {
          "internalType": "address",
          "name": "",
          "type": "address"
        }
      ],
      "stateMutability": "view",
      "type": "function",
      "constant": true
    },
    {
      "inputs": [
        {
          "internalType": "address",
          "name": "productID",
          "type": "address"
        },
        {
          "internalType": "bytes32",
          "name": "operationName",
          "type": "bytes32"
        }
      ],
      "name": "getProductOperationValue",
      "outputs": [
        {
          "internalType": "string",
          "name": "",
          "type": "string"
        }
      ],
      "stateMutability": "view",
      "type": "function",
      "constant": true
    },
    {
      "inputs": [
        {
          "internalType": "address",
          "name": "productID",
          "type": "address"
        }
      ],
      "name": "getProductOperations",
      "outputs": [
        {
          "internalType": "bytes32[]",
          "name": "",
          "type": "bytes32[]"
        }
      ],
      "stateMutability": "view",
      "type": "function",
      "constant": true
    },
    {
      "inputs": [
        {
          "internalType": "address",
          "name": "productID",
          "type": "address"
        }
      ],
      "name": "getProductTasks",
      "outputs": [
        {
          "internalType": "uint256[]",
          "name": "",
          "type": "uint256[]"
        }
      ],
      "stateMutability": "view",
      "type": "function",
      "constant": true
    },
    {
      "inputs": [
        {
          "internalType": "uint256",
          "name": "readingID",
          "type": "uint256"
        }
      ],
      "name": "getReading",
      "outputs": [
        {
          "internalType": "uint256",
          "name": "",
          "type": "uint256"
        },
        {
          "internalType": "enum Machine.ReadingType",
          "name": "",
          "type": "uint8"
        },
        {
          "internalType": "int256",
          "name": "",
          "type": "int256"
        },
        {
          "internalType": "uint256",
          "name": "",
          "type": "uint256"
        }
      ],
      "stateMutability": "view",
      "type": "function",
      "constant": true
    },
    {
      "inputs": [],
      "name": "getReadingsCount",
      "outputs": [
        {
          "internalType": "uint256",
          "name": "",
          "type": "uint256"
        }
      ],
      "stateMutability": "view",
      "type": "function",
      "constant": true
    },
    {
      "inputs": [
        {
          "internalType": "uint256",
          "name": "taskID",
          "type": "uint256"
        }
      ],
      "name": "getTask",
      "outputs": [
        {
          "internalType": "address",
          "name": "",
          "type": "address"
        },
        {
          "internalType": "string",
          "name": "",
          "type": "string"
        },
        {
          "internalType": "uint256",
          "name": "",
          "type": "uint256"
        },
        {
          "internalType": "uint256",
          "name": "",
          "type": "uint256"
        },
        {
          "internalType": "bytes32[]",
          "name": "",
          "type": "bytes32[]"
        }
      ],
      "stateMutability": "view",
      "type": "function",
      "constant": true
    },
    {
      "inputs": [
        {
          "internalType": "uint256",
          "name": "taskID",
          "type": "uint256"
        },
        {
          "internalType": "bytes32",
          "name": "inputName",
          "type": "bytes32"
        }
      ],
      "name": "getTaskInput",
      "outputs": [
        {
          "internalType": "string",
          "name": "",
          "type": "string"
        }
      ],
      "stateMutability": "view",
      "type": "function",
      "constant": true
    },
    {
      "inputs": [],
      "name": "getTasksCount",
      "outputs": [
        {
          "internalType": "uint256",
          "name": "",
          "type": "uint256"
        }
      ],
      "stateMutability": "view",
      "type": "function",
      "constant": true
    },
    {
      "inputs": [
        {
          "internalType": "bytes32",
          "name": "",
          "type": "bytes32"
        }
      ],
      "name": "info",
      "outputs": [
        {
          "internalType": "bytes32",
          "name": "",
          "type": "bytes32"
        }
      ],
      "stateMutability": "view",
      "type": "function",
      "constant": true
    },
    {
      "inputs": [
        {
          "internalType": "uint256",
          "name": "taskID",
          "type": "uint256"
        }
      ],
      "name": "isTaskFinished",
      "outputs": [
        {
          "internalType": "bool",
          "name": "",
          "type": "bool"
        }
      ],
      "stateMutability": "view",
      "type": "function",
      "constant": true
    },
    {
      "inputs": [
        {
          "internalType": "uint256",
          "name": "taskID",
          "type": "uint256"
        }
      ],
      "name": "killTask",
      "outputs": [],
      "stateMutability": "nonpayable",
      "type": "function"
    },
    {
      "inputs": [],
      "name": "machineID",
      "outputs": [
        {
          "internalType": "address",
          "name": "",
          "type": "address"
        }
      ],
      "stateMutability": "view",
      "type": "function",
      "constant": true
    },
    {
      "inputs": [],
      "name": "machineOwner",
      "outputs": [
        {
          "internalType": "address",
          "name": "",
          "type": "address"
        }
      ],
      "stateMutability": "view",
      "type": "function",
      "constant": true
    },
    {
      "inputs": [],
      "name": "owner",
      "outputs": [
        {
          "internalType": "address",
          "name": "",
          "type": "address"
        }
      ],
      "stateMutability": "view",
      "type": "function",
      "constant": true
    },
    {
      "inputs": [],
      "name": "renounceOwnership",
      "outputs": [],
      "stateMutability": "nonpayable",
      "type": "function"
    },
    {
      "inputs": [
        {
          "internalType": "uint256",
          "name": "taskID",
          "type": "uint256"
        },
        {
          "internalType": "bytes32",
          "name": "inputName",
          "type": "bytes32"
        },
        {
          "internalType": "string",
          "name": "inputValue",
          "type": "string"
        }
      ],
      "name": "saveInput",
      "outputs": [],
      "stateMutability": "nonpayable",
      "type": "function"
    },
    {
      "inputs": [
        {
          "internalType": "bytes32",
          "name": "infoName",
          "type": "bytes32"
        },
        {
          "internalType": "bytes32",
          "name": "infoValue",
          "type": "bytes32"
        }
      ],
      "name": "saveMachineInfo",
      "outputs": [],
      "stateMutability": "nonpayable",
      "type": "function"
    },
    {
      "inputs": [
        {
          "internalType": "string",
          "name": "description",
          "type": "string"
        }
      ],
      "name": "saveMaintenanceOperation",
      "outputs": [
        {
          "internalType": "uint256",
          "name": "",
          "type": "uint256"
        }
      ],
      "stateMutability": "nonpayable",
      "type": "function"
    },
    {
      "inputs": [
        {
          "internalType": "address",
          "name": "productID",
          "type": "address"
        },
        {
          "internalType": "bytes32",
          "name": "operationName",
          "type": "bytes32"
        },
        {
          "internalType": "string",
          "name": "operationValue",
          "type": "string"
        }
      ],
      "name": "saveProductOperation",
      "outputs": [],
      "stateMutability": "nonpayable",
      "type": "function"
    },
    {
      "inputs": [
        {
          "internalType": "address",
          "name": "newOwner",
          "type": "address"
        }
      ],
      "name": "transferOwnership",
      "outputs": [],
      "stateMutability": "nonpayable",
      "type": "function"
    },
    {
      "inputs": [
        {
          "internalType": "uint256",
          "name": "taskID",
          "type": "uint256"
        }
      ],
      "name": "getTaskName",
      "outputs": [
        {
          "internalType": "string",
          "name": "",
          "type": "string"
        }
      ],
      "stateMutability": "view",
      "type": "function",
      "constant": true
    },
    {
      "inputs": [
        {
          "internalType": "address",
          "name": "productID",
          "type": "address"
        }
      ],
      "name": "fetchContainer",
      "outputs": [],
      "stateMutability": "nonpayable",
      "type": "function"
    },
    {
      "inputs": [
        {
          "internalType": "address",
          "name": "productID",
          "type": "address"
        },
        {
          "internalType": "string",
          "name": "id",
          "type": "string"
        },
        {
          "internalType": "string",
          "name": "color",
          "type": "string"
        }
      ],
      "name": "storeWB",
      "outputs": [],
      "stateMutability": "nonpayable",
      "type": "function"
    },
    {
      "inputs": [
        {
          "internalType": "address",
          "name": "productID",
          "type": "address"
        },
        {
          "internalType": "string",
          "name": "color",
          "type": "string"
        }
      ],
      "name": "fetchWB",
      "outputs": [],
      "stateMutability": "nonpayable",
      "type": "function"
    },
    {
      "inputs": [
        {
          "internalType": "address",
          "name": "productID",
          "type": "address"
        }
      ],
      "name": "storeContainer",
      "outputs": [],
      "stateMutability": "nonpayable",
      "type": "function"
    },
    {
      "inputs": [
        {
          "internalType": "uint256",
          "name": "taskID",
          "type": "uint256"
        },
        {
          "internalType": "enum Machine.ReadingType",
          "name": "readingType",
          "type": "uint8"
        },
        {
          "internalType": "int256",
          "name": "readingValue",
          "type": "int256"
        }
      ],
      "name": "saveReadingHBW",
      "outputs": [],
      "stateMutability": "nonpayable",
      "type": "function"
    }
  ],
  "bytecode": "0x60806040523480156200001157600080fd5b5060405162004d0138038062004d01833981810160405260408110156200003757600080fd5b81019080805190602001909291908051906020019092919050505081816000620000666200019060201b60201c565b9050806000806101000a81548173ffffffffffffffffffffffffffffffffffffffff021916908373ffffffffffffffffffffffffffffffffffffffff1602179055508073ffffffffffffffffffffffffffffffffffffffff16600073ffffffffffffffffffffffffffffffffffffffff167f8be0079c531659141344cd1fd0a4f28419497f9722a3daafe3b4186f6b6457e060405160405180910390a35081600160006101000a81548173ffffffffffffffffffffffffffffffffffffffff021916908373ffffffffffffffffffffffffffffffffffffffff16021790555080600260006101000a81548173ffffffffffffffffffffffffffffffffffffffff021916908373ffffffffffffffffffffffffffffffffffffffff1602179055505050505062000198565b600033905090565b614b5980620001a86000396000f3fe608060405234801561001057600080fd5b50600436106102525760003560e01c80638b6f46aa11610146578063bd98acd0116100c3578063d4c3a63211610087578063d4c3a632146112f5578063ed210f991461133f578063ee19dc8514611381578063f2fde38b146113c5578063f756095214611409578063ffd7bb5e1461144f57610252565b8063bd98acd0146110b4578063c0b4621a146110ec578063c0ddec421461119d578063c986fec3146111bb578063cef27d821461129657610252565b8063abc06f851161010a578063abc06f8514610ed1578063abeff4dd14610f1b578063b3620b3614610f5f578063b64a097e14610fa3578063b7ff3bba14610fe557610252565b80638b6f46aa14610cbf5780638da5cb5b14610d03578063976b311314610d4d5780639d90a03214610e6e5780639f89927314610eb357610252565b80635093cfa6116101d4578063715018a611610198578063715018a614610ba75780637eed8e9f14610bb15780637f4f773c14610c1f578063842178b214610c4d5780638646ce8b14610c7b57610252565b80635093cfa61461090857806350b5944714610a7a578063546457b314610a9857806356755b1314610ab65780636ac740d014610b5d57610252565b80631d65e77e1161021b5780631d65e77e1461054957806326966382146106795780632a861d341461074057806344a63efa146107d95780634eed50f5146108be57610252565b806287a78814610257578063089e1b39146102bc57806308dd5cfe1461030057806311f47ab9146103cf57806315d2d40c146104b0575b600080fd5b6102836004803603602081101561026d57600080fd5b8101908080359060200190929190505050611480565b6040518085815260200184600481111561029957fe5b60ff16815260200183815260200182815260200194505050505060405180910390f35b6102fe600480360360208110156102d257600080fd5b81019080803573ffffffffffffffffffffffffffffffffffffffff169060200190929190505050611584565b005b6103b96004803603602081101561031657600080fd5b810190808035906020019064010000000081111561033357600080fd5b82018360208201111561034557600080fd5b8035906020019184600183028401116401000000008311171561036757600080fd5b91908080601f016020809104026020016040519081016040528093929190818152602001838380828437600081840152601f19601f8201169050808301925050505050505091929192905050506116cf565b6040518082815260200191505060405180910390f35b6103fb600480360360208110156103e557600080fd5b8101908080359060200190929190505050611914565b604051808481526020018373ffffffffffffffffffffffffffffffffffffffff1673ffffffffffffffffffffffffffffffffffffffff16815260200180602001828103825283818151815260200191508051906020019080838360005b83811015610473578082015181840152602081019050610458565b50505050905090810190601f1680156104a05780820380516001836020036101000a031916815260200191505b5094505050505060405180910390f35b6104f2600480360360208110156104c657600080fd5b81019080803573ffffffffffffffffffffffffffffffffffffffff169060200190929190505050611a8f565b6040518080602001828103825283818151815260200191508051906020019060200280838360005b8381101561053557808201518184015260208101905061051a565b505050509050019250505060405180910390f35b6105756004803603602081101561055f57600080fd5b8101908080359060200190929190505050611b26565b604051808673ffffffffffffffffffffffffffffffffffffffff1673ffffffffffffffffffffffffffffffffffffffff1681526020018060200185815260200184815260200180602001838103835287818151815260200191508051906020019080838360005b838110156105f75780820151818401526020810190506105dc565b50505050905090810190601f1680156106245780820380516001836020036101000a031916815260200191505b50838103825284818151815260200191508051906020019060200280838360005b83811015610660578082015181840152602081019050610645565b5050505090500197505050505050505060405180910390f35b6106c56004803603604081101561068f57600080fd5b81019080803573ffffffffffffffffffffffffffffffffffffffff16906020019092919080359060200190929190505050611d47565b6040518080602001828103825283818151815260200191508051906020019080838360005b838110156107055780820151818401526020810190506106ea565b50505050905090810190601f1680156107325780820380516001836020036101000a031916815260200191505b509250505060405180910390f35b6107826004803603602081101561075657600080fd5b81019080803573ffffffffffffffffffffffffffffffffffffffff169060200190929190505050611ec0565b6040518080602001828103825283818151815260200191508051906020019060200280838360005b838110156107c55780820151818401526020810190506107aa565b505050509050019250505060405180910390f35b6108bc600480360360608110156107ef57600080fd5b81019080803573ffffffffffffffffffffffffffffffffffffffff169060200190929190803590602001909291908035906020019064010000000081111561083657600080fd5b82018360208201111561084857600080fd5b8035906020019184600183028401116401000000008311171561086a57600080fd5b91908080601f016020809104026020016040519081016040528093929190818152602001838380828437600081840152601f19601f820116905080830192505050505050509192919290505050611f57565b005b6108c66120ad565b604051808273ffffffffffffffffffffffffffffffffffffffff1673ffffffffffffffffffffffffffffffffffffffff16815260200191505060405180910390f35b610a786004803603606081101561091e57600080fd5b81019080803573ffffffffffffffffffffffffffffffffffffffff1690602001909291908035906020019064010000000081111561095b57600080fd5b82018360208201111561096d57600080fd5b8035906020019184600183028401116401000000008311171561098f57600080fd5b91908080601f016020809104026020016040519081016040528093929190818152602001838380828437600081840152601f19601f820116905080830192505050505050509192919290803590602001906401000000008111156109f257600080fd5b820183602082011115610a0457600080fd5b80359060200191846001830284011164010000000083111715610a2657600080fd5b91908080601f016020809104026020016040519081016040528093929190818152602001838380828437600081840152601f19601f8201169050808301925050505050505091929192905050506120d7565b005b610a82612153565b6040518082815260200191505060405180910390f35b610aa0612164565b6040518082815260200191505060405180910390f35b610ae260048036036020811015610acc57600080fd5b8101908080359060200190929190505050612175565b6040518080602001828103825283818151815260200191508051906020019080838360005b83811015610b22578082015181840152602081019050610b07565b50505050905090810190601f168015610b4f5780820380516001836020036101000a031916815260200191505b509250505060405180910390f35b610b656122b3565b604051808273ffffffffffffffffffffffffffffffffffffffff1673ffffffffffffffffffffffffffffffffffffffff16815260200191505060405180910390f35b610baf6122dd565b005b610bdd60048036036020811015610bc757600080fd5b8101908080359060200190929190505050612465565b604051808273ffffffffffffffffffffffffffffffffffffffff1673ffffffffffffffffffffffffffffffffffffffff16815260200191505060405180910390f35b610c4b60048036036020811015610c3557600080fd5b810190808035906020019092919050505061252b565b005b610c7960048036036020811015610c6357600080fd5b8101908080359060200190929190505050612709565b005b610cbd60048036036020811015610c9157600080fd5b81019080803573ffffffffffffffffffffffffffffffffffffffff1690602001909291905050506129f5565b005b610d0160048036036020811015610cd557600080fd5b81019080803573ffffffffffffffffffffffffffffffffffffffff169060200190929190505050612a19565b005b610d0b612a3d565b604051808273ffffffffffffffffffffffffffffffffffffffff1673ffffffffffffffffffffffffffffffffffffffff16815260200191505060405180910390f35b610d7960048036036020811015610d6357600080fd5b8101908080359060200190929190505050612a66565b604051808581526020018481526020018060200180602001838103835285818151815260200191508051906020019080838360005b83811015610dc9578082015181840152602081019050610dae565b50505050905090810190601f168015610df65780820380516001836020036101000a031916815260200191505b50838103825284818151815260200191508051906020019080838360005b83811015610e2f578082015181840152602081019050610e14565b50505050905090810190601f168015610e5c5780820380516001836020036101000a031916815260200191505b50965050505050505060405180910390f35b610eb160048036036060811015610e8457600080fd5b8101908080359060200190929190803560ff16906020019092919080359060200190929190505050612c93565b005b610ebb612ca4565b6040518082815260200191505060405180910390f35b610ed9612cb5565b604051808273ffffffffffffffffffffffffffffffffffffffff1673ffffffffffffffffffffffffffffffffffffffff16815260200191505060405180910390f35b610f5d60048036036020811015610f3157600080fd5b81019080803573ffffffffffffffffffffffffffffffffffffffff169060200190929190505050612cdb565b005b610fa160048036036020811015610f7557600080fd5b81019080803573ffffffffffffffffffffffffffffffffffffffff169060200190929190505050612e25565b005b610fcf60048036036020811015610fb957600080fd5b8101908080359060200190929190505050612f6f565b6040518082815260200191505060405180910390f35b6110b260048036036060811015610ffb57600080fd5b8101908080359060200190929190803590602001909291908035906020019064010000000081111561102c57600080fd5b82018360208201111561103e57600080fd5b8035906020019184600183028401116401000000008311171561106057600080fd5b91908080601f016020809104026020016040519081016040528093929190818152602001838380828437600081840152601f19601f820116905080830192505050505050509192919290505050612f87565b005b6110ea600480360360408110156110ca57600080fd5b81019080803590602001909291908035906020019092919050505061315a565b005b6111226004803603604081101561110257600080fd5b810190808035906020019092919080359060200190929190505050613237565b6040518080602001828103825283818151815260200191508051906020019080838360005b83811015611162578082015181840152602081019050611147565b50505050905090810190601f16801561118f5780820380516001836020036101000a031916815260200191505b509250505060405180910390f35b6111a5613387565b6040518082815260200191505060405180910390f35b611294600480360360408110156111d157600080fd5b81019080803573ffffffffffffffffffffffffffffffffffffffff1690602001909291908035906020019064010000000081111561120e57600080fd5b82018360208201111561122057600080fd5b8035906020019184600183028401116401000000008311171561124257600080fd5b91908080601f016020809104026020016040519081016040528093929190818152602001838380828437600081840152601f19601f820116905080830192505050505050509192919290505050613398565b005b61129e6133e8565b6040518080602001828103825283818151815260200191508051906020019060200280838360005b838110156112e15780820151818401526020810190506112c6565b505050509050019250505060405180910390f35b6112fd613443565b604051808273ffffffffffffffffffffffffffffffffffffffff1673ffffffffffffffffffffffffffffffffffffffff16815260200191505060405180910390f35b61136b6004803603602081101561135557600080fd5b8101908080359060200190929190505050613469565b6040518082815260200191505060405180910390f35b6113c36004803603602081101561139757600080fd5b81019080803573ffffffffffffffffffffffffffffffffffffffff169060200190929190505050613486565b005b611407600480360360208110156113db57600080fd5b81019080803573ffffffffffffffffffffffffffffffffffffffff1690602001909291905050506135d1565b005b6114356004803603602081101561141f57600080fd5b81019080803590602001909291905050506137de565b604051808215151515815260200191505060405180910390f35b61147e6004803603602081101561146557600080fd5b81019080803560ff1690602001909291905050506138ba565b005b60008060008061149a8560106139be90919063ffffffff16565b61150c576040517f08c379a00000000000000000000000000000000000000000000000000000000081526004018080602001828103825260168152602001807f52656164696e6720646f65736e27742065786973742e0000000000000000000081525060200191505060405180910390fd5b60126000868152602001908152602001600020600001546012600087815260200190815260200160002060010160009054906101000a900460ff166012600088815260200190815260200160002060020154601260008981526020019081526020016000206003015493509350935093509193509193565b600160009054906101000a900473ffffffffffffffffffffffffffffffffffffffff1673ffffffffffffffffffffffffffffffffffffffff166115c5613a12565b73ffffffffffffffffffffffffffffffffffffffff1614611631576040517f08c379a000000000000000000000000000000000000000000000000000000000815260040180806020018281038252602a815260200180614a27602a913960400191505060405180910390fd5b61164581601b613a1a90919063ffffffff16565b156116b8576040517f08c379a000000000000000000000000000000000000000000000000000000000815260040180806020018281038252601b8152602001807f4d616e75666163747572657220616c72656164792065786973742e000000000081525060200191505060405180910390fd5b6116cc81601b613ae690919063ffffffff16565b50565b60006116ec6116dc613a12565b601d613a1a90919063ffffffff16565b8061174b5750600160009054906101000a900473ffffffffffffffffffffffffffffffffffffffff1673ffffffffffffffffffffffffffffffffffffffff16611733613a12565b73ffffffffffffffffffffffffffffffffffffffff16145b6117a0576040517f08c379a00000000000000000000000000000000000000000000000000000000081526004018080602001828103825260338152602001806149ca6033913960400191505060405180910390fd5b6117aa6017613bff565b60006117b66017613c15565b90506117cc816018613c2390919063ffffffff16565b6000601a600083815260200190815260200160002090504281600001819055506117f4613a12565b8160010160006101000a81548173ffffffffffffffffffffffffffffffffffffffff021916908373ffffffffffffffffffffffffffffffffffffffff1602179055508381600201908051906020019061184e9291906148db565b50611857613a12565b73ffffffffffffffffffffffffffffffffffffffff16827fdf898f82123c1d886ac510dab0606c18eb18e75ec238c4930cb278508fc2a445866040518080602001828103825283818151815260200191508051906020019080838360005b838110156118d05780820151818401526020810190506118b5565b50505050905090810190601f1680156118fd5780820380516001836020036101000a031916815260200191505b509250505060405180910390a38192505050919050565b600080606061192d8460186139be90919063ffffffff16565b611982576040517f08c379a00000000000000000000000000000000000000000000000000000000081526004018080602001828103825260238152602001806149a76023913960400191505060405180910390fd5b601a600085815260200190815260200160002060000154601a600086815260200190815260200160002060010160009054906101000a900473ffffffffffffffffffffffffffffffffffffffff16601a6000878152602001908152602001600020600201808054600181600116156101000203166002900480601f016020809104026020016040519081016040528092919081815260200182805460018160011615610100020316600290048015611a7b5780601f10611a5057610100808354040283529160200191611a7b565b820191906000526020600020905b815481529060010190602001808311611a5e57829003601f168201915b505050505090509250925092509193909250565b6060600e60008373ffffffffffffffffffffffffffffffffffffffff1673ffffffffffffffffffffffffffffffffffffffff168152602001908152602001600020805480602002602001604051908101604052809291908181526020018280548015611b1a57602002820191906000526020600020905b815481526020019060010190808311611b06575b50505050509050919050565b600060606000806060611b438660076139be90919063ffffffff16565b611bb5576040517f08c379a00000000000000000000000000000000000000000000000000000000081526004018080602001828103825260138152602001807f5461736b20646f65736e27742065786973742e0000000000000000000000000081525060200191505060405180910390fd5b600a600087815260200190815260200160002060000160009054906101000a900473ffffffffffffffffffffffffffffffffffffffff16600a6000888152602001908152602001600020600101600a600089815260200190815260200160002060020154600a60008a815260200190815260200160002060030154600a60008b8152602001908152602001600020600501838054600181600116156101000203166002900480601f016020809104026020016040519081016040528092919081815260200182805460018160011615610100020316600290048015611cdb5780601f10611cb057610100808354040283529160200191611cdb565b820191906000526020600020905b815481529060010190602001808311611cbe57829003601f168201915b5050505050935080805480602002602001604051908101604052809291908181526020018280548015611d2d57602002820191906000526020600020905b815481526020019060010190808311611d19575b505050505090509450945094509450945091939590929450565b6060611d5d83600b613a1a90919063ffffffff16565b611dcf576040517f08c379a00000000000000000000000000000000000000000000000000000000081526004018080602001828103825260168152602001807f50726f6475637420646f65736e27742065786973742e0000000000000000000081525060200191505060405180910390fd5b600d60008473ffffffffffffffffffffffffffffffffffffffff1673ffffffffffffffffffffffffffffffffffffffff16815260200190815260200160002060008381526020019081526020016000208054600181600116156101000203166002900480601f016020809104026020016040519081016040528092919081815260200182805460018160011615610100020316600290048015611eb35780601f10611e8857610100808354040283529160200191611eb3565b820191906000526020600020905b815481529060010190602001808311611e9657829003601f168201915b5050505050905092915050565b6060600960008373ffffffffffffffffffffffffffffffffffffffff1673ffffffffffffffffffffffffffffffffffffffff168152602001908152602001600020805480602002602001604051908101604052809291908181526020018280548015611f4b57602002820191906000526020600020905b815481526020019060010190808311611f37575b50505050509050919050565b611f6b83600b613a1a90919063ffffffff16565b611fdd576040517f08c379a00000000000000000000000000000000000000000000000000000000081526004018080602001828103825260168152602001807f50726f6475637420646f65736e27742065786973742e0000000000000000000081525060200191505060405180910390fd5b80600d60008573ffffffffffffffffffffffffffffffffffffffff1673ffffffffffffffffffffffffffffffffffffffff168152602001908152602001600020600084815260200190815260200160002090805190602001906120419291906148db565b50600e60008473ffffffffffffffffffffffffffffffffffffffff1673ffffffffffffffffffffffffffffffffffffffff168152602001908152602001600020829080600181540180825580915050600190039060005260206000200160009091909190915055505050565b6000600260009054906101000a900473ffffffffffffffffffffffffffffffffffffffff16905090565b60006120ec846120e76003613cd6565b613e69565b9050612119817f696400000000000000000000000000000000000000000000000000000000000085612f87565b612144817f636f6c6f7200000000000000000000000000000000000000000000000000000084612f87565b61214d816140a1565b50505050565b600061215f60146143af565b905090565b600061217060106143af565b905090565b606061218b8260076139be90919063ffffffff16565b6121fd576040517f08c379a00000000000000000000000000000000000000000000000000000000081526004018080602001828103825260138152602001807f5461736b20646f65736e27742065786973742e0000000000000000000000000081525060200191505060405180910390fd5b600a60008381526020019081526020016000206001018054600181600116156101000203166002900480601f0160208091040260200160405190810160405280929190818152602001828054600181600116156101000203166002900480156122a75780601f1061227c576101008083540402835291602001916122a7565b820191906000526020600020905b81548152906001019060200180831161228a57829003601f168201915b50505050509050919050565b6000600160009054906101000a900473ffffffffffffffffffffffffffffffffffffffff16905090565b6122e5613a12565b73ffffffffffffffffffffffffffffffffffffffff166000809054906101000a900473ffffffffffffffffffffffffffffffffffffffff1673ffffffffffffffffffffffffffffffffffffffff16146123a6576040517f08c379a00000000000000000000000000000000000000000000000000000000081526004018080602001828103825260208152602001807f4f776e61626c653a2063616c6c6572206973206e6f7420746865206f776e657281525060200191505060405180910390fd5b600073ffffffffffffffffffffffffffffffffffffffff166000809054906101000a900473ffffffffffffffffffffffffffffffffffffffff1673ffffffffffffffffffffffffffffffffffffffff167f8be0079c531659141344cd1fd0a4f28419497f9722a3daafe3b4186f6b6457e060405160405180910390a360008060006101000a81548173ffffffffffffffffffffffffffffffffffffffff021916908373ffffffffffffffffffffffffffffffffffffffff160217905550565b600061247b8260076139be90919063ffffffff16565b6124ed576040517f08c379a00000000000000000000000000000000000000000000000000000000081526004018080602001828103825260138152602001807f5461736b20646f65736e27742065786973742e0000000000000000000000000081525060200191505060405180910390fd5b600a600083815260200190815260200160002060000160009054906101000a900473ffffffffffffffffffffffffffffffffffffffff169050919050565b600160009054906101000a900473ffffffffffffffffffffffffffffffffffffffff1673ffffffffffffffffffffffffffffffffffffffff1661256c613a12565b73ffffffffffffffffffffffffffffffffffffffff16146125d8576040517f08c379a000000000000000000000000000000000000000000000000000000000815260040180806020018281038252602a815260200180614a27602a913960400191505060405180910390fd5b6125ec8160076139be90919063ffffffff16565b61265e576040517f08c379a00000000000000000000000000000000000000000000000000000000081526004018080602001828103825260138152602001807f5461736b20646f65736e27742065786973742e0000000000000000000000000081525060200191505060405180910390fd5b6000600a600083815260200190815260200160002060030154146126ea576040517f08c379a00000000000000000000000000000000000000000000000000000000081526004018080602001828103825260168152602001807f5461736b20616c72656164792066696e69736865642e0000000000000000000081525060200191505060405180910390fd5b6001600a60008381526020019081526020016000206003018190555050565b600260009054906101000a900473ffffffffffffffffffffffffffffffffffffffff1673ffffffffffffffffffffffffffffffffffffffff1661274a613a12565b73ffffffffffffffffffffffffffffffffffffffff16146127b6576040517f08c379a0000000000000000000000000000000000000000000000000000000008152600401808060200182810382526024815260200180614a786024913960400191505060405180910390fd5b6127ca8160076139be90919063ffffffff16565b61283c576040517f08c379a00000000000000000000000000000000000000000000000000000000081526004018080602001828103825260138152602001807f5461736b20646f65736e27742065786973742e0000000000000000000000000081525060200191505060405180910390fd5b6000600a600083815260200190815260200160002060030154146128c8576040517f08c379a00000000000000000000000000000000000000000000000000000000081526004018080602001828103825260168152602001807f5461736b20616c72656164792066696e69736865642e0000000000000000000081525060200191505060405180910390fd5b42600a600083815260200190815260200160002060030181905550807f2f73bc32a98ca6a02a0c153c827a9e28ce6bd37f9be254bab7bc582117511b1a61290e83612175565b600a600085815260200190815260200160002060000160009054906101000a900473ffffffffffffffffffffffffffffffffffffffff1660405180806020018373ffffffffffffffffffffffffffffffffffffffff1673ffffffffffffffffffffffffffffffffffffffff168152602001828103825284818151815260200191508051906020019080838360005b838110156129b757808201518184015260208101905061299c565b50505050905090810190601f1680156129e45780820380516001836020036101000a031916815260200191505b50935050505060405180910390a250565b6000612a0a82612a056000613cd6565b613e69565b9050612a15816140a1565b5050565b6000612a2e82612a296001613cd6565b613e69565b9050612a39816140a1565b5050565b60008060009054906101000a900473ffffffffffffffffffffffffffffffffffffffff16905090565b600080606080612a808560146139be90919063ffffffff16565b612af2576040517f08c379a00000000000000000000000000000000000000000000000000000000081526004018080602001828103825260148152602001807f497373756520646f65736e27742065786973742e00000000000000000000000081525060200191505060405180910390fd5b601660008681526020019081526020016000206000015460166000878152602001908152602001600020600101546016600088815260200190815260200160002060020160166000898152602001908152602001600020600301818054600181600116156101000203166002900480601f016020809104026020016040519081016040528092919081815260200182805460018160011615610100020316600290048015612be15780601f10612bb657610100808354040283529160200191612be1565b820191906000526020600020905b815481529060010190602001808311612bc457829003601f168201915b50505050509150808054600181600116156101000203166002900480601f016020809104026020016040519081016040528092919081815260200182805460018160011615610100020316600290048015612c7d5780601f10612c5257610100808354040283529160200191612c7d565b820191906000526020600020905b815481529060010190602001808311612c6057829003601f168201915b5050505050905093509350935093509193509193565b612c9e8383836143c0565b50505050565b6000612cb060076143af565b905090565b600160009054906101000a900473ffffffffffffffffffffffffffffffffffffffff1681565b600160009054906101000a900473ffffffffffffffffffffffffffffffffffffffff1673ffffffffffffffffffffffffffffffffffffffff16612d1c613a12565b73ffffffffffffffffffffffffffffffffffffffff1614612d88576040517f08c379a000000000000000000000000000000000000000000000000000000000815260040180806020018281038252602a815260200180614a27602a913960400191505060405180910390fd5b612d9c81601b613a1a90919063ffffffff16565b612e0e576040517f08c379a000000000000000000000000000000000000000000000000000000000815260040180806020018281038252601b8152602001807f4d616e75666163747572657220646f65736e27742065786973742e000000000081525060200191505060405180910390fd5b612e2281601b6144fe90919063ffffffff16565b50565b600160009054906101000a900473ffffffffffffffffffffffffffffffffffffffff1673ffffffffffffffffffffffffffffffffffffffff16612e66613a12565b73ffffffffffffffffffffffffffffffffffffffff1614612ed2576040517f08c379a000000000000000000000000000000000000000000000000000000000815260040180806020018281038252602a815260200180614a27602a913960400191505060405180910390fd5b612ee681601d613a1a90919063ffffffff16565b612f58576040517f08c379a00000000000000000000000000000000000000000000000000000000081526004018080602001828103825260198152602001807f4d61696e7461696e657220646f65736e27742065786973742e0000000000000081525060200191505060405180910390fd5b612f6c81601d6144fe90919063ffffffff16565b50565b60036020528060005260406000206000915090505481565b612fa2612f92613a12565b601b613a1a90919063ffffffff16565b806130015750600160009054906101000a900473ffffffffffffffffffffffffffffffffffffffff1673ffffffffffffffffffffffffffffffffffffffff16612fe9613a12565b73ffffffffffffffffffffffffffffffffffffffff16145b613056576040517f08c379a0000000000000000000000000000000000000000000000000000000008152600401808060200182810382526034815260200180614a9c6034913960400191505060405180910390fd5b61306a8360076139be90919063ffffffff16565b6130dc576040517f08c379a00000000000000000000000000000000000000000000000000000000081526004018080602001828103825260138152602001807f5461736b20646f65736e27742065786973742e0000000000000000000000000081525060200191505060405180910390fd5b80600a6000858152602001908152602001600020600401600084815260200190815260200160002090805190602001906131179291906148db565b50600a6000848152602001908152602001600020600501829080600181540180825580915050600190039060005260206000200160009091909190915055505050565b600160009054906101000a900473ffffffffffffffffffffffffffffffffffffffff1673ffffffffffffffffffffffffffffffffffffffff1661319b613a12565b73ffffffffffffffffffffffffffffffffffffffff1614613207576040517f08c379a000000000000000000000000000000000000000000000000000000000815260040180806020018281038252602a815260200180614a27602a913960400191505060405180910390fd5b61321b82600461472590919063ffffffff16565b8060036000848152602001908152602001600020819055505050565b606061324d8360076139be90919063ffffffff16565b6132bf576040517f08c379a00000000000000000000000000000000000000000000000000000000081526004018080602001828103825260138152602001807f5461736b20646f65736e27742065786973742e0000000000000000000000000081525060200191505060405180910390fd5b600a600084815260200190815260200160002060040160008381526020019081526020016000208054600181600116156101000203166002900480601f01602080910402602001604051908101604052809291908181526020018280546001816001161561010002031660029004801561337a5780601f1061334f5761010080835404028352916020019161337a565b820191906000526020600020905b81548152906001019060200180831161335d57829003601f168201915b5050505050905092915050565b600061339360186143af565b905090565b60006133ad836133a86002613cd6565b613e69565b90506133da817f636f6c6f7200000000000000000000000000000000000000000000000000000084612f87565b6133e3816140a1565b505050565b6060600460010180548060200260200160405190810160405280929190818152602001828054801561343957602002820191906000526020600020905b815481526020019060010190808311613425575b5050505050905090565b600260009054906101000a900473ffffffffffffffffffffffffffffffffffffffff1681565b600060036000838152602001908152602001600020549050919050565b600160009054906101000a900473ffffffffffffffffffffffffffffffffffffffff1673ffffffffffffffffffffffffffffffffffffffff166134c7613a12565b73ffffffffffffffffffffffffffffffffffffffff1614613533576040517f08c379a000000000000000000000000000000000000000000000000000000000815260040180806020018281038252602a815260200180614a27602a913960400191505060405180910390fd5b61354781601d613a1a90919063ffffffff16565b156135ba576040517f08c379a00000000000000000000000000000000000000000000000000000000081526004018080602001828103825260198152602001807f4d61696e7461696e657220616c72656164792065786973742e0000000000000081525060200191505060405180910390fd5b6135ce81601d613ae690919063ffffffff16565b50565b6135d9613a12565b73ffffffffffffffffffffffffffffffffffffffff166000809054906101000a900473ffffffffffffffffffffffffffffffffffffffff1673ffffffffffffffffffffffffffffffffffffffff161461369a576040517f08c379a00000000000000000000000000000000000000000000000000000000081526004018080602001828103825260208152602001807f4f776e61626c653a2063616c6c6572206973206e6f7420746865206f776e657281525060200191505060405180910390fd5b600073ffffffffffffffffffffffffffffffffffffffff168173ffffffffffffffffffffffffffffffffffffffff161415613720576040517f08c379a00000000000000000000000000000000000000000000000000000000081526004018080602001828103825260268152602001806149816026913960400191505060405180910390fd5b8073ffffffffffffffffffffffffffffffffffffffff166000809054906101000a900473ffffffffffffffffffffffffffffffffffffffff1673ffffffffffffffffffffffffffffffffffffffff167f8be0079c531659141344cd1fd0a4f28419497f9722a3daafe3b4186f6b6457e060405160405180910390a3806000806101000a81548173ffffffffffffffffffffffffffffffffffffffff021916908373ffffffffffffffffffffffffffffffffffffffff16021790555050565b60006137f48260076139be90919063ffffffff16565b613866576040517f08c379a00000000000000000000000000000000000000000000000000000000081526004018080602001828103825260138152602001807f5461736b20646f65736e27742065786973742e0000000000000000000000000081525060200191505060405180910390fd5b6000600a6000848152602001908152602001600020600301541415806138a257506001600a600084815260200190815260200160002060030154145b156138b057600190506138b5565b600090505b919050565b6138c2613a12565b73ffffffffffffffffffffffffffffffffffffffff166000809054906101000a900473ffffffffffffffffffffffffffffffffffffffff1673ffffffffffffffffffffffffffffffffffffffff1614613983576040517f08c379a00000000000000000000000000000000000000000000000000000000081526004018080602001828103825260208152602001807f4f776e61626c653a2063616c6c6572206973206e6f7420746865206f776e657281525060200191505060405180910390fd5b80600481111561398f57fe5b7fc456bf1769220afbee617f618ca674e78fd1cf51d5b5e89f10c81b8a517aae5f60405160405180910390a250565b600080836001018054905014156139d85760009050613a0c565b818360010184600001600085815260200190815260200160002054815481106139fd57fe5b90600052602060002001541490505b92915050565b600033905090565b60008083600101805490501415613a345760009050613ae0565b8173ffffffffffffffffffffffffffffffffffffffff16836001018460000160008573ffffffffffffffffffffffffffffffffffffffff1673ffffffffffffffffffffffffffffffffffffffff1681526020019081526020016000205481548110613a9b57fe5b9060005260206000200160009054906101000a900473ffffffffffffffffffffffffffffffffffffffff1673ffffffffffffffffffffffffffffffffffffffff161490505b92915050565b613af08282613a1a565b15613b46576040517f08c379a000000000000000000000000000000000000000000000000000000000815260040180806020018281038252602a815260200180614afa602a913960400191505060405180910390fd5b81600101819080600181540180825580915050600190039060005260206000200160009091909190916101000a81548173ffffffffffffffffffffffffffffffffffffffff021916908373ffffffffffffffffffffffffffffffffffffffff16021790555060018260010180549050038260000160008373ffffffffffffffffffffffffffffffffffffffff1673ffffffffffffffffffffffffffffffffffffffff168152602001908152602001600020819055505050565b6001816000016000828254019250508190555050565b600081600001549050919050565b613c2d82826139be565b15613c83576040517f08c379a0000000000000000000000000000000000000000000000000000000008152600401808060200182810382526027815260200180614a516027913960400191505060405180910390fd5b816001018190806001815401808255809150506001900390600052602060002001600090919091909150556001826001018054905003826000016000838152602001908152602001600020819055505050565b60606004826003811115613ce657fe5b60ff161115613cf457600080fd5b816003811115613d0057fe5b60006003811115613d0d57fe5b1415613d50576040518060400160405280600e81526020017f4665746368436f6e7461696e65720000000000000000000000000000000000008152509050613e64565b816003811115613d5c57fe5b60016003811115613d6957fe5b1415613dac576040518060400160405280600e81526020017f53746f7265436f6e7461696e65720000000000000000000000000000000000008152509050613e64565b816003811115613db857fe5b600380811115613dc457fe5b1415613e07576040518060400160405280600781526020017f53746f72655742000000000000000000000000000000000000000000000000008152509050613e64565b816003811115613e1357fe5b60026003811115613e2057fe5b1415613e63576040518060400160405280600781526020017f46657463685742000000000000000000000000000000000000000000000000008152509050613e64565b5b919050565b6000613e86613e76613a12565b601b613a1a90919063ffffffff16565b80613ee55750600160009054906101000a900473ffffffffffffffffffffffffffffffffffffffff1673ffffffffffffffffffffffffffffffffffffffff16613ecd613a12565b73ffffffffffffffffffffffffffffffffffffffff16145b613f3a576040517f08c379a0000000000000000000000000000000000000000000000000000000008152600401808060200182810382526034815260200180614a9c6034913960400191505060405180910390fd5b613f446006613bff565b6000613f506006613c15565b9050613f66816007613c2390919063ffffffff16565b6000600a6000838152602001908152602001600020905083816001019080519060200190613f959291906148db565b50848160000160006101000a81548173ffffffffffffffffffffffffffffffffffffffff021916908373ffffffffffffffffffffffffffffffffffffffff160217905550600073ffffffffffffffffffffffffffffffffffffffff168573ffffffffffffffffffffffffffffffffffffffff161461409657600960008673ffffffffffffffffffffffffffffffffffffffff1673ffffffffffffffffffffffffffffffffffffffff16815260200190815260200160002082908060018154018082558091505060019003906000526020600020016000909190919091505561408785600b613a1a90919063ffffffff16565b61409557614094856147d8565b5b5b819250505092915050565b6140bc6140ac613a12565b601b613a1a90919063ffffffff16565b8061411b5750600160009054906101000a900473ffffffffffffffffffffffffffffffffffffffff1673ffffffffffffffffffffffffffffffffffffffff16614103613a12565b73ffffffffffffffffffffffffffffffffffffffff16145b614170576040517f08c379a0000000000000000000000000000000000000000000000000000000008152600401808060200182810382526034815260200180614a9c6034913960400191505060405180910390fd5b6141848160076139be90919063ffffffff16565b6141f6576040517f08c379a00000000000000000000000000000000000000000000000000000000081526004018080602001828103825260138152602001807f5461736b20646f65736e27742065786973742e0000000000000000000000000081525060200191505060405180910390fd5b6000600a60008381526020019081526020016000206002015414614282576040517f08c379a00000000000000000000000000000000000000000000000000000000081526004018080602001828103825260158152602001807f5461736b20616c726561647920737461727465642e000000000000000000000081525060200191505060405180910390fd5b42600a600083815260200190815260200160002060020181905550807fe243e4caa36ce8a33d3c02e5880146358bdb0c26b5a2f6b273cc205e7223f9f06142c883612175565b600a600085815260200190815260200160002060000160009054906101000a900473ffffffffffffffffffffffffffffffffffffffff1660405180806020018373ffffffffffffffffffffffffffffffffffffffff1673ffffffffffffffffffffffffffffffffffffffff168152602001828103825284818151815260200191508051906020019080838360005b83811015614371578082015181840152602081019050614356565b50505050905090810190601f16801561439e5780820380516001836020036101000a031916815260200191505b50935050505060405180910390a250565b600081600101805490509050919050565b6000600260009054906101000a900473ffffffffffffffffffffffffffffffffffffffff1673ffffffffffffffffffffffffffffffffffffffff16614403613a12565b73ffffffffffffffffffffffffffffffffffffffff161461446f576040517f08c379a0000000000000000000000000000000000000000000000000000000008152600401808060200182810382526024815260200180614a786024913960400191505060405180910390fd5b614479600f613bff565b6000614485600f613c15565b905061449b816010613c2390919063ffffffff16565b6000601260008381526020019081526020016000209050428160000181905550848160010160006101000a81548160ff021916908360048111156144db57fe5b021790555083816002018190555085816003018190555081925050509392505050565b6145088282613a1a565b61455d576040517f08c379a000000000000000000000000000000000000000000000000000000000815260040180806020018281038252602a8152602001806149fd602a913960400191505060405180910390fd5b6000600161456a84614876565b03905060008360000160008473ffffffffffffffffffffffffffffffffffffffff1673ffffffffffffffffffffffffffffffffffffffff1681526020019081526020016000205490508181146146985760008460010183815481106145cb57fe5b9060005260206000200160009054906101000a900473ffffffffffffffffffffffffffffffffffffffff169050818560000160008373ffffffffffffffffffffffffffffffffffffffff1673ffffffffffffffffffffffffffffffffffffffff168152602001908152602001600020819055508085600101838154811061464e57fe5b9060005260206000200160006101000a81548173ffffffffffffffffffffffffffffffffffffffff021916908373ffffffffffffffffffffffffffffffffffffffff160217905550505b8360000160008473ffffffffffffffffffffffffffffffffffffffff1673ffffffffffffffffffffffffffffffffffffffff16815260200190815260200160002060009055836001018054806146ea57fe5b6001900381819060005260206000200160006101000a81549073ffffffffffffffffffffffffffffffffffffffff0219169055905550505050565b61472f8282614887565b15614785576040517f08c379a000000000000000000000000000000000000000000000000000000000815260040180806020018281038252602a815260200180614ad0602a913960400191505060405180910390fd5b816001018190806001815401808255809150506001900390600052602060002001600090919091909150556001826001018054905003826000016000838152602001908152602001600020819055505050565b6147ec81600b613a1a90919063ffffffff16565b1561485f576040517f08c379a00000000000000000000000000000000000000000000000000000000081526004018080602001828103825260178152602001807f50726f6475637420616c7265616479206578697374732e00000000000000000081525060200191505060405180910390fd5b61487381600b613ae690919063ffffffff16565b50565b600081600101805490509050919050565b600080836001018054905014156148a157600090506148d5565b818360010184600001600085815260200190815260200160002054815481106148c657fe5b90600052602060002001541490505b92915050565b828054600181600116156101000203166002900490600052602060002090601f016020900481019282601f1061491c57805160ff191683800117855561494a565b8280016001018555821561494a579182015b8281111561494957825182559160200191906001019061492e565b5b509050614957919061495b565b5090565b61497d91905b80821115614979576000816000905550600101614961565b5090565b9056fe4f776e61626c653a206e6577206f776e657220697320746865207a65726f20616464726573734d61696e74656e616e63654f7065726174696f6e20646f65736e27742065786973742e4f6e6c7920617574686f72697a6564206d61696e7461696e6572732063616e2063616c6c20746869732066756e6374696f6e2e416464726573735365743a206b657920646f6573206e6f7420657869737420696e20746865207365742e4f6e6c79206d616368696e65206f776e65722063616e2063616c6c20746869732066756e6374696f6e2e55696e745365743a206b657920616c72656164792065786973747320696e20746865207365742e4f6e6c79206d616368696e652063616e2063616c6c20746869732066756e6374696f6e2e4f6e6c7920617574686f72697a6564206d616e7566616374757265732063616e2063616c6c20746869732066756e6374696f6e2e427974657333325365743a206b657920616c72656164792065786973747320696e20746865207365742e416464726573735365743a206b657920616c72656164792065786973747320696e20746865207365742ea2646970667358221220971ae203945853a349bb35dd896df0059debdec0da6b902ea2eb36633d333aea64736f6c634300060a0033",
  "immutableReferences": {},
  "source": "// SPDX-License-Identifier: MIT\npragma solidity >=0.4.21 <0.7.0;\n\nimport \"./Machine.sol\";\n\ncontract HBW is Machine {\n\n    constructor(address _machineOwner, address _machineID) Machine(_machineOwner, _machineID) public {}\n\n    enum TasksNames { FetchContainer, StoreContainer, FetchWB, StoreWB }\n\n    function getTaskName(TasksNames taskName) internal pure returns (string memory) {\n        require(uint8(taskName) <= 4);\n        if (TasksNames.FetchContainer == taskName) return \"FetchContainer\";\n        if (TasksNames.StoreContainer == taskName) return \"StoreContainer\";\n        if (TasksNames.StoreWB == taskName) return \"StoreWB\";\n        if (TasksNames.FetchWB == taskName) return \"FetchWB\";\n    }\n\n    function fetchContainer(address productID) public {\n        uint newTaskID = super.createTask(productID, getTaskName(TasksNames.FetchContainer));\n        super.startTask(newTaskID);\n    }\n\n    function storeWB(address productID, string memory id, string memory color) public {\n        uint newTaskID = super.createTask(productID, getTaskName(TasksNames.StoreWB));\n        super.saveInput(newTaskID, \"id\", id);\n        super.saveInput(newTaskID, \"color\", color);\n        super.startTask(newTaskID);\n    }\n\n    function fetchWB(address productID, string memory color) public {\n        uint newTaskID = super.createTask(productID, getTaskName(TasksNames.FetchWB));\n        super.saveInput(newTaskID, \"color\", color);\n        super.startTask(newTaskID);\n    }\n\n    function storeContainer(address productID) public {\n        uint newTaskID = super.createTask(productID, getTaskName(TasksNames.StoreContainer));\n        super.startTask(newTaskID);\n    }\n\n    function saveReadingHBW(uint taskID, ReadingType readingType, int readingValue) public {\n        super.saveReading(taskID, readingType, readingValue);\n    }\n}",
  "sourcePath": "/Users/mohammadghanem/Desktop/studious-enigma/contracts/machines/HBW.sol",
  "compiler": {
    "name": "solc",
    "version": "0.6.10+commit.00c0fcaf.Emscripten.clang"
  },
  "schemaVersion": "3.2.3",
  "updatedAt": "2020-09-22T09:47:18.008Z",
  "networkType": "ethereum",
  "devdoc": {
    "methods": {
      "owner()": {
        "details": "Returns the address of the current owner."
      },
      "renounceOwnership()": {
        "details": "Leaves the contract without owner. It will not be possible to call `onlyOwner` functions anymore. Can only be called by the current owner. NOTE: Renouncing ownership will leave the contract without an owner, thereby removing any functionality that is only available to the owner."
      },
      "transferOwnership(address)": {
        "details": "Transfers ownership of the contract to a new account (`newOwner`). Can only be called by the current owner."
      }
    }
  },
  "userdoc": {
    "methods": {}
  }
}