{
  "contractName": "MPO",
  "abi": [
    {
      "inputs": [
        {
          "internalType": "address",
          "name": "_machineOwner",
          "type": "address"
        },
        {
          "internalType": "address",
          "name": "_machineID",
          "type": "address"
        }
      ],
      "stateMutability": "nonpayable",
      "type": "constructor"
    },
    {
      "anonymous": false,
      "inputs": [
        {
          "indexed": true,
          "internalType": "uint256",
          "name": "issueID",
          "type": "uint256"
        },
        {
          "indexed": false,
          "internalType": "string",
          "name": "reason",
          "type": "string"
        },
        {
          "indexed": false,
          "internalType": "string",
          "name": "issueType",
          "type": "string"
        }
      ],
      "name": "NewIssue",
      "type": "event"
    },
    {
      "anonymous": false,
      "inputs": [
        {
          "indexed": true,
          "internalType": "uint256",
          "name": "maintenanceOperationID",
          "type": "uint256"
        },
        {
          "indexed": true,
          "internalType": "address",
          "name": "maintainer",
          "type": "address"
        },
        {
          "indexed": false,
          "internalType": "string",
          "name": "description",
          "type": "string"
        }
      ],
      "name": "NewMaintenanceOperation",
      "type": "event"
    },
    {
      "anonymous": false,
      "inputs": [
        {
          "indexed": true,
          "internalType": "enum Machine.ReadingType",
          "name": "readingType",
          "type": "uint8"
        }
      ],
      "name": "NewReading",
      "type": "event"
    },
    {
      "anonymous": false,
      "inputs": [
        {
          "indexed": true,
          "internalType": "uint256",
          "name": "taskID",
          "type": "uint256"
        },
        {
          "indexed": false,
          "internalType": "string",
          "name": "taskName",
          "type": "string"
        },
        {
          "indexed": false,
          "internalType": "address",
          "name": "productID",
          "type": "address"
        }
      ],
      "name": "NewTask",
      "type": "event"
    },
    {
      "anonymous": false,
      "inputs": [
        {
          "indexed": true,
          "internalType": "address",
          "name": "previousOwner",
          "type": "address"
        },
        {
          "indexed": true,
          "internalType": "address",
          "name": "newOwner",
          "type": "address"
        }
      ],
      "name": "OwnershipTransferred",
      "type": "event"
    },
    {
      "anonymous": false,
      "inputs": [
        {
          "indexed": true,
          "internalType": "uint256",
          "name": "taskID",
          "type": "uint256"
        },
        {
          "indexed": false,
          "internalType": "string",
          "name": "taskName",
          "type": "string"
        },
        {
          "indexed": false,
          "internalType": "address",
          "name": "productID",
          "type": "address"
        }
      ],
      "name": "TaskFinished",
      "type": "event"
    },
    {
      "inputs": [
        {
          "internalType": "address",
          "name": "maintainerAddress",
          "type": "address"
        }
      ],
      "name": "authorizeMaintainer",
      "outputs": [],
      "stateMutability": "nonpayable",
      "type": "function"
    },
    {
      "inputs": [
        {
          "internalType": "address",
          "name": "manufacturerAddress",
          "type": "address"
        }
      ],
      "name": "authorizeManufacturer",
      "outputs": [],
      "stateMutability": "nonpayable",
      "type": "function"
    },
    {
      "inputs": [
        {
          "internalType": "address",
          "name": "maintainerAddress",
          "type": "address"
        }
      ],
      "name": "deauthorizeMaintainer",
      "outputs": [],
      "stateMutability": "nonpayable",
      "type": "function"
    },
    {
      "inputs": [
        {
          "internalType": "address",
          "name": "manufacturerAddress",
          "type": "address"
        }
      ],
      "name": "deauthorizeManufacturer",
      "outputs": [],
      "stateMutability": "nonpayable",
      "type": "function"
    },
    {
      "inputs": [
        {
          "internalType": "uint256",
          "name": "taskID",
          "type": "uint256"
        }
      ],
      "name": "finishTask",
      "outputs": [],
      "stateMutability": "nonpayable",
      "type": "function"
    },
    {
      "inputs": [
        {
          "internalType": "uint256",
          "name": "issueID",
          "type": "uint256"
        }
      ],
      "name": "getIssue",
      "outputs": [
        {
          "internalType": "uint256",
          "name": "",
          "type": "uint256"
        },
        {
          "internalType": "uint256",
          "name": "",
          "type": "uint256"
        },
        {
          "internalType": "string",
          "name": "",
          "type": "string"
        },
        {
          "internalType": "string",
          "name": "",
          "type": "string"
        }
      ],
      "stateMutability": "view",
      "type": "function",
      "constant": true
    },
    {
      "inputs": [],
      "name": "getIssuesCount",
      "outputs": [
        {
          "internalType": "uint256",
          "name": "",
          "type": "uint256"
        }
      ],
      "stateMutability": "view",
      "type": "function",
      "constant": true
    },
    {
      "inputs": [],
      "name": "getMachineID",
      "outputs": [
        {
          "internalType": "address",
          "name": "",
          "type": "address"
        }
      ],
      "stateMutability": "view",
      "type": "function",
      "constant": true
    },
    {
      "inputs": [
        {
          "internalType": "bytes32",
          "name": "infoName",
          "type": "bytes32"
        }
      ],
      "name": "getMachineInfo",
      "outputs": [
        {
          "internalType": "bytes32",
          "name": "",
          "type": "bytes32"
        }
      ],
      "stateMutability": "view",
      "type": "function",
      "constant": true
    },
    {
      "inputs": [],
      "name": "getMachineInfoNames",
      "outputs": [
        {
          "internalType": "bytes32[]",
          "name": "",
          "type": "bytes32[]"
        }
      ],
      "stateMutability": "view",
      "type": "function",
      "constant": true
    },
    {
      "inputs": [],
      "name": "getMachineOwner",
      "outputs": [
        {
          "internalType": "address",
          "name": "",
          "type": "address"
        }
      ],
      "stateMutability": "view",
      "type": "function",
      "constant": true
    },
    {
      "inputs": [
        {
          "internalType": "uint256",
          "name": "maintenanceOperationID",
          "type": "uint256"
        }
      ],
      "name": "getMaintenanceOperation",
      "outputs": [
        {
          "internalType": "uint256",
          "name": "",
          "type": "uint256"
        },
        {
          "internalType": "address",
          "name": "",
          "type": "address"
        },
        {
          "internalType": "string",
          "name": "",
          "type": "string"
        }
      ],
      "stateMutability": "view",
      "type": "function",
      "constant": true
    },
    {
      "inputs": [],
      "name": "getMaintenanceOperationsCount",
      "outputs": [
        {
          "internalType": "uint256",
          "name": "",
          "type": "uint256"
        }
      ],
      "stateMutability": "view",
      "type": "function",
      "constant": true
    },
    {
      "inputs": [
        {
          "internalType": "enum Machine.ReadingType",
          "name": "readingType",
          "type": "uint8"
        }
      ],
      "name": "getNewReading",
      "outputs": [],
      "stateMutability": "nonpayable",
      "type": "function"
    },
    {
      "inputs": [
        {
          "internalType": "uint256",
          "name": "taskID",
          "type": "uint256"
        }
      ],
      "name": "getProductID",
      "outputs": [
        {
          "internalType": "address",
          "name": "",
          "type": "address"
        }
      ],
      "stateMutability": "view",
      "type": "function",
      "constant": true
    },
    {
      "inputs": [
        {
          "internalType": "address",
          "name": "productID",
          "type": "address"
        },
        {
          "internalType": "bytes32",
          "name": "operationName",
          "type": "bytes32"
        }
      ],
      "name": "getProductOperationValue",
      "outputs": [
        {
          "internalType": "string",
          "name": "",
          "type": "string"
        }
      ],
      "stateMutability": "view",
      "type": "function",
      "constant": true
    },
    {
      "inputs": [
        {
          "internalType": "address",
          "name": "productID",
          "type": "address"
        }
      ],
      "name": "getProductOperations",
      "outputs": [
        {
          "internalType": "bytes32[]",
          "name": "",
          "type": "bytes32[]"
        }
      ],
      "stateMutability": "view",
      "type": "function",
      "constant": true
    },
    {
      "inputs": [
        {
          "internalType": "address",
          "name": "productID",
          "type": "address"
        }
      ],
      "name": "getProductTasks",
      "outputs": [
        {
          "internalType": "uint256[]",
          "name": "",
          "type": "uint256[]"
        }
      ],
      "stateMutability": "view",
      "type": "function",
      "constant": true
    },
    {
      "inputs": [
        {
          "internalType": "uint256",
          "name": "readingID",
          "type": "uint256"
        }
      ],
      "name": "getReading",
      "outputs": [
        {
          "internalType": "uint256",
          "name": "",
          "type": "uint256"
        },
        {
          "internalType": "enum Machine.ReadingType",
          "name": "",
          "type": "uint8"
        },
        {
          "internalType": "int256",
          "name": "",
          "type": "int256"
        },
        {
          "internalType": "uint256",
          "name": "",
          "type": "uint256"
        }
      ],
      "stateMutability": "view",
      "type": "function",
      "constant": true
    },
    {
      "inputs": [],
      "name": "getReadingsCount",
      "outputs": [
        {
          "internalType": "uint256",
          "name": "",
          "type": "uint256"
        }
      ],
      "stateMutability": "view",
      "type": "function",
      "constant": true
    },
    {
      "inputs": [
        {
          "internalType": "uint256",
          "name": "taskID",
          "type": "uint256"
        }
      ],
      "name": "getTask",
      "outputs": [
        {
          "internalType": "address",
          "name": "",
          "type": "address"
        },
        {
          "internalType": "string",
          "name": "",
          "type": "string"
        },
        {
          "internalType": "uint256",
          "name": "",
          "type": "uint256"
        },
        {
          "internalType": "uint256",
          "name": "",
          "type": "uint256"
        },
        {
          "internalType": "bytes32[]",
          "name": "",
          "type": "bytes32[]"
        }
      ],
      "stateMutability": "view",
      "type": "function",
      "constant": true
    },
    {
      "inputs": [
        {
          "internalType": "uint256",
          "name": "taskID",
          "type": "uint256"
        },
        {
          "internalType": "bytes32",
          "name": "inputName",
          "type": "bytes32"
        }
      ],
      "name": "getTaskInput",
      "outputs": [
        {
          "internalType": "string",
          "name": "",
          "type": "string"
        }
      ],
      "stateMutability": "view",
      "type": "function",
      "constant": true
    },
    {
      "inputs": [],
      "name": "getTasksCount",
      "outputs": [
        {
          "internalType": "uint256",
          "name": "",
          "type": "uint256"
        }
      ],
      "stateMutability": "view",
      "type": "function",
      "constant": true
    },
    {
      "inputs": [
        {
          "internalType": "bytes32",
          "name": "",
          "type": "bytes32"
        }
      ],
      "name": "info",
      "outputs": [
        {
          "internalType": "bytes32",
          "name": "",
          "type": "bytes32"
        }
      ],
      "stateMutability": "view",
      "type": "function",
      "constant": true
    },
    {
      "inputs": [
        {
          "internalType": "uint256",
          "name": "taskID",
          "type": "uint256"
        }
      ],
      "name": "isTaskFinished",
      "outputs": [
        {
          "internalType": "bool",
          "name": "",
          "type": "bool"
        }
      ],
      "stateMutability": "view",
      "type": "function",
      "constant": true
    },
    {
      "inputs": [
        {
          "internalType": "uint256",
          "name": "taskID",
          "type": "uint256"
        }
      ],
      "name": "killTask",
      "outputs": [],
      "stateMutability": "nonpayable",
      "type": "function"
    },
    {
      "inputs": [],
      "name": "machineID",
      "outputs": [
        {
          "internalType": "address",
          "name": "",
          "type": "address"
        }
      ],
      "stateMutability": "view",
      "type": "function",
      "constant": true
    },
    {
      "inputs": [],
      "name": "machineOwner",
      "outputs": [
        {
          "internalType": "address",
          "name": "",
          "type": "address"
        }
      ],
      "stateMutability": "view",
      "type": "function",
      "constant": true
    },
    {
      "inputs": [],
      "name": "owner",
      "outputs": [
        {
          "internalType": "address",
          "name": "",
          "type": "address"
        }
      ],
      "stateMutability": "view",
      "type": "function",
      "constant": true
    },
    {
      "inputs": [],
      "name": "renounceOwnership",
      "outputs": [],
      "stateMutability": "nonpayable",
      "type": "function"
    },
    {
      "inputs": [
        {
          "internalType": "uint256",
          "name": "taskID",
          "type": "uint256"
        },
        {
          "internalType": "bytes32",
          "name": "inputName",
          "type": "bytes32"
        },
        {
          "internalType": "string",
          "name": "inputValue",
          "type": "string"
        }
      ],
      "name": "saveInput",
      "outputs": [],
      "stateMutability": "nonpayable",
      "type": "function"
    },
    {
      "inputs": [
        {
          "internalType": "bytes32",
          "name": "infoName",
          "type": "bytes32"
        },
        {
          "internalType": "bytes32",
          "name": "infoValue",
          "type": "bytes32"
        }
      ],
      "name": "saveMachineInfo",
      "outputs": [],
      "stateMutability": "nonpayable",
      "type": "function"
    },
    {
      "inputs": [
        {
          "internalType": "string",
          "name": "description",
          "type": "string"
        }
      ],
      "name": "saveMaintenanceOperation",
      "outputs": [
        {
          "internalType": "uint256",
          "name": "",
          "type": "uint256"
        }
      ],
      "stateMutability": "nonpayable",
      "type": "function"
    },
    {
      "inputs": [
        {
          "internalType": "address",
          "name": "productID",
          "type": "address"
        },
        {
          "internalType": "bytes32",
          "name": "operationName",
          "type": "bytes32"
        },
        {
          "internalType": "string",
          "name": "operationValue",
          "type": "string"
        }
      ],
      "name": "saveProductOperation",
      "outputs": [],
      "stateMutability": "nonpayable",
      "type": "function"
    },
    {
      "inputs": [
        {
          "internalType": "address",
          "name": "newOwner",
          "type": "address"
        }
      ],
      "name": "transferOwnership",
      "outputs": [],
      "stateMutability": "nonpayable",
      "type": "function"
    },
    {
      "inputs": [
        {
          "internalType": "uint256",
          "name": "taskID",
          "type": "uint256"
        }
      ],
      "name": "getTaskName",
      "outputs": [
        {
          "internalType": "string",
          "name": "",
          "type": "string"
        }
      ],
      "stateMutability": "view",
      "type": "function",
      "constant": true
    },
    {
      "inputs": [
        {
          "internalType": "address",
          "name": "productID",
          "type": "address"
        }
      ],
      "name": "process",
      "outputs": [],
      "stateMutability": "nonpayable",
      "type": "function"
    },
    {
      "inputs": [
        {
          "internalType": "uint256",
          "name": "taskID",
          "type": "uint256"
        }
      ],
      "name": "finishProcessing",
      "outputs": [],
      "stateMutability": "nonpayable",
      "type": "function"
    },
    {
      "inputs": [
        {
          "internalType": "uint256",
          "name": "taskID",
          "type": "uint256"
        },
        {
          "internalType": "enum Machine.ReadingType",
          "name": "readingType",
          "type": "uint8"
        },
        {
          "internalType": "int256",
          "name": "readingValue",
          "type": "int256"
        }
      ],
      "name": "saveReadingMPO",
      "outputs": [],
      "stateMutability": "nonpayable",
      "type": "function"
    }
  ],
  "bytecode": "0x60806040523480156200001157600080fd5b506040516200489038038062004890833981810160405260408110156200003757600080fd5b81019080805190602001909291908051906020019092919050505081816000620000666200019060201b60201c565b9050806000806101000a81548173ffffffffffffffffffffffffffffffffffffffff021916908373ffffffffffffffffffffffffffffffffffffffff1602179055508073ffffffffffffffffffffffffffffffffffffffff16600073ffffffffffffffffffffffffffffffffffffffff167f8be0079c531659141344cd1fd0a4f28419497f9722a3daafe3b4186f6b6457e060405160405180910390a35081600160006101000a81548173ffffffffffffffffffffffffffffffffffffffff021916908373ffffffffffffffffffffffffffffffffffffffff16021790555080600260006101000a81548173ffffffffffffffffffffffffffffffffffffffff021916908373ffffffffffffffffffffffffffffffffffffffff1602179055505050505062000198565b600033905090565b6146e880620001a86000396000f3fe608060405234801561001057600080fd5b506004361061023c5760003560e01c80638da5cb5b1161013b578063c0b4621a116100b8578063ee19dc851161007c578063ee19dc85146110c3578063f074499614611107578063f2fde38b1461114c578063f756095214611190578063ffd7bb5e146111d65761023c565b8063c0b4621a14610f09578063c0ddec4214610fba578063cef27d8214610fd8578063d4c3a63214611037578063ed210f99146110815761023c565b8063b3620b36116100ff578063b3620b3614610d38578063b64a097e14610d7c578063b7ff3bba14610dbe578063b9e6152b14610e8d578063bd98acd014610ed15761023c565b80638da5cb5b14610b21578063976b311314610b6b5780639f89927314610c8c578063abc06f8514610caa578063abeff4dd14610cf45761023c565b806344a63efa116101c95780636ac740d01161018d5780636ac740d014610a03578063715018a614610a4d5780637eed8e9f14610a575780637f4f773c14610ac5578063842178b214610af35761023c565b806344a63efa146107f15780634eed50f5146108d657806350b5944714610920578063546457b31461093e57806356755b131461095c5761023c565b806315d2d40c1161021057806315d2d40c1461049a5780631d65e77e1461053357806326966382146106635780632a861d341461072a57806341837fab146107c35761023c565b806287a78814610241578063089e1b39146102a657806308dd5cfe146102ea57806311f47ab9146103b9575b600080fd5b61026d6004803603602081101561025757600080fd5b8101908080359060200190929190505050611207565b6040518085815260200184600481111561028357fe5b60ff16815260200183815260200182815260200194505050505060405180910390f35b6102e8600480360360208110156102bc57600080fd5b81019080803573ffffffffffffffffffffffffffffffffffffffff16906020019092919050505061130b565b005b6103a36004803603602081101561030057600080fd5b810190808035906020019064010000000081111561031d57600080fd5b82018360208201111561032f57600080fd5b8035906020019184600183028401116401000000008311171561035157600080fd5b91908080601f016020809104026020016040519081016040528093929190818152602001838380828437600081840152601f19601f820116905080830192505050505050509192919290505050611456565b6040518082815260200191505060405180910390f35b6103e5600480360360208110156103cf57600080fd5b810190808035906020019092919050505061169b565b604051808481526020018373ffffffffffffffffffffffffffffffffffffffff1673ffffffffffffffffffffffffffffffffffffffff16815260200180602001828103825283818151815260200191508051906020019080838360005b8381101561045d578082015181840152602081019050610442565b50505050905090810190601f16801561048a5780820380516001836020036101000a031916815260200191505b5094505050505060405180910390f35b6104dc600480360360208110156104b057600080fd5b81019080803573ffffffffffffffffffffffffffffffffffffffff169060200190929190505050611816565b6040518080602001828103825283818151815260200191508051906020019060200280838360005b8381101561051f578082015181840152602081019050610504565b505050509050019250505060405180910390f35b61055f6004803603602081101561054957600080fd5b81019080803590602001909291905050506118ad565b604051808673ffffffffffffffffffffffffffffffffffffffff1673ffffffffffffffffffffffffffffffffffffffff1681526020018060200185815260200184815260200180602001838103835287818151815260200191508051906020019080838360005b838110156105e15780820151818401526020810190506105c6565b50505050905090810190601f16801561060e5780820380516001836020036101000a031916815260200191505b50838103825284818151815260200191508051906020019060200280838360005b8381101561064a57808201518184015260208101905061062f565b5050505090500197505050505050505060405180910390f35b6106af6004803603604081101561067957600080fd5b81019080803573ffffffffffffffffffffffffffffffffffffffff16906020019092919080359060200190929190505050611ace565b6040518080602001828103825283818151815260200191508051906020019080838360005b838110156106ef5780820151818401526020810190506106d4565b50505050905090810190601f16801561071c5780820380516001836020036101000a031916815260200191505b509250505060405180910390f35b61076c6004803603602081101561074057600080fd5b81019080803573ffffffffffffffffffffffffffffffffffffffff169060200190929190505050611c47565b6040518080602001828103825283818151815260200191508051906020019060200280838360005b838110156107af578082015181840152602081019050610794565b505050509050019250505060405180910390f35b6107ef600480360360208110156107d957600080fd5b8101908080359060200190929190505050611cde565b005b6108d46004803603606081101561080757600080fd5b81019080803573ffffffffffffffffffffffffffffffffffffffff169060200190929190803590602001909291908035906020019064010000000081111561084e57600080fd5b82018360208201111561086057600080fd5b8035906020019184600183028401116401000000008311171561088257600080fd5b91908080601f016020809104026020016040519081016040528093929190818152602001838380828437600081840152601f19601f820116905080830192505050505050509192919290505050611cea565b005b6108de611e40565b604051808273ffffffffffffffffffffffffffffffffffffffff1673ffffffffffffffffffffffffffffffffffffffff16815260200191505060405180910390f35b610928611e6a565b6040518082815260200191505060405180910390f35b610946611e7b565b6040518082815260200191505060405180910390f35b6109886004803603602081101561097257600080fd5b8101908080359060200190929190505050611e8c565b6040518080602001828103825283818151815260200191508051906020019080838360005b838110156109c85780820151818401526020810190506109ad565b50505050905090810190601f1680156109f55780820380516001836020036101000a031916815260200191505b509250505060405180910390f35b610a0b611fca565b604051808273ffffffffffffffffffffffffffffffffffffffff1673ffffffffffffffffffffffffffffffffffffffff16815260200191505060405180910390f35b610a55611ff4565b005b610a8360048036036020811015610a6d57600080fd5b810190808035906020019092919050505061217c565b604051808273ffffffffffffffffffffffffffffffffffffffff1673ffffffffffffffffffffffffffffffffffffffff16815260200191505060405180910390f35b610af160048036036020811015610adb57600080fd5b8101908080359060200190929190505050612242565b005b610b1f60048036036020811015610b0957600080fd5b8101908080359060200190929190505050612420565b005b610b2961270c565b604051808273ffffffffffffffffffffffffffffffffffffffff1673ffffffffffffffffffffffffffffffffffffffff16815260200191505060405180910390f35b610b9760048036036020811015610b8157600080fd5b8101908080359060200190929190505050612735565b604051808581526020018481526020018060200180602001838103835285818151815260200191508051906020019080838360005b83811015610be7578082015181840152602081019050610bcc565b50505050905090810190601f168015610c145780820380516001836020036101000a031916815260200191505b50838103825284818151815260200191508051906020019080838360005b83811015610c4d578082015181840152602081019050610c32565b50505050905090810190601f168015610c7a5780820380516001836020036101000a031916815260200191505b50965050505050505060405180910390f35b610c94612962565b6040518082815260200191505060405180910390f35b610cb2612973565b604051808273ffffffffffffffffffffffffffffffffffffffff1673ffffffffffffffffffffffffffffffffffffffff16815260200191505060405180910390f35b610d3660048036036020811015610d0a57600080fd5b81019080803573ffffffffffffffffffffffffffffffffffffffff169060200190929190505050612999565b005b610d7a60048036036020811015610d4e57600080fd5b81019080803573ffffffffffffffffffffffffffffffffffffffff169060200190929190505050612ae3565b005b610da860048036036020811015610d9257600080fd5b8101908080359060200190929190505050612c2d565b6040518082815260200191505060405180910390f35b610e8b60048036036060811015610dd457600080fd5b81019080803590602001909291908035906020019092919080359060200190640100000000811115610e0557600080fd5b820183602082011115610e1757600080fd5b80359060200191846001830284011164010000000083111715610e3957600080fd5b91908080601f016020809104026020016040519081016040528093929190818152602001838380828437600081840152601f19601f820116905080830192505050505050509192919290505050612c45565b005b610ecf60048036036020811015610ea357600080fd5b81019080803573ffffffffffffffffffffffffffffffffffffffff169060200190929190505050612e18565b005b610f0760048036036040811015610ee757600080fd5b810190808035906020019092919080359060200190929190505050612e3c565b005b610f3f60048036036040811015610f1f57600080fd5b810190808035906020019092919080359060200190929190505050612f19565b6040518080602001828103825283818151815260200191508051906020019080838360005b83811015610f7f578082015181840152602081019050610f64565b50505050905090810190601f168015610fac5780820380516001836020036101000a031916815260200191505b509250505060405180910390f35b610fc2613069565b6040518082815260200191505060405180910390f35b610fe061307a565b6040518080602001828103825283818151815260200191508051906020019060200280838360005b83811015611023578082015181840152602081019050611008565b505050509050019250505060405180910390f35b61103f6130d5565b604051808273ffffffffffffffffffffffffffffffffffffffff1673ffffffffffffffffffffffffffffffffffffffff16815260200191505060405180910390f35b6110ad6004803603602081101561109757600080fd5b81019080803590602001909291905050506130fb565b6040518082815260200191505060405180910390f35b611105600480360360208110156110d957600080fd5b81019080803573ffffffffffffffffffffffffffffffffffffffff169060200190929190505050613118565b005b61114a6004803603606081101561111d57600080fd5b8101908080359060200190929190803560ff16906020019092919080359060200190929190505050613263565b005b61118e6004803603602081101561116257600080fd5b81019080803573ffffffffffffffffffffffffffffffffffffffff169060200190929190505050613274565b005b6111bc600480360360208110156111a657600080fd5b8101908080359060200190929190505050613481565b604051808215151515815260200191505060405180910390f35b611205600480360360208110156111ec57600080fd5b81019080803560ff16906020019092919050505061355d565b005b60008060008061122185601061366190919063ffffffff16565b611293576040517f08c379a00000000000000000000000000000000000000000000000000000000081526004018080602001828103825260168152602001807f52656164696e6720646f65736e27742065786973742e0000000000000000000081525060200191505060405180910390fd5b60126000868152602001908152602001600020600001546012600087815260200190815260200160002060010160009054906101000a900460ff166012600088815260200190815260200160002060020154601260008981526020019081526020016000206003015493509350935093509193509193565b600160009054906101000a900473ffffffffffffffffffffffffffffffffffffffff1673ffffffffffffffffffffffffffffffffffffffff1661134c6136b5565b73ffffffffffffffffffffffffffffffffffffffff16146113b8576040517f08c379a000000000000000000000000000000000000000000000000000000000815260040180806020018281038252602a8152602001806145b6602a913960400191505060405180910390fd5b6113cc81601b6136bd90919063ffffffff16565b1561143f576040517f08c379a000000000000000000000000000000000000000000000000000000000815260040180806020018281038252601b8152602001807f4d616e75666163747572657220616c72656164792065786973742e000000000081525060200191505060405180910390fd5b61145381601b61378990919063ffffffff16565b50565b60006114736114636136b5565b601d6136bd90919063ffffffff16565b806114d25750600160009054906101000a900473ffffffffffffffffffffffffffffffffffffffff1673ffffffffffffffffffffffffffffffffffffffff166114ba6136b5565b73ffffffffffffffffffffffffffffffffffffffff16145b611527576040517f08c379a00000000000000000000000000000000000000000000000000000000081526004018080602001828103825260338152602001806145596033913960400191505060405180910390fd5b61153160176138a2565b600061153d60176138b8565b90506115538160186138c690919063ffffffff16565b6000601a6000838152602001908152602001600020905042816000018190555061157b6136b5565b8160010160006101000a81548173ffffffffffffffffffffffffffffffffffffffff021916908373ffffffffffffffffffffffffffffffffffffffff160217905550838160020190805190602001906115d592919061446a565b506115de6136b5565b73ffffffffffffffffffffffffffffffffffffffff16827fdf898f82123c1d886ac510dab0606c18eb18e75ec238c4930cb278508fc2a445866040518080602001828103825283818151815260200191508051906020019080838360005b8381101561165757808201518184015260208101905061163c565b50505050905090810190601f1680156116845780820380516001836020036101000a031916815260200191505b509250505060405180910390a38192505050919050565b60008060606116b484601861366190919063ffffffff16565b611709576040517f08c379a00000000000000000000000000000000000000000000000000000000081526004018080602001828103825260238152602001806145366023913960400191505060405180910390fd5b601a600085815260200190815260200160002060000154601a600086815260200190815260200160002060010160009054906101000a900473ffffffffffffffffffffffffffffffffffffffff16601a6000878152602001908152602001600020600201808054600181600116156101000203166002900480601f0160208091040260200160405190810160405280929190818152602001828054600181600116156101000203166002900480156118025780601f106117d757610100808354040283529160200191611802565b820191906000526020600020905b8154815290600101906020018083116117e557829003601f168201915b505050505090509250925092509193909250565b6060600e60008373ffffffffffffffffffffffffffffffffffffffff1673ffffffffffffffffffffffffffffffffffffffff1681526020019081526020016000208054806020026020016040519081016040528092919081815260200182805480156118a157602002820191906000526020600020905b81548152602001906001019080831161188d575b50505050509050919050565b6000606060008060606118ca86600761366190919063ffffffff16565b61193c576040517f08c379a00000000000000000000000000000000000000000000000000000000081526004018080602001828103825260138152602001807f5461736b20646f65736e27742065786973742e0000000000000000000000000081525060200191505060405180910390fd5b600a600087815260200190815260200160002060000160009054906101000a900473ffffffffffffffffffffffffffffffffffffffff16600a6000888152602001908152602001600020600101600a600089815260200190815260200160002060020154600a60008a815260200190815260200160002060030154600a60008b8152602001908152602001600020600501838054600181600116156101000203166002900480601f016020809104026020016040519081016040528092919081815260200182805460018160011615610100020316600290048015611a625780601f10611a3757610100808354040283529160200191611a62565b820191906000526020600020905b815481529060010190602001808311611a4557829003601f168201915b5050505050935080805480602002602001604051908101604052809291908181526020018280548015611ab457602002820191906000526020600020905b815481526020019060010190808311611aa0575b505050505090509450945094509450945091939590929450565b6060611ae483600b6136bd90919063ffffffff16565b611b56576040517f08c379a00000000000000000000000000000000000000000000000000000000081526004018080602001828103825260168152602001807f50726f6475637420646f65736e27742065786973742e0000000000000000000081525060200191505060405180910390fd5b600d60008473ffffffffffffffffffffffffffffffffffffffff1673ffffffffffffffffffffffffffffffffffffffff16815260200190815260200160002060008381526020019081526020016000208054600181600116156101000203166002900480601f016020809104026020016040519081016040528092919081815260200182805460018160011615610100020316600290048015611c3a5780601f10611c0f57610100808354040283529160200191611c3a565b820191906000526020600020905b815481529060010190602001808311611c1d57829003601f168201915b5050505050905092915050565b6060600960008373ffffffffffffffffffffffffffffffffffffffff1673ffffffffffffffffffffffffffffffffffffffff168152602001908152602001600020805480602002602001604051908101604052809291908181526020018280548015611cd257602002820191906000526020600020905b815481526020019060010190808311611cbe575b50505050509050919050565b611ce781612420565b50565b611cfe83600b6136bd90919063ffffffff16565b611d70576040517f08c379a00000000000000000000000000000000000000000000000000000000081526004018080602001828103825260168152602001807f50726f6475637420646f65736e27742065786973742e0000000000000000000081525060200191505060405180910390fd5b80600d60008573ffffffffffffffffffffffffffffffffffffffff1673ffffffffffffffffffffffffffffffffffffffff16815260200190815260200160002060008481526020019081526020016000209080519060200190611dd492919061446a565b50600e60008473ffffffffffffffffffffffffffffffffffffffff1673ffffffffffffffffffffffffffffffffffffffff168152602001908152602001600020829080600181540180825580915050600190039060005260206000200160009091909190915055505050565b6000600260009054906101000a900473ffffffffffffffffffffffffffffffffffffffff16905090565b6000611e766014613979565b905090565b6000611e876010613979565b905090565b6060611ea282600761366190919063ffffffff16565b611f14576040517f08c379a00000000000000000000000000000000000000000000000000000000081526004018080602001828103825260138152602001807f5461736b20646f65736e27742065786973742e0000000000000000000000000081525060200191505060405180910390fd5b600a60008381526020019081526020016000206001018054600181600116156101000203166002900480601f016020809104026020016040519081016040528092919081815260200182805460018160011615610100020316600290048015611fbe5780601f10611f9357610100808354040283529160200191611fbe565b820191906000526020600020905b815481529060010190602001808311611fa157829003601f168201915b50505050509050919050565b6000600160009054906101000a900473ffffffffffffffffffffffffffffffffffffffff16905090565b611ffc6136b5565b73ffffffffffffffffffffffffffffffffffffffff166000809054906101000a900473ffffffffffffffffffffffffffffffffffffffff1673ffffffffffffffffffffffffffffffffffffffff16146120bd576040517f08c379a00000000000000000000000000000000000000000000000000000000081526004018080602001828103825260208152602001807f4f776e61626c653a2063616c6c6572206973206e6f7420746865206f776e657281525060200191505060405180910390fd5b600073ffffffffffffffffffffffffffffffffffffffff166000809054906101000a900473ffffffffffffffffffffffffffffffffffffffff1673ffffffffffffffffffffffffffffffffffffffff167f8be0079c531659141344cd1fd0a4f28419497f9722a3daafe3b4186f6b6457e060405160405180910390a360008060006101000a81548173ffffffffffffffffffffffffffffffffffffffff021916908373ffffffffffffffffffffffffffffffffffffffff160217905550565b600061219282600761366190919063ffffffff16565b612204576040517f08c379a00000000000000000000000000000000000000000000000000000000081526004018080602001828103825260138152602001807f5461736b20646f65736e27742065786973742e0000000000000000000000000081525060200191505060405180910390fd5b600a600083815260200190815260200160002060000160009054906101000a900473ffffffffffffffffffffffffffffffffffffffff169050919050565b600160009054906101000a900473ffffffffffffffffffffffffffffffffffffffff1673ffffffffffffffffffffffffffffffffffffffff166122836136b5565b73ffffffffffffffffffffffffffffffffffffffff16146122ef576040517f08c379a000000000000000000000000000000000000000000000000000000000815260040180806020018281038252602a8152602001806145b6602a913960400191505060405180910390fd5b61230381600761366190919063ffffffff16565b612375576040517f08c379a00000000000000000000000000000000000000000000000000000000081526004018080602001828103825260138152602001807f5461736b20646f65736e27742065786973742e0000000000000000000000000081525060200191505060405180910390fd5b6000600a60008381526020019081526020016000206003015414612401576040517f08c379a00000000000000000000000000000000000000000000000000000000081526004018080602001828103825260168152602001807f5461736b20616c72656164792066696e69736865642e0000000000000000000081525060200191505060405180910390fd5b6001600a60008381526020019081526020016000206003018190555050565b600260009054906101000a900473ffffffffffffffffffffffffffffffffffffffff1673ffffffffffffffffffffffffffffffffffffffff166124616136b5565b73ffffffffffffffffffffffffffffffffffffffff16146124cd576040517f08c379a00000000000000000000000000000000000000000000000000000000081526004018080602001828103825260248152602001806146076024913960400191505060405180910390fd5b6124e181600761366190919063ffffffff16565b612553576040517f08c379a00000000000000000000000000000000000000000000000000000000081526004018080602001828103825260138152602001807f5461736b20646f65736e27742065786973742e0000000000000000000000000081525060200191505060405180910390fd5b6000600a600083815260200190815260200160002060030154146125df576040517f08c379a00000000000000000000000000000000000000000000000000000000081526004018080602001828103825260168152602001807f5461736b20616c72656164792066696e69736865642e0000000000000000000081525060200191505060405180910390fd5b42600a600083815260200190815260200160002060030181905550807f2f73bc32a98ca6a02a0c153c827a9e28ce6bd37f9be254bab7bc582117511b1a61262583611e8c565b600a600085815260200190815260200160002060000160009054906101000a900473ffffffffffffffffffffffffffffffffffffffff1660405180806020018373ffffffffffffffffffffffffffffffffffffffff1673ffffffffffffffffffffffffffffffffffffffff168152602001828103825284818151815260200191508051906020019080838360005b838110156126ce5780820151818401526020810190506126b3565b50505050905090810190601f1680156126fb5780820380516001836020036101000a031916815260200191505b50935050505060405180910390a250565b60008060009054906101000a900473ffffffffffffffffffffffffffffffffffffffff16905090565b60008060608061274f85601461366190919063ffffffff16565b6127c1576040517f08c379a00000000000000000000000000000000000000000000000000000000081526004018080602001828103825260148152602001807f497373756520646f65736e27742065786973742e00000000000000000000000081525060200191505060405180910390fd5b601660008681526020019081526020016000206000015460166000878152602001908152602001600020600101546016600088815260200190815260200160002060020160166000898152602001908152602001600020600301818054600181600116156101000203166002900480601f0160208091040260200160405190810160405280929190818152602001828054600181600116156101000203166002900480156128b05780601f10612885576101008083540402835291602001916128b0565b820191906000526020600020905b81548152906001019060200180831161289357829003601f168201915b50505050509150808054600181600116156101000203166002900480601f01602080910402602001604051908101604052809291908181526020018280546001816001161561010002031660029004801561294c5780601f106129215761010080835404028352916020019161294c565b820191906000526020600020905b81548152906001019060200180831161292f57829003601f168201915b5050505050905093509350935093509193509193565b600061296e6007613979565b905090565b600160009054906101000a900473ffffffffffffffffffffffffffffffffffffffff1681565b600160009054906101000a900473ffffffffffffffffffffffffffffffffffffffff1673ffffffffffffffffffffffffffffffffffffffff166129da6136b5565b73ffffffffffffffffffffffffffffffffffffffff1614612a46576040517f08c379a000000000000000000000000000000000000000000000000000000000815260040180806020018281038252602a8152602001806145b6602a913960400191505060405180910390fd5b612a5a81601b6136bd90919063ffffffff16565b612acc576040517f08c379a000000000000000000000000000000000000000000000000000000000815260040180806020018281038252601b8152602001807f4d616e75666163747572657220646f65736e27742065786973742e000000000081525060200191505060405180910390fd5b612ae081601b61398a90919063ffffffff16565b50565b600160009054906101000a900473ffffffffffffffffffffffffffffffffffffffff1673ffffffffffffffffffffffffffffffffffffffff16612b246136b5565b73ffffffffffffffffffffffffffffffffffffffff1614612b90576040517f08c379a000000000000000000000000000000000000000000000000000000000815260040180806020018281038252602a8152602001806145b6602a913960400191505060405180910390fd5b612ba481601d6136bd90919063ffffffff16565b612c16576040517f08c379a00000000000000000000000000000000000000000000000000000000081526004018080602001828103825260198152602001807f4d61696e7461696e657220646f65736e27742065786973742e0000000000000081525060200191505060405180910390fd5b612c2a81601d61398a90919063ffffffff16565b50565b60036020528060005260406000206000915090505481565b612c60612c506136b5565b601b6136bd90919063ffffffff16565b80612cbf5750600160009054906101000a900473ffffffffffffffffffffffffffffffffffffffff1673ffffffffffffffffffffffffffffffffffffffff16612ca76136b5565b73ffffffffffffffffffffffffffffffffffffffff16145b612d14576040517f08c379a000000000000000000000000000000000000000000000000000000000815260040180806020018281038252603481526020018061462b6034913960400191505060405180910390fd5b612d2883600761366190919063ffffffff16565b612d9a576040517f08c379a00000000000000000000000000000000000000000000000000000000081526004018080602001828103825260138152602001807f5461736b20646f65736e27742065786973742e0000000000000000000000000081525060200191505060405180910390fd5b80600a600085815260200190815260200160002060040160008481526020019081526020016000209080519060200190612dd592919061446a565b50600a6000848152602001908152602001600020600501829080600181540180825580915050600190039060005260206000200160009091909190915055505050565b6000612e2d82612e286000613bb1565b613c30565b9050612e3881613e68565b5050565b600160009054906101000a900473ffffffffffffffffffffffffffffffffffffffff1673ffffffffffffffffffffffffffffffffffffffff16612e7d6136b5565b73ffffffffffffffffffffffffffffffffffffffff1614612ee9576040517f08c379a000000000000000000000000000000000000000000000000000000000815260040180806020018281038252602a8152602001806145b6602a913960400191505060405180910390fd5b612efd82600461417690919063ffffffff16565b8060036000848152602001908152602001600020819055505050565b6060612f2f83600761366190919063ffffffff16565b612fa1576040517f08c379a00000000000000000000000000000000000000000000000000000000081526004018080602001828103825260138152602001807f5461736b20646f65736e27742065786973742e0000000000000000000000000081525060200191505060405180910390fd5b600a600084815260200190815260200160002060040160008381526020019081526020016000208054600181600116156101000203166002900480601f01602080910402602001604051908101604052809291908181526020018280546001816001161561010002031660029004801561305c5780601f106130315761010080835404028352916020019161305c565b820191906000526020600020905b81548152906001019060200180831161303f57829003601f168201915b5050505050905092915050565b60006130756018613979565b905090565b606060046001018054806020026020016040519081016040528092919081815260200182805480156130cb57602002820191906000526020600020905b8154815260200190600101908083116130b7575b5050505050905090565b600260009054906101000a900473ffffffffffffffffffffffffffffffffffffffff1681565b600060036000838152602001908152602001600020549050919050565b600160009054906101000a900473ffffffffffffffffffffffffffffffffffffffff1673ffffffffffffffffffffffffffffffffffffffff166131596136b5565b73ffffffffffffffffffffffffffffffffffffffff16146131c5576040517f08c379a000000000000000000000000000000000000000000000000000000000815260040180806020018281038252602a8152602001806145b6602a913960400191505060405180910390fd5b6131d981601d6136bd90919063ffffffff16565b1561324c576040517f08c379a00000000000000000000000000000000000000000000000000000000081526004018080602001828103825260198152602001807f4d61696e7461696e657220616c72656164792065786973742e0000000000000081525060200191505060405180910390fd5b61326081601d61378990919063ffffffff16565b50565b61326e838383614229565b50505050565b61327c6136b5565b73ffffffffffffffffffffffffffffffffffffffff166000809054906101000a900473ffffffffffffffffffffffffffffffffffffffff1673ffffffffffffffffffffffffffffffffffffffff161461333d576040517f08c379a00000000000000000000000000000000000000000000000000000000081526004018080602001828103825260208152602001807f4f776e61626c653a2063616c6c6572206973206e6f7420746865206f776e657281525060200191505060405180910390fd5b600073ffffffffffffffffffffffffffffffffffffffff168173ffffffffffffffffffffffffffffffffffffffff1614156133c3576040517f08c379a00000000000000000000000000000000000000000000000000000000081526004018080602001828103825260268152602001806145106026913960400191505060405180910390fd5b8073ffffffffffffffffffffffffffffffffffffffff166000809054906101000a900473ffffffffffffffffffffffffffffffffffffffff1673ffffffffffffffffffffffffffffffffffffffff167f8be0079c531659141344cd1fd0a4f28419497f9722a3daafe3b4186f6b6457e060405160405180910390a3806000806101000a81548173ffffffffffffffffffffffffffffffffffffffff021916908373ffffffffffffffffffffffffffffffffffffffff16021790555050565b600061349782600761366190919063ffffffff16565b613509576040517f08c379a00000000000000000000000000000000000000000000000000000000081526004018080602001828103825260138152602001807f5461736b20646f65736e27742065786973742e0000000000000000000000000081525060200191505060405180910390fd5b6000600a60008481526020019081526020016000206003015414158061354557506001600a600084815260200190815260200160002060030154145b156135535760019050613558565b600090505b919050565b6135656136b5565b73ffffffffffffffffffffffffffffffffffffffff166000809054906101000a900473ffffffffffffffffffffffffffffffffffffffff1673ffffffffffffffffffffffffffffffffffffffff1614613626576040517f08c379a00000000000000000000000000000000000000000000000000000000081526004018080602001828103825260208152602001807f4f776e61626c653a2063616c6c6572206973206e6f7420746865206f776e657281525060200191505060405180910390fd5b80600481111561363257fe5b7fc456bf1769220afbee617f618ca674e78fd1cf51d5b5e89f10c81b8a517aae5f60405160405180910390a250565b6000808360010180549050141561367b57600090506136af565b818360010184600001600085815260200190815260200160002054815481106136a057fe5b90600052602060002001541490505b92915050565b600033905090565b600080836001018054905014156136d75760009050613783565b8173ffffffffffffffffffffffffffffffffffffffff16836001018460000160008573ffffffffffffffffffffffffffffffffffffffff1673ffffffffffffffffffffffffffffffffffffffff168152602001908152602001600020548154811061373e57fe5b9060005260206000200160009054906101000a900473ffffffffffffffffffffffffffffffffffffffff1673ffffffffffffffffffffffffffffffffffffffff161490505b92915050565b61379382826136bd565b156137e9576040517f08c379a000000000000000000000000000000000000000000000000000000000815260040180806020018281038252602a815260200180614689602a913960400191505060405180910390fd5b81600101819080600181540180825580915050600190039060005260206000200160009091909190916101000a81548173ffffffffffffffffffffffffffffffffffffffff021916908373ffffffffffffffffffffffffffffffffffffffff16021790555060018260010180549050038260000160008373ffffffffffffffffffffffffffffffffffffffff1673ffffffffffffffffffffffffffffffffffffffff168152602001908152602001600020819055505050565b6001816000016000828254019250508190555050565b600081600001549050919050565b6138d08282613661565b15613926576040517f08c379a00000000000000000000000000000000000000000000000000000000081526004018080602001828103825260278152602001806145e06027913960400191505060405180910390fd5b816001018190806001815401808255809150506001900390600052602060002001600090919091909150556001826001018054905003826000016000838152602001908152602001600020819055505050565b600081600101805490509050919050565b61399482826136bd565b6139e9576040517f08c379a000000000000000000000000000000000000000000000000000000000815260040180806020018281038252602a81526020018061458c602a913960400191505060405180910390fd5b600060016139f684614367565b03905060008360000160008473ffffffffffffffffffffffffffffffffffffffff1673ffffffffffffffffffffffffffffffffffffffff168152602001908152602001600020549050818114613b24576000846001018381548110613a5757fe5b9060005260206000200160009054906101000a900473ffffffffffffffffffffffffffffffffffffffff169050818560000160008373ffffffffffffffffffffffffffffffffffffffff1673ffffffffffffffffffffffffffffffffffffffff1681526020019081526020016000208190555080856001018381548110613ada57fe5b9060005260206000200160006101000a81548173ffffffffffffffffffffffffffffffffffffffff021916908373ffffffffffffffffffffffffffffffffffffffff160217905550505b8360000160008473ffffffffffffffffffffffffffffffffffffffff1673ffffffffffffffffffffffffffffffffffffffff1681526020019081526020016000206000905583600101805480613b7657fe5b6001900381819060005260206000200160006101000a81549073ffffffffffffffffffffffffffffffffffffffff0219169055905550505050565b60606001826000811115613bc157fe5b60ff161115613bcf57600080fd5b816000811115613bdb57fe5b600080811115613be757fe5b1415613c2a576040518060400160405280600781526020017f50726f63657373000000000000000000000000000000000000000000000000008152509050613c2b565b5b919050565b6000613c4d613c3d6136b5565b601b6136bd90919063ffffffff16565b80613cac5750600160009054906101000a900473ffffffffffffffffffffffffffffffffffffffff1673ffffffffffffffffffffffffffffffffffffffff16613c946136b5565b73ffffffffffffffffffffffffffffffffffffffff16145b613d01576040517f08c379a000000000000000000000000000000000000000000000000000000000815260040180806020018281038252603481526020018061462b6034913960400191505060405180910390fd5b613d0b60066138a2565b6000613d1760066138b8565b9050613d2d8160076138c690919063ffffffff16565b6000600a6000838152602001908152602001600020905083816001019080519060200190613d5c92919061446a565b50848160000160006101000a81548173ffffffffffffffffffffffffffffffffffffffff021916908373ffffffffffffffffffffffffffffffffffffffff160217905550600073ffffffffffffffffffffffffffffffffffffffff168573ffffffffffffffffffffffffffffffffffffffff1614613e5d57600960008673ffffffffffffffffffffffffffffffffffffffff1673ffffffffffffffffffffffffffffffffffffffff168152602001908152602001600020829080600181540180825580915050600190039060005260206000200160009091909190915055613e4e85600b6136bd90919063ffffffff16565b613e5c57613e5b85614378565b5b5b819250505092915050565b613e83613e736136b5565b601b6136bd90919063ffffffff16565b80613ee25750600160009054906101000a900473ffffffffffffffffffffffffffffffffffffffff1673ffffffffffffffffffffffffffffffffffffffff16613eca6136b5565b73ffffffffffffffffffffffffffffffffffffffff16145b613f37576040517f08c379a000000000000000000000000000000000000000000000000000000000815260040180806020018281038252603481526020018061462b6034913960400191505060405180910390fd5b613f4b81600761366190919063ffffffff16565b613fbd576040517f08c379a00000000000000000000000000000000000000000000000000000000081526004018080602001828103825260138152602001807f5461736b20646f65736e27742065786973742e0000000000000000000000000081525060200191505060405180910390fd5b6000600a60008381526020019081526020016000206002015414614049576040517f08c379a00000000000000000000000000000000000000000000000000000000081526004018080602001828103825260158152602001807f5461736b20616c726561647920737461727465642e000000000000000000000081525060200191505060405180910390fd5b42600a600083815260200190815260200160002060020181905550807fe243e4caa36ce8a33d3c02e5880146358bdb0c26b5a2f6b273cc205e7223f9f061408f83611e8c565b600a600085815260200190815260200160002060000160009054906101000a900473ffffffffffffffffffffffffffffffffffffffff1660405180806020018373ffffffffffffffffffffffffffffffffffffffff1673ffffffffffffffffffffffffffffffffffffffff168152602001828103825284818151815260200191508051906020019080838360005b8381101561413857808201518184015260208101905061411d565b50505050905090810190601f1680156141655780820380516001836020036101000a031916815260200191505b50935050505060405180910390a250565b6141808282614416565b156141d6576040517f08c379a000000000000000000000000000000000000000000000000000000000815260040180806020018281038252602a81526020018061465f602a913960400191505060405180910390fd5b816001018190806001815401808255809150506001900390600052602060002001600090919091909150556001826001018054905003826000016000838152602001908152602001600020819055505050565b6000600260009054906101000a900473ffffffffffffffffffffffffffffffffffffffff1673ffffffffffffffffffffffffffffffffffffffff1661426c6136b5565b73ffffffffffffffffffffffffffffffffffffffff16146142d8576040517f08c379a00000000000000000000000000000000000000000000000000000000081526004018080602001828103825260248152602001806146076024913960400191505060405180910390fd5b6142e2600f6138a2565b60006142ee600f6138b8565b90506143048160106138c690919063ffffffff16565b6000601260008381526020019081526020016000209050428160000181905550848160010160006101000a81548160ff0219169083600481111561434457fe5b021790555083816002018190555085816003018190555081925050509392505050565b600081600101805490509050919050565b61438c81600b6136bd90919063ffffffff16565b156143ff576040517f08c379a00000000000000000000000000000000000000000000000000000000081526004018080602001828103825260178152602001807f50726f6475637420616c7265616479206578697374732e00000000000000000081525060200191505060405180910390fd5b61441381600b61378990919063ffffffff16565b50565b600080836001018054905014156144305760009050614464565b8183600101846000016000858152602001908152602001600020548154811061445557fe5b90600052602060002001541490505b92915050565b828054600181600116156101000203166002900490600052602060002090601f016020900481019282601f106144ab57805160ff19168380011785556144d9565b828001600101855582156144d9579182015b828111156144d85782518255916020019190600101906144bd565b5b5090506144e691906144ea565b5090565b61450c91905b808211156145085760008160009055506001016144f0565b5090565b9056fe4f776e61626c653a206e6577206f776e657220697320746865207a65726f20616464726573734d61696e74656e616e63654f7065726174696f6e20646f65736e27742065786973742e4f6e6c7920617574686f72697a6564206d61696e7461696e6572732063616e2063616c6c20746869732066756e6374696f6e2e416464726573735365743a206b657920646f6573206e6f7420657869737420696e20746865207365742e4f6e6c79206d616368696e65206f776e65722063616e2063616c6c20746869732066756e6374696f6e2e55696e745365743a206b657920616c72656164792065786973747320696e20746865207365742e4f6e6c79206d616368696e652063616e2063616c6c20746869732066756e6374696f6e2e4f6e6c7920617574686f72697a6564206d616e7566616374757265732063616e2063616c6c20746869732066756e6374696f6e2e427974657333325365743a206b657920616c72656164792065786973747320696e20746865207365742e416464726573735365743a206b657920616c72656164792065786973747320696e20746865207365742ea264697066735822122025de2b897e94ebfc6961fdbc5f2bf0263d2b07be2e495a9f7acbcfb2c3c5d58a64736f6c634300060a0033",
  "immutableReferences": {},
  "source": "// SPDX-License-Identifier: MIT\npragma solidity >=0.4.21 <0.7.0;\n\nimport \"./Machine.sol\";\n\ncontract MPO is Machine {\n\n    enum TasksNames { Process }\n\n    constructor(address _machineOwner, address _machineID) Machine(_machineOwner, _machineID) public {}\n\n    function getTaskName(TasksNames taskName) internal pure returns (string memory) {\n        require(uint8(taskName) <= 1);\n        if (TasksNames.Process == taskName) return \"Process\";\n    }\n\n    function process(address productID) public {\n        uint newTaskID = super.createTask(address(productID), getTaskName(TasksNames.Process));\n        super.startTask(newTaskID);\n    }\n\n    function finishProcessing(uint taskID) public {\n        super.finishTask(taskID);\n    }\n\n    function saveReadingMPO(uint taskID, ReadingType readingType, int readingValue) public {\n        super.saveReading(taskID, readingType, readingValue);\n    }\n}",
  "sourcePath": "/Users/mohammadghanem/Desktop/studious-enigma/contracts/machines/MPO.sol",
  "compiler": {
    "name": "solc",
    "version": "0.6.10+commit.00c0fcaf.Emscripten.clang"
  },
  "schemaVersion": "3.2.3",
  "updatedAt": "2020-09-22T09:47:18.031Z",
  "networkType": "ethereum",
  "devdoc": {
    "methods": {
      "owner()": {
        "details": "Returns the address of the current owner."
      },
      "renounceOwnership()": {
        "details": "Leaves the contract without owner. It will not be possible to call `onlyOwner` functions anymore. Can only be called by the current owner. NOTE: Renouncing ownership will leave the contract without an owner, thereby removing any functionality that is only available to the owner."
      },
      "transferOwnership(address)": {
        "details": "Transfers ownership of the contract to a new account (`newOwner`). Can only be called by the current owner."
      }
    }
  },
  "userdoc": {
    "methods": {}
  }
}