{
  "contractName": "VGR",
  "abi": [
    {
      "inputs": [
        {
          "internalType": "address",
          "name": "_machineOwner",
          "type": "address"
        },
        {
          "internalType": "address",
          "name": "_machineID",
          "type": "address"
        }
      ],
      "stateMutability": "nonpayable",
      "type": "constructor"
    },
    {
      "anonymous": false,
      "inputs": [
        {
          "indexed": true,
          "internalType": "uint256",
          "name": "issueID",
          "type": "uint256"
        },
        {
          "indexed": false,
          "internalType": "string",
          "name": "reason",
          "type": "string"
        },
        {
          "indexed": false,
          "internalType": "string",
          "name": "issueType",
          "type": "string"
        }
      ],
      "name": "NewIssue",
      "type": "event"
    },
    {
      "anonymous": false,
      "inputs": [
        {
          "indexed": true,
          "internalType": "uint256",
          "name": "maintenanceOperationID",
          "type": "uint256"
        },
        {
          "indexed": true,
          "internalType": "address",
          "name": "maintainer",
          "type": "address"
        },
        {
          "indexed": false,
          "internalType": "string",
          "name": "description",
          "type": "string"
        }
      ],
      "name": "NewMaintenanceOperation",
      "type": "event"
    },
    {
      "anonymous": false,
      "inputs": [
        {
          "indexed": true,
          "internalType": "enum Machine.ReadingType",
          "name": "readingType",
          "type": "uint8"
        }
      ],
      "name": "NewReading",
      "type": "event"
    },
    {
      "anonymous": false,
      "inputs": [
        {
          "indexed": true,
          "internalType": "uint256",
          "name": "taskID",
          "type": "uint256"
        },
        {
          "indexed": false,
          "internalType": "string",
          "name": "taskName",
          "type": "string"
        },
        {
          "indexed": false,
          "internalType": "address",
          "name": "productID",
          "type": "address"
        }
      ],
      "name": "NewTask",
      "type": "event"
    },
    {
      "anonymous": false,
      "inputs": [
        {
          "indexed": true,
          "internalType": "address",
          "name": "previousOwner",
          "type": "address"
        },
        {
          "indexed": true,
          "internalType": "address",
          "name": "newOwner",
          "type": "address"
        }
      ],
      "name": "OwnershipTransferred",
      "type": "event"
    },
    {
      "anonymous": false,
      "inputs": [
        {
          "indexed": true,
          "internalType": "uint256",
          "name": "taskID",
          "type": "uint256"
        },
        {
          "indexed": false,
          "internalType": "string",
          "name": "taskName",
          "type": "string"
        },
        {
          "indexed": false,
          "internalType": "address",
          "name": "productID",
          "type": "address"
        }
      ],
      "name": "TaskFinished",
      "type": "event"
    },
    {
      "inputs": [
        {
          "internalType": "address",
          "name": "maintainerAddress",
          "type": "address"
        }
      ],
      "name": "authorizeMaintainer",
      "outputs": [],
      "stateMutability": "nonpayable",
      "type": "function"
    },
    {
      "inputs": [
        {
          "internalType": "address",
          "name": "manufacturerAddress",
          "type": "address"
        }
      ],
      "name": "authorizeManufacturer",
      "outputs": [],
      "stateMutability": "nonpayable",
      "type": "function"
    },
    {
      "inputs": [
        {
          "internalType": "address",
          "name": "maintainerAddress",
          "type": "address"
        }
      ],
      "name": "deauthorizeMaintainer",
      "outputs": [],
      "stateMutability": "nonpayable",
      "type": "function"
    },
    {
      "inputs": [
        {
          "internalType": "address",
          "name": "manufacturerAddress",
          "type": "address"
        }
      ],
      "name": "deauthorizeManufacturer",
      "outputs": [],
      "stateMutability": "nonpayable",
      "type": "function"
    },
    {
      "inputs": [
        {
          "internalType": "uint256",
          "name": "taskID",
          "type": "uint256"
        }
      ],
      "name": "finishTask",
      "outputs": [],
      "stateMutability": "nonpayable",
      "type": "function"
    },
    {
      "inputs": [
        {
          "internalType": "uint256",
          "name": "issueID",
          "type": "uint256"
        }
      ],
      "name": "getIssue",
      "outputs": [
        {
          "internalType": "uint256",
          "name": "",
          "type": "uint256"
        },
        {
          "internalType": "uint256",
          "name": "",
          "type": "uint256"
        },
        {
          "internalType": "string",
          "name": "",
          "type": "string"
        },
        {
          "internalType": "string",
          "name": "",
          "type": "string"
        }
      ],
      "stateMutability": "view",
      "type": "function",
      "constant": true
    },
    {
      "inputs": [],
      "name": "getIssuesCount",
      "outputs": [
        {
          "internalType": "uint256",
          "name": "",
          "type": "uint256"
        }
      ],
      "stateMutability": "view",
      "type": "function",
      "constant": true
    },
    {
      "inputs": [],
      "name": "getMachineID",
      "outputs": [
        {
          "internalType": "address",
          "name": "",
          "type": "address"
        }
      ],
      "stateMutability": "view",
      "type": "function",
      "constant": true
    },
    {
      "inputs": [
        {
          "internalType": "bytes32",
          "name": "infoName",
          "type": "bytes32"
        }
      ],
      "name": "getMachineInfo",
      "outputs": [
        {
          "internalType": "bytes32",
          "name": "",
          "type": "bytes32"
        }
      ],
      "stateMutability": "view",
      "type": "function",
      "constant": true
    },
    {
      "inputs": [],
      "name": "getMachineInfoNames",
      "outputs": [
        {
          "internalType": "bytes32[]",
          "name": "",
          "type": "bytes32[]"
        }
      ],
      "stateMutability": "view",
      "type": "function",
      "constant": true
    },
    {
      "inputs": [],
      "name": "getMachineOwner",
      "outputs": [
        {
          "internalType": "address",
          "name": "",
          "type": "address"
        }
      ],
      "stateMutability": "view",
      "type": "function",
      "constant": true
    },
    {
      "inputs": [
        {
          "internalType": "uint256",
          "name": "maintenanceOperationID",
          "type": "uint256"
        }
      ],
      "name": "getMaintenanceOperation",
      "outputs": [
        {
          "internalType": "uint256",
          "name": "",
          "type": "uint256"
        },
        {
          "internalType": "address",
          "name": "",
          "type": "address"
        },
        {
          "internalType": "string",
          "name": "",
          "type": "string"
        }
      ],
      "stateMutability": "view",
      "type": "function",
      "constant": true
    },
    {
      "inputs": [],
      "name": "getMaintenanceOperationsCount",
      "outputs": [
        {
          "internalType": "uint256",
          "name": "",
          "type": "uint256"
        }
      ],
      "stateMutability": "view",
      "type": "function",
      "constant": true
    },
    {
      "inputs": [
        {
          "internalType": "enum Machine.ReadingType",
          "name": "readingType",
          "type": "uint8"
        }
      ],
      "name": "getNewReading",
      "outputs": [],
      "stateMutability": "nonpayable",
      "type": "function"
    },
    {
      "inputs": [
        {
          "internalType": "uint256",
          "name": "taskID",
          "type": "uint256"
        }
      ],
      "name": "getProductID",
      "outputs": [
        {
          "internalType": "address",
          "name": "",
          "type": "address"
        }
      ],
      "stateMutability": "view",
      "type": "function",
      "constant": true
    },
    {
      "inputs": [
        {
          "internalType": "address",
          "name": "productID",
          "type": "address"
        },
        {
          "internalType": "bytes32",
          "name": "operationName",
          "type": "bytes32"
        }
      ],
      "name": "getProductOperationValue",
      "outputs": [
        {
          "internalType": "string",
          "name": "",
          "type": "string"
        }
      ],
      "stateMutability": "view",
      "type": "function",
      "constant": true
    },
    {
      "inputs": [
        {
          "internalType": "address",
          "name": "productID",
          "type": "address"
        }
      ],
      "name": "getProductOperations",
      "outputs": [
        {
          "internalType": "bytes32[]",
          "name": "",
          "type": "bytes32[]"
        }
      ],
      "stateMutability": "view",
      "type": "function",
      "constant": true
    },
    {
      "inputs": [
        {
          "internalType": "address",
          "name": "productID",
          "type": "address"
        }
      ],
      "name": "getProductTasks",
      "outputs": [
        {
          "internalType": "uint256[]",
          "name": "",
          "type": "uint256[]"
        }
      ],
      "stateMutability": "view",
      "type": "function",
      "constant": true
    },
    {
      "inputs": [
        {
          "internalType": "uint256",
          "name": "readingID",
          "type": "uint256"
        }
      ],
      "name": "getReading",
      "outputs": [
        {
          "internalType": "uint256",
          "name": "",
          "type": "uint256"
        },
        {
          "internalType": "enum Machine.ReadingType",
          "name": "",
          "type": "uint8"
        },
        {
          "internalType": "int256",
          "name": "",
          "type": "int256"
        },
        {
          "internalType": "uint256",
          "name": "",
          "type": "uint256"
        }
      ],
      "stateMutability": "view",
      "type": "function",
      "constant": true
    },
    {
      "inputs": [],
      "name": "getReadingsCount",
      "outputs": [
        {
          "internalType": "uint256",
          "name": "",
          "type": "uint256"
        }
      ],
      "stateMutability": "view",
      "type": "function",
      "constant": true
    },
    {
      "inputs": [
        {
          "internalType": "uint256",
          "name": "taskID",
          "type": "uint256"
        }
      ],
      "name": "getTask",
      "outputs": [
        {
          "internalType": "address",
          "name": "",
          "type": "address"
        },
        {
          "internalType": "string",
          "name": "",
          "type": "string"
        },
        {
          "internalType": "uint256",
          "name": "",
          "type": "uint256"
        },
        {
          "internalType": "uint256",
          "name": "",
          "type": "uint256"
        },
        {
          "internalType": "bytes32[]",
          "name": "",
          "type": "bytes32[]"
        }
      ],
      "stateMutability": "view",
      "type": "function",
      "constant": true
    },
    {
      "inputs": [
        {
          "internalType": "uint256",
          "name": "taskID",
          "type": "uint256"
        },
        {
          "internalType": "bytes32",
          "name": "inputName",
          "type": "bytes32"
        }
      ],
      "name": "getTaskInput",
      "outputs": [
        {
          "internalType": "string",
          "name": "",
          "type": "string"
        }
      ],
      "stateMutability": "view",
      "type": "function",
      "constant": true
    },
    {
      "inputs": [],
      "name": "getTasksCount",
      "outputs": [
        {
          "internalType": "uint256",
          "name": "",
          "type": "uint256"
        }
      ],
      "stateMutability": "view",
      "type": "function",
      "constant": true
    },
    {
      "inputs": [
        {
          "internalType": "bytes32",
          "name": "",
          "type": "bytes32"
        }
      ],
      "name": "info",
      "outputs": [
        {
          "internalType": "bytes32",
          "name": "",
          "type": "bytes32"
        }
      ],
      "stateMutability": "view",
      "type": "function",
      "constant": true
    },
    {
      "inputs": [
        {
          "internalType": "uint256",
          "name": "taskID",
          "type": "uint256"
        }
      ],
      "name": "isTaskFinished",
      "outputs": [
        {
          "internalType": "bool",
          "name": "",
          "type": "bool"
        }
      ],
      "stateMutability": "view",
      "type": "function",
      "constant": true
    },
    {
      "inputs": [
        {
          "internalType": "uint256",
          "name": "taskID",
          "type": "uint256"
        }
      ],
      "name": "killTask",
      "outputs": [],
      "stateMutability": "nonpayable",
      "type": "function"
    },
    {
      "inputs": [],
      "name": "machineID",
      "outputs": [
        {
          "internalType": "address",
          "name": "",
          "type": "address"
        }
      ],
      "stateMutability": "view",
      "type": "function",
      "constant": true
    },
    {
      "inputs": [],
      "name": "machineOwner",
      "outputs": [
        {
          "internalType": "address",
          "name": "",
          "type": "address"
        }
      ],
      "stateMutability": "view",
      "type": "function",
      "constant": true
    },
    {
      "inputs": [],
      "name": "owner",
      "outputs": [
        {
          "internalType": "address",
          "name": "",
          "type": "address"
        }
      ],
      "stateMutability": "view",
      "type": "function",
      "constant": true
    },
    {
      "inputs": [],
      "name": "renounceOwnership",
      "outputs": [],
      "stateMutability": "nonpayable",
      "type": "function"
    },
    {
      "inputs": [
        {
          "internalType": "uint256",
          "name": "taskID",
          "type": "uint256"
        },
        {
          "internalType": "bytes32",
          "name": "inputName",
          "type": "bytes32"
        },
        {
          "internalType": "string",
          "name": "inputValue",
          "type": "string"
        }
      ],
      "name": "saveInput",
      "outputs": [],
      "stateMutability": "nonpayable",
      "type": "function"
    },
    {
      "inputs": [
        {
          "internalType": "bytes32",
          "name": "infoName",
          "type": "bytes32"
        },
        {
          "internalType": "bytes32",
          "name": "infoValue",
          "type": "bytes32"
        }
      ],
      "name": "saveMachineInfo",
      "outputs": [],
      "stateMutability": "nonpayable",
      "type": "function"
    },
    {
      "inputs": [
        {
          "internalType": "string",
          "name": "description",
          "type": "string"
        }
      ],
      "name": "saveMaintenanceOperation",
      "outputs": [
        {
          "internalType": "uint256",
          "name": "",
          "type": "uint256"
        }
      ],
      "stateMutability": "nonpayable",
      "type": "function"
    },
    {
      "inputs": [
        {
          "internalType": "address",
          "name": "productID",
          "type": "address"
        },
        {
          "internalType": "bytes32",
          "name": "operationName",
          "type": "bytes32"
        },
        {
          "internalType": "string",
          "name": "operationValue",
          "type": "string"
        }
      ],
      "name": "saveProductOperation",
      "outputs": [],
      "stateMutability": "nonpayable",
      "type": "function"
    },
    {
      "inputs": [
        {
          "internalType": "address",
          "name": "newOwner",
          "type": "address"
        }
      ],
      "name": "transferOwnership",
      "outputs": [],
      "stateMutability": "nonpayable",
      "type": "function"
    },
    {
      "inputs": [
        {
          "internalType": "uint256",
          "name": "taskID",
          "type": "uint256"
        }
      ],
      "name": "getTaskName",
      "outputs": [
        {
          "internalType": "string",
          "name": "",
          "type": "string"
        }
      ],
      "stateMutability": "view",
      "type": "function",
      "constant": true
    },
    {
      "inputs": [
        {
          "internalType": "address",
          "name": "productID",
          "type": "address"
        }
      ],
      "name": "getInfo",
      "outputs": [],
      "stateMutability": "nonpayable",
      "type": "function"
    },
    {
      "inputs": [
        {
          "internalType": "uint256",
          "name": "taskID",
          "type": "uint256"
        },
        {
          "internalType": "string",
          "name": "nfcTag",
          "type": "string"
        },
        {
          "internalType": "string",
          "name": "color",
          "type": "string"
        }
      ],
      "name": "finishGetInfo",
      "outputs": [],
      "stateMutability": "nonpayable",
      "type": "function"
    },
    {
      "inputs": [
        {
          "internalType": "address",
          "name": "productID",
          "type": "address"
        }
      ],
      "name": "dropToHBW",
      "outputs": [],
      "stateMutability": "nonpayable",
      "type": "function"
    },
    {
      "inputs": [
        {
          "internalType": "address",
          "name": "productID",
          "type": "address"
        }
      ],
      "name": "moveHBW2MPO",
      "outputs": [],
      "stateMutability": "nonpayable",
      "type": "function"
    },
    {
      "inputs": [
        {
          "internalType": "address",
          "name": "productID",
          "type": "address"
        },
        {
          "internalType": "string",
          "name": "color",
          "type": "string"
        }
      ],
      "name": "pickSorted",
      "outputs": [],
      "stateMutability": "nonpayable",
      "type": "function"
    },
    {
      "inputs": [
        {
          "internalType": "uint256",
          "name": "taskID",
          "type": "uint256"
        },
        {
          "internalType": "enum Machine.ReadingType",
          "name": "readingType",
          "type": "uint8"
        },
        {
          "internalType": "int256",
          "name": "readingValue",
          "type": "int256"
        }
      ],
      "name": "saveReadingVGR",
      "outputs": [],
      "stateMutability": "nonpayable",
      "type": "function"
    }
  ],
  "bytecode": "0x60806040523480156200001157600080fd5b5060405162004d5438038062004d54833981810160405260408110156200003757600080fd5b81019080805190602001909291908051906020019092919050505081816000620000666200019060201b60201c565b9050806000806101000a81548173ffffffffffffffffffffffffffffffffffffffff021916908373ffffffffffffffffffffffffffffffffffffffff1602179055508073ffffffffffffffffffffffffffffffffffffffff16600073ffffffffffffffffffffffffffffffffffffffff167f8be0079c531659141344cd1fd0a4f28419497f9722a3daafe3b4186f6b6457e060405160405180910390a35081600160006101000a81548173ffffffffffffffffffffffffffffffffffffffff021916908373ffffffffffffffffffffffffffffffffffffffff16021790555080600260006101000a81548173ffffffffffffffffffffffffffffffffffffffff021916908373ffffffffffffffffffffffffffffffffffffffff1602179055505050505062000198565b600033905090565b614bac80620001a86000396000f3fe608060405234801561001057600080fd5b506004361061025d5760003560e01c80638d555b4e11610146578063bd98acd0116100c3578063ed210f9911610087578063ed210f9914611334578063ee19dc8514611376578063f2fde38b146113ba578063f7560952146113fe578063ffd7bb5e14611444578063ffdd5cf1146114755761025d565b8063bd98acd014611184578063c0b4621a146111bc578063c0ddec421461126d578063cef27d821461128b578063d4c3a632146112ea5761025d565b8063abc06f851161010a578063abc06f8514610fa1578063abeff4dd14610feb578063b3620b361461102f578063b64a097e14611073578063b7ff3bba146110b55761025d565b80638d555b4e14610cf95780638da5cb5b14610dd4578063976b311314610e1e578063983d6dd014610f3f5780639f89927314610f835761025d565b80634eed50f5116101df578063715018a6116101a3578063715018a614610a855780637c1bdaa114610a8f5780637eed8e9f14610beb5780637f4f773c14610c59578063842178b214610c8757806385558dd414610cb55761025d565b80634eed50f51461090e57806350b5944714610958578063546457b31461097657806356755b13146109945780636ac740d014610a3b5761025d565b806315d2d40c1161022657806315d2d40c146105005780631d65e77e1461059957806326966382146106c95780632a861d341461079057806344a63efa146108295761025d565b806287a78814610262578063089e1b39146102c757806308dd5cfe1461030b5780630f183027146103da57806311f47ab91461041f575b600080fd5b61028e6004803603602081101561027857600080fd5b81019080803590602001909291905050506114b9565b604051808581526020018460048111156102a457fe5b60ff16815260200183815260200182815260200194505050505060405180910390f35b610309600480360360208110156102dd57600080fd5b81019080803573ffffffffffffffffffffffffffffffffffffffff1690602001909291905050506115bd565b005b6103c46004803603602081101561032157600080fd5b810190808035906020019064010000000081111561033e57600080fd5b82018360208201111561035057600080fd5b8035906020019184600183028401116401000000008311171561037257600080fd5b91908080601f016020809104026020016040519081016040528093929190818152602001838380828437600081840152601f19601f820116905080830192505050505050509192919290505050611708565b6040518082815260200191505060405180910390f35b61041d600480360360608110156103f057600080fd5b8101908080359060200190929190803560ff1690602001909291908035906020019092919050505061194d565b005b61044b6004803603602081101561043557600080fd5b810190808035906020019092919050505061195e565b604051808481526020018373ffffffffffffffffffffffffffffffffffffffff1673ffffffffffffffffffffffffffffffffffffffff16815260200180602001828103825283818151815260200191508051906020019080838360005b838110156104c35780820151818401526020810190506104a8565b50505050905090810190601f1680156104f05780820380516001836020036101000a031916815260200191505b5094505050505060405180910390f35b6105426004803603602081101561051657600080fd5b81019080803573ffffffffffffffffffffffffffffffffffffffff169060200190929190505050611ad9565b6040518080602001828103825283818151815260200191508051906020019060200280838360005b8381101561058557808201518184015260208101905061056a565b505050509050019250505060405180910390f35b6105c5600480360360208110156105af57600080fd5b8101908080359060200190929190505050611b70565b604051808673ffffffffffffffffffffffffffffffffffffffff1673ffffffffffffffffffffffffffffffffffffffff1681526020018060200185815260200184815260200180602001838103835287818151815260200191508051906020019080838360005b8381101561064757808201518184015260208101905061062c565b50505050905090810190601f1680156106745780820380516001836020036101000a031916815260200191505b50838103825284818151815260200191508051906020019060200280838360005b838110156106b0578082015181840152602081019050610695565b5050505090500197505050505050505060405180910390f35b610715600480360360408110156106df57600080fd5b81019080803573ffffffffffffffffffffffffffffffffffffffff16906020019092919080359060200190929190505050611d91565b6040518080602001828103825283818151815260200191508051906020019080838360005b8381101561075557808201518184015260208101905061073a565b50505050905090810190601f1680156107825780820380516001836020036101000a031916815260200191505b509250505060405180910390f35b6107d2600480360360208110156107a657600080fd5b81019080803573ffffffffffffffffffffffffffffffffffffffff169060200190929190505050611f0a565b6040518080602001828103825283818151815260200191508051906020019060200280838360005b838110156108155780820151818401526020810190506107fa565b505050509050019250505060405180910390f35b61090c6004803603606081101561083f57600080fd5b81019080803573ffffffffffffffffffffffffffffffffffffffff169060200190929190803590602001909291908035906020019064010000000081111561088657600080fd5b82018360208201111561089857600080fd5b803590602001918460018302840111640100000000831117156108ba57600080fd5b91908080601f016020809104026020016040519081016040528093929190818152602001838380828437600081840152601f19601f820116905080830192505050505050509192919290505050611fa1565b005b6109166120f7565b604051808273ffffffffffffffffffffffffffffffffffffffff1673ffffffffffffffffffffffffffffffffffffffff16815260200191505060405180910390f35b610960612121565b6040518082815260200191505060405180910390f35b61097e612132565b6040518082815260200191505060405180910390f35b6109c0600480360360208110156109aa57600080fd5b8101908080359060200190929190505050612143565b6040518080602001828103825283818151815260200191508051906020019080838360005b83811015610a005780820151818401526020810190506109e5565b50505050905090810190601f168015610a2d5780820380516001836020036101000a031916815260200191505b509250505060405180910390f35b610a43612281565b604051808273ffffffffffffffffffffffffffffffffffffffff1673ffffffffffffffffffffffffffffffffffffffff16815260200191505060405180910390f35b610a8d6122ab565b005b610be960048036036060811015610aa557600080fd5b810190808035906020019092919080359060200190640100000000811115610acc57600080fd5b820183602082011115610ade57600080fd5b80359060200191846001830284011164010000000083111715610b0057600080fd5b91908080601f016020809104026020016040519081016040528093929190818152602001838380828437600081840152601f19601f82011690508083019250505050505050919291929080359060200190640100000000811115610b6357600080fd5b820183602082011115610b7557600080fd5b80359060200191846001830284011164010000000083111715610b9757600080fd5b91908080601f016020809104026020016040519081016040528093929190818152602001838380828437600081840152601f19601f820116905080830192505050505050509192919290505050612433565b005b610c1760048036036020811015610c0157600080fd5b81019080803590602001909291905050506124a5565b604051808273ffffffffffffffffffffffffffffffffffffffff1673ffffffffffffffffffffffffffffffffffffffff16815260200191505060405180910390f35b610c8560048036036020811015610c6f57600080fd5b810190808035906020019092919050505061256b565b005b610cb360048036036020811015610c9d57600080fd5b8101908080359060200190929190505050612749565b005b610cf760048036036020811015610ccb57600080fd5b81019080803573ffffffffffffffffffffffffffffffffffffffff169060200190929190505050612a35565b005b610dd260048036036040811015610d0f57600080fd5b81019080803573ffffffffffffffffffffffffffffffffffffffff16906020019092919080359060200190640100000000811115610d4c57600080fd5b820183602082011115610d5e57600080fd5b80359060200191846001830284011164010000000083111715610d8057600080fd5b91908080601f016020809104026020016040519081016040528093929190818152602001838380828437600081840152601f19601f820116905080830192505050505050509192919290505050612a59565b005b610ddc612aa9565b604051808273ffffffffffffffffffffffffffffffffffffffff1673ffffffffffffffffffffffffffffffffffffffff16815260200191505060405180910390f35b610e4a60048036036020811015610e3457600080fd5b8101908080359060200190929190505050612ad2565b604051808581526020018481526020018060200180602001838103835285818151815260200191508051906020019080838360005b83811015610e9a578082015181840152602081019050610e7f565b50505050905090810190601f168015610ec75780820380516001836020036101000a031916815260200191505b50838103825284818151815260200191508051906020019080838360005b83811015610f00578082015181840152602081019050610ee5565b50505050905090810190601f168015610f2d5780820380516001836020036101000a031916815260200191505b50965050505050505060405180910390f35b610f8160048036036020811015610f5557600080fd5b81019080803573ffffffffffffffffffffffffffffffffffffffff169060200190929190505050612cff565b005b610f8b612d23565b6040518082815260200191505060405180910390f35b610fa9612d34565b604051808273ffffffffffffffffffffffffffffffffffffffff1673ffffffffffffffffffffffffffffffffffffffff16815260200191505060405180910390f35b61102d6004803603602081101561100157600080fd5b81019080803573ffffffffffffffffffffffffffffffffffffffff169060200190929190505050612d5a565b005b6110716004803603602081101561104557600080fd5b81019080803573ffffffffffffffffffffffffffffffffffffffff169060200190929190505050612ea4565b005b61109f6004803603602081101561108957600080fd5b8101908080359060200190929190505050612fee565b6040518082815260200191505060405180910390f35b611182600480360360608110156110cb57600080fd5b810190808035906020019092919080359060200190929190803590602001906401000000008111156110fc57600080fd5b82018360208201111561110e57600080fd5b8035906020019184600183028401116401000000008311171561113057600080fd5b91908080601f016020809104026020016040519081016040528093929190818152602001838380828437600081840152601f19601f820116905080830192505050505050509192919290505050613006565b005b6111ba6004803603604081101561119a57600080fd5b8101908080359060200190929190803590602001909291905050506131d9565b005b6111f2600480360360408110156111d257600080fd5b8101908080359060200190929190803590602001909291905050506132b6565b6040518080602001828103825283818151815260200191508051906020019080838360005b83811015611232578082015181840152602081019050611217565b50505050905090810190601f16801561125f5780820380516001836020036101000a031916815260200191505b509250505060405180910390f35b611275613406565b6040518082815260200191505060405180910390f35b611293613417565b6040518080602001828103825283818151815260200191508051906020019060200280838360005b838110156112d65780820151818401526020810190506112bb565b505050509050019250505060405180910390f35b6112f2613472565b604051808273ffffffffffffffffffffffffffffffffffffffff1673ffffffffffffffffffffffffffffffffffffffff16815260200191505060405180910390f35b6113606004803603602081101561134a57600080fd5b8101908080359060200190929190505050613498565b6040518082815260200191505060405180910390f35b6113b86004803603602081101561138c57600080fd5b81019080803573ffffffffffffffffffffffffffffffffffffffff1690602001909291905050506134b5565b005b6113fc600480360360208110156113d057600080fd5b81019080803573ffffffffffffffffffffffffffffffffffffffff169060200190929190505050613600565b005b61142a6004803603602081101561141457600080fd5b810190808035906020019092919050505061380d565b604051808215151515815260200191505060405180910390f35b6114736004803603602081101561145a57600080fd5b81019080803560ff1690602001909291905050506138e9565b005b6114b76004803603602081101561148b57600080fd5b81019080803573ffffffffffffffffffffffffffffffffffffffff1690602001909291905050506139ed565b005b6000806000806114d3856010613a1190919063ffffffff16565b611545576040517f08c379a00000000000000000000000000000000000000000000000000000000081526004018080602001828103825260168152602001807f52656164696e6720646f65736e27742065786973742e0000000000000000000081525060200191505060405180910390fd5b60126000868152602001908152602001600020600001546012600087815260200190815260200160002060010160009054906101000a900460ff166012600088815260200190815260200160002060020154601260008981526020019081526020016000206003015493509350935093509193509193565b600160009054906101000a900473ffffffffffffffffffffffffffffffffffffffff1673ffffffffffffffffffffffffffffffffffffffff166115fe613a65565b73ffffffffffffffffffffffffffffffffffffffff161461166a576040517f08c379a000000000000000000000000000000000000000000000000000000000815260040180806020018281038252602a815260200180614a7a602a913960400191505060405180910390fd5b61167e81601b613a6d90919063ffffffff16565b156116f1576040517f08c379a000000000000000000000000000000000000000000000000000000000815260040180806020018281038252601b8152602001807f4d616e75666163747572657220616c72656164792065786973742e000000000081525060200191505060405180910390fd5b61170581601b613b3990919063ffffffff16565b50565b6000611725611715613a65565b601d613a6d90919063ffffffff16565b806117845750600160009054906101000a900473ffffffffffffffffffffffffffffffffffffffff1673ffffffffffffffffffffffffffffffffffffffff1661176c613a65565b73ffffffffffffffffffffffffffffffffffffffff16145b6117d9576040517f08c379a0000000000000000000000000000000000000000000000000000000008152600401808060200182810382526033815260200180614a1d6033913960400191505060405180910390fd5b6117e36017613c52565b60006117ef6017613c68565b9050611805816018613c7690919063ffffffff16565b6000601a6000838152602001908152602001600020905042816000018190555061182d613a65565b8160010160006101000a81548173ffffffffffffffffffffffffffffffffffffffff021916908373ffffffffffffffffffffffffffffffffffffffff1602179055508381600201908051906020019061188792919061492e565b50611890613a65565b73ffffffffffffffffffffffffffffffffffffffff16827fdf898f82123c1d886ac510dab0606c18eb18e75ec238c4930cb278508fc2a445866040518080602001828103825283818151815260200191508051906020019080838360005b838110156119095780820151818401526020810190506118ee565b50505050905090810190601f1680156119365780820380516001836020036101000a031916815260200191505b509250505060405180910390a38192505050919050565b611958838383613d29565b50505050565b6000806060611977846018613a1190919063ffffffff16565b6119cc576040517f08c379a00000000000000000000000000000000000000000000000000000000081526004018080602001828103825260238152602001806149fa6023913960400191505060405180910390fd5b601a600085815260200190815260200160002060000154601a600086815260200190815260200160002060010160009054906101000a900473ffffffffffffffffffffffffffffffffffffffff16601a6000878152602001908152602001600020600201808054600181600116156101000203166002900480601f016020809104026020016040519081016040528092919081815260200182805460018160011615610100020316600290048015611ac55780601f10611a9a57610100808354040283529160200191611ac5565b820191906000526020600020905b815481529060010190602001808311611aa857829003601f168201915b505050505090509250925092509193909250565b6060600e60008373ffffffffffffffffffffffffffffffffffffffff1673ffffffffffffffffffffffffffffffffffffffff168152602001908152602001600020805480602002602001604051908101604052809291908181526020018280548015611b6457602002820191906000526020600020905b815481526020019060010190808311611b50575b50505050509050919050565b600060606000806060611b8d866007613a1190919063ffffffff16565b611bff576040517f08c379a00000000000000000000000000000000000000000000000000000000081526004018080602001828103825260138152602001807f5461736b20646f65736e27742065786973742e0000000000000000000000000081525060200191505060405180910390fd5b600a600087815260200190815260200160002060000160009054906101000a900473ffffffffffffffffffffffffffffffffffffffff16600a6000888152602001908152602001600020600101600a600089815260200190815260200160002060020154600a60008a815260200190815260200160002060030154600a60008b8152602001908152602001600020600501838054600181600116156101000203166002900480601f016020809104026020016040519081016040528092919081815260200182805460018160011615610100020316600290048015611d255780601f10611cfa57610100808354040283529160200191611d25565b820191906000526020600020905b815481529060010190602001808311611d0857829003601f168201915b5050505050935080805480602002602001604051908101604052809291908181526020018280548015611d7757602002820191906000526020600020905b815481526020019060010190808311611d63575b505050505090509450945094509450945091939590929450565b6060611da783600b613a6d90919063ffffffff16565b611e19576040517f08c379a00000000000000000000000000000000000000000000000000000000081526004018080602001828103825260168152602001807f50726f6475637420646f65736e27742065786973742e0000000000000000000081525060200191505060405180910390fd5b600d60008473ffffffffffffffffffffffffffffffffffffffff1673ffffffffffffffffffffffffffffffffffffffff16815260200190815260200160002060008381526020019081526020016000208054600181600116156101000203166002900480601f016020809104026020016040519081016040528092919081815260200182805460018160011615610100020316600290048015611efd5780601f10611ed257610100808354040283529160200191611efd565b820191906000526020600020905b815481529060010190602001808311611ee057829003601f168201915b5050505050905092915050565b6060600960008373ffffffffffffffffffffffffffffffffffffffff1673ffffffffffffffffffffffffffffffffffffffff168152602001908152602001600020805480602002602001604051908101604052809291908181526020018280548015611f9557602002820191906000526020600020905b815481526020019060010190808311611f81575b50505050509050919050565b611fb583600b613a6d90919063ffffffff16565b612027576040517f08c379a00000000000000000000000000000000000000000000000000000000081526004018080602001828103825260168152602001807f50726f6475637420646f65736e27742065786973742e0000000000000000000081525060200191505060405180910390fd5b80600d60008573ffffffffffffffffffffffffffffffffffffffff1673ffffffffffffffffffffffffffffffffffffffff1681526020019081526020016000206000848152602001908152602001600020908051906020019061208b92919061492e565b50600e60008473ffffffffffffffffffffffffffffffffffffffff1673ffffffffffffffffffffffffffffffffffffffff168152602001908152602001600020829080600181540180825580915050600190039060005260206000200160009091909190915055505050565b6000600260009054906101000a900473ffffffffffffffffffffffffffffffffffffffff16905090565b600061212d6014613e67565b905090565b600061213e6010613e67565b905090565b6060612159826007613a1190919063ffffffff16565b6121cb576040517f08c379a00000000000000000000000000000000000000000000000000000000081526004018080602001828103825260138152602001807f5461736b20646f65736e27742065786973742e0000000000000000000000000081525060200191505060405180910390fd5b600a60008381526020019081526020016000206001018054600181600116156101000203166002900480601f0160208091040260200160405190810160405280929190818152602001828054600181600116156101000203166002900480156122755780601f1061224a57610100808354040283529160200191612275565b820191906000526020600020905b81548152906001019060200180831161225857829003601f168201915b50505050509050919050565b6000600160009054906101000a900473ffffffffffffffffffffffffffffffffffffffff16905090565b6122b3613a65565b73ffffffffffffffffffffffffffffffffffffffff166000809054906101000a900473ffffffffffffffffffffffffffffffffffffffff1673ffffffffffffffffffffffffffffffffffffffff1614612374576040517f08c379a00000000000000000000000000000000000000000000000000000000081526004018080602001828103825260208152602001807f4f776e61626c653a2063616c6c6572206973206e6f7420746865206f776e657281525060200191505060405180910390fd5b600073ffffffffffffffffffffffffffffffffffffffff166000809054906101000a900473ffffffffffffffffffffffffffffffffffffffff1673ffffffffffffffffffffffffffffffffffffffff167f8be0079c531659141344cd1fd0a4f28419497f9722a3daafe3b4186f6b6457e060405160405180910390a360008060006101000a81548173ffffffffffffffffffffffffffffffffffffffff021916908373ffffffffffffffffffffffffffffffffffffffff160217905550565b600061243e846124a5565b905061246b817f4e464354616752656164696e670000000000000000000000000000000000000085611fa1565b612496817f436f6c6f72446574656374696f6e00000000000000000000000000000000000084611fa1565b61249f84612749565b50505050565b60006124bb826007613a1190919063ffffffff16565b61252d576040517f08c379a00000000000000000000000000000000000000000000000000000000081526004018080602001828103825260138152602001807f5461736b20646f65736e27742065786973742e0000000000000000000000000081525060200191505060405180910390fd5b600a600083815260200190815260200160002060000160009054906101000a900473ffffffffffffffffffffffffffffffffffffffff169050919050565b600160009054906101000a900473ffffffffffffffffffffffffffffffffffffffff1673ffffffffffffffffffffffffffffffffffffffff166125ac613a65565b73ffffffffffffffffffffffffffffffffffffffff1614612618576040517f08c379a000000000000000000000000000000000000000000000000000000000815260040180806020018281038252602a815260200180614a7a602a913960400191505060405180910390fd5b61262c816007613a1190919063ffffffff16565b61269e576040517f08c379a00000000000000000000000000000000000000000000000000000000081526004018080602001828103825260138152602001807f5461736b20646f65736e27742065786973742e0000000000000000000000000081525060200191505060405180910390fd5b6000600a6000838152602001908152602001600020600301541461272a576040517f08c379a00000000000000000000000000000000000000000000000000000000081526004018080602001828103825260168152602001807f5461736b20616c72656164792066696e69736865642e0000000000000000000081525060200191505060405180910390fd5b6001600a60008381526020019081526020016000206003018190555050565b600260009054906101000a900473ffffffffffffffffffffffffffffffffffffffff1673ffffffffffffffffffffffffffffffffffffffff1661278a613a65565b73ffffffffffffffffffffffffffffffffffffffff16146127f6576040517f08c379a0000000000000000000000000000000000000000000000000000000008152600401808060200182810382526024815260200180614acb6024913960400191505060405180910390fd5b61280a816007613a1190919063ffffffff16565b61287c576040517f08c379a00000000000000000000000000000000000000000000000000000000081526004018080602001828103825260138152602001807f5461736b20646f65736e27742065786973742e0000000000000000000000000081525060200191505060405180910390fd5b6000600a60008381526020019081526020016000206003015414612908576040517f08c379a00000000000000000000000000000000000000000000000000000000081526004018080602001828103825260168152602001807f5461736b20616c72656164792066696e69736865642e0000000000000000000081525060200191505060405180910390fd5b42600a600083815260200190815260200160002060030181905550807f2f73bc32a98ca6a02a0c153c827a9e28ce6bd37f9be254bab7bc582117511b1a61294e83612143565b600a600085815260200190815260200160002060000160009054906101000a900473ffffffffffffffffffffffffffffffffffffffff1660405180806020018373ffffffffffffffffffffffffffffffffffffffff1673ffffffffffffffffffffffffffffffffffffffff168152602001828103825284818151815260200191508051906020019080838360005b838110156129f75780820151818401526020810190506129dc565b50505050905090810190601f168015612a245780820380516001836020036101000a031916815260200191505b50935050505060405180910390a250565b6000612a4a82612a456002613e78565b61400b565b9050612a5581614243565b5050565b6000612a6e83612a696003613e78565b61400b565b9050612a9b817f636f6c6f7200000000000000000000000000000000000000000000000000000084613006565b612aa481614243565b505050565b60008060009054906101000a900473ffffffffffffffffffffffffffffffffffffffff16905090565b600080606080612aec856014613a1190919063ffffffff16565b612b5e576040517f08c379a00000000000000000000000000000000000000000000000000000000081526004018080602001828103825260148152602001807f497373756520646f65736e27742065786973742e00000000000000000000000081525060200191505060405180910390fd5b601660008681526020019081526020016000206000015460166000878152602001908152602001600020600101546016600088815260200190815260200160002060020160166000898152602001908152602001600020600301818054600181600116156101000203166002900480601f016020809104026020016040519081016040528092919081815260200182805460018160011615610100020316600290048015612c4d5780601f10612c2257610100808354040283529160200191612c4d565b820191906000526020600020905b815481529060010190602001808311612c3057829003601f168201915b50505050509150808054600181600116156101000203166002900480601f016020809104026020016040519081016040528092919081815260200182805460018160011615610100020316600290048015612ce95780601f10612cbe57610100808354040283529160200191612ce9565b820191906000526020600020905b815481529060010190602001808311612ccc57829003601f168201915b5050505050905093509350935093509193509193565b6000612d1482612d0f6001613e78565b61400b565b9050612d1f81614243565b5050565b6000612d2f6007613e67565b905090565b600160009054906101000a900473ffffffffffffffffffffffffffffffffffffffff1681565b600160009054906101000a900473ffffffffffffffffffffffffffffffffffffffff1673ffffffffffffffffffffffffffffffffffffffff16612d9b613a65565b73ffffffffffffffffffffffffffffffffffffffff1614612e07576040517f08c379a000000000000000000000000000000000000000000000000000000000815260040180806020018281038252602a815260200180614a7a602a913960400191505060405180910390fd5b612e1b81601b613a6d90919063ffffffff16565b612e8d576040517f08c379a000000000000000000000000000000000000000000000000000000000815260040180806020018281038252601b8152602001807f4d616e75666163747572657220646f65736e27742065786973742e000000000081525060200191505060405180910390fd5b612ea181601b61455190919063ffffffff16565b50565b600160009054906101000a900473ffffffffffffffffffffffffffffffffffffffff1673ffffffffffffffffffffffffffffffffffffffff16612ee5613a65565b73ffffffffffffffffffffffffffffffffffffffff1614612f51576040517f08c379a000000000000000000000000000000000000000000000000000000000815260040180806020018281038252602a815260200180614a7a602a913960400191505060405180910390fd5b612f6581601d613a6d90919063ffffffff16565b612fd7576040517f08c379a00000000000000000000000000000000000000000000000000000000081526004018080602001828103825260198152602001807f4d61696e7461696e657220646f65736e27742065786973742e0000000000000081525060200191505060405180910390fd5b612feb81601d61455190919063ffffffff16565b50565b60036020528060005260406000206000915090505481565b613021613011613a65565b601b613a6d90919063ffffffff16565b806130805750600160009054906101000a900473ffffffffffffffffffffffffffffffffffffffff1673ffffffffffffffffffffffffffffffffffffffff16613068613a65565b73ffffffffffffffffffffffffffffffffffffffff16145b6130d5576040517f08c379a0000000000000000000000000000000000000000000000000000000008152600401808060200182810382526034815260200180614aef6034913960400191505060405180910390fd5b6130e9836007613a1190919063ffffffff16565b61315b576040517f08c379a00000000000000000000000000000000000000000000000000000000081526004018080602001828103825260138152602001807f5461736b20646f65736e27742065786973742e0000000000000000000000000081525060200191505060405180910390fd5b80600a60008581526020019081526020016000206004016000848152602001908152602001600020908051906020019061319692919061492e565b50600a6000848152602001908152602001600020600501829080600181540180825580915050600190039060005260206000200160009091909190915055505050565b600160009054906101000a900473ffffffffffffffffffffffffffffffffffffffff1673ffffffffffffffffffffffffffffffffffffffff1661321a613a65565b73ffffffffffffffffffffffffffffffffffffffff1614613286576040517f08c379a000000000000000000000000000000000000000000000000000000000815260040180806020018281038252602a815260200180614a7a602a913960400191505060405180910390fd5b61329a82600461477890919063ffffffff16565b8060036000848152602001908152602001600020819055505050565b60606132cc836007613a1190919063ffffffff16565b61333e576040517f08c379a00000000000000000000000000000000000000000000000000000000081526004018080602001828103825260138152602001807f5461736b20646f65736e27742065786973742e0000000000000000000000000081525060200191505060405180910390fd5b600a600084815260200190815260200160002060040160008381526020019081526020016000208054600181600116156101000203166002900480601f0160208091040260200160405190810160405280929190818152602001828054600181600116156101000203166002900480156133f95780601f106133ce576101008083540402835291602001916133f9565b820191906000526020600020905b8154815290600101906020018083116133dc57829003601f168201915b5050505050905092915050565b60006134126018613e67565b905090565b6060600460010180548060200260200160405190810160405280929190818152602001828054801561346857602002820191906000526020600020905b815481526020019060010190808311613454575b5050505050905090565b600260009054906101000a900473ffffffffffffffffffffffffffffffffffffffff1681565b600060036000838152602001908152602001600020549050919050565b600160009054906101000a900473ffffffffffffffffffffffffffffffffffffffff1673ffffffffffffffffffffffffffffffffffffffff166134f6613a65565b73ffffffffffffffffffffffffffffffffffffffff1614613562576040517f08c379a000000000000000000000000000000000000000000000000000000000815260040180806020018281038252602a815260200180614a7a602a913960400191505060405180910390fd5b61357681601d613a6d90919063ffffffff16565b156135e9576040517f08c379a00000000000000000000000000000000000000000000000000000000081526004018080602001828103825260198152602001807f4d61696e7461696e657220616c72656164792065786973742e0000000000000081525060200191505060405180910390fd5b6135fd81601d613b3990919063ffffffff16565b50565b613608613a65565b73ffffffffffffffffffffffffffffffffffffffff166000809054906101000a900473ffffffffffffffffffffffffffffffffffffffff1673ffffffffffffffffffffffffffffffffffffffff16146136c9576040517f08c379a00000000000000000000000000000000000000000000000000000000081526004018080602001828103825260208152602001807f4f776e61626c653a2063616c6c6572206973206e6f7420746865206f776e657281525060200191505060405180910390fd5b600073ffffffffffffffffffffffffffffffffffffffff168173ffffffffffffffffffffffffffffffffffffffff16141561374f576040517f08c379a00000000000000000000000000000000000000000000000000000000081526004018080602001828103825260268152602001806149d46026913960400191505060405180910390fd5b8073ffffffffffffffffffffffffffffffffffffffff166000809054906101000a900473ffffffffffffffffffffffffffffffffffffffff1673ffffffffffffffffffffffffffffffffffffffff167f8be0079c531659141344cd1fd0a4f28419497f9722a3daafe3b4186f6b6457e060405160405180910390a3806000806101000a81548173ffffffffffffffffffffffffffffffffffffffff021916908373ffffffffffffffffffffffffffffffffffffffff16021790555050565b6000613823826007613a1190919063ffffffff16565b613895576040517f08c379a00000000000000000000000000000000000000000000000000000000081526004018080602001828103825260138152602001807f5461736b20646f65736e27742065786973742e0000000000000000000000000081525060200191505060405180910390fd5b6000600a6000848152602001908152602001600020600301541415806138d157506001600a600084815260200190815260200160002060030154145b156138df57600190506138e4565b600090505b919050565b6138f1613a65565b73ffffffffffffffffffffffffffffffffffffffff166000809054906101000a900473ffffffffffffffffffffffffffffffffffffffff1673ffffffffffffffffffffffffffffffffffffffff16146139b2576040517f08c379a00000000000000000000000000000000000000000000000000000000081526004018080602001828103825260208152602001807f4f776e61626c653a2063616c6c6572206973206e6f7420746865206f776e657281525060200191505060405180910390fd5b8060048111156139be57fe5b7fc456bf1769220afbee617f618ca674e78fd1cf51d5b5e89f10c81b8a517aae5f60405160405180910390a250565b6000613a02826139fd6000613e78565b61400b565b9050613a0d81614243565b5050565b60008083600101805490501415613a2b5760009050613a5f565b81836001018460000160008581526020019081526020016000205481548110613a5057fe5b90600052602060002001541490505b92915050565b600033905090565b60008083600101805490501415613a875760009050613b33565b8173ffffffffffffffffffffffffffffffffffffffff16836001018460000160008573ffffffffffffffffffffffffffffffffffffffff1673ffffffffffffffffffffffffffffffffffffffff1681526020019081526020016000205481548110613aee57fe5b9060005260206000200160009054906101000a900473ffffffffffffffffffffffffffffffffffffffff1673ffffffffffffffffffffffffffffffffffffffff161490505b92915050565b613b438282613a6d565b15613b99576040517f08c379a000000000000000000000000000000000000000000000000000000000815260040180806020018281038252602a815260200180614b4d602a913960400191505060405180910390fd5b81600101819080600181540180825580915050600190039060005260206000200160009091909190916101000a81548173ffffffffffffffffffffffffffffffffffffffff021916908373ffffffffffffffffffffffffffffffffffffffff16021790555060018260010180549050038260000160008373ffffffffffffffffffffffffffffffffffffffff1673ffffffffffffffffffffffffffffffffffffffff168152602001908152602001600020819055505050565b6001816000016000828254019250508190555050565b600081600001549050919050565b613c808282613a11565b15613cd6576040517f08c379a0000000000000000000000000000000000000000000000000000000008152600401808060200182810382526027815260200180614aa46027913960400191505060405180910390fd5b816001018190806001815401808255809150506001900390600052602060002001600090919091909150556001826001018054905003826000016000838152602001908152602001600020819055505050565b6000600260009054906101000a900473ffffffffffffffffffffffffffffffffffffffff1673ffffffffffffffffffffffffffffffffffffffff16613d6c613a65565b73ffffffffffffffffffffffffffffffffffffffff1614613dd8576040517f08c379a0000000000000000000000000000000000000000000000000000000008152600401808060200182810382526024815260200180614acb6024913960400191505060405180910390fd5b613de2600f613c52565b6000613dee600f613c68565b9050613e04816010613c7690919063ffffffff16565b6000601260008381526020019081526020016000209050428160000181905550848160010160006101000a81548160ff02191690836004811115613e4457fe5b021790555083816002018190555085816003018190555081925050509392505050565b600081600101805490509050919050565b60606005826003811115613e8857fe5b60ff161115613e9657600080fd5b816003811115613ea257fe5b60006003811115613eaf57fe5b1415613ef2576040518060400160405280600781526020017f476574496e666f000000000000000000000000000000000000000000000000008152509050614006565b816003811115613efe57fe5b60016003811115613f0b57fe5b1415613f4e576040518060400160405280600981526020017f44726f70546f48425700000000000000000000000000000000000000000000008152509050614006565b816003811115613f5a57fe5b600380811115613f6657fe5b1415613fa9576040518060400160405280600a81526020017f5069636b536f72746564000000000000000000000000000000000000000000008152509050614006565b816003811115613fb557fe5b60026003811115613fc257fe5b1415614005576040518060400160405280600b81526020017f4d6f7665484257324d504f0000000000000000000000000000000000000000008152509050614006565b5b919050565b6000614028614018613a65565b601b613a6d90919063ffffffff16565b806140875750600160009054906101000a900473ffffffffffffffffffffffffffffffffffffffff1673ffffffffffffffffffffffffffffffffffffffff1661406f613a65565b73ffffffffffffffffffffffffffffffffffffffff16145b6140dc576040517f08c379a0000000000000000000000000000000000000000000000000000000008152600401808060200182810382526034815260200180614aef6034913960400191505060405180910390fd5b6140e66006613c52565b60006140f26006613c68565b9050614108816007613c7690919063ffffffff16565b6000600a600083815260200190815260200160002090508381600101908051906020019061413792919061492e565b50848160000160006101000a81548173ffffffffffffffffffffffffffffffffffffffff021916908373ffffffffffffffffffffffffffffffffffffffff160217905550600073ffffffffffffffffffffffffffffffffffffffff168573ffffffffffffffffffffffffffffffffffffffff161461423857600960008673ffffffffffffffffffffffffffffffffffffffff1673ffffffffffffffffffffffffffffffffffffffff16815260200190815260200160002082908060018154018082558091505060019003906000526020600020016000909190919091505561422985600b613a6d90919063ffffffff16565b614237576142368561482b565b5b5b819250505092915050565b61425e61424e613a65565b601b613a6d90919063ffffffff16565b806142bd5750600160009054906101000a900473ffffffffffffffffffffffffffffffffffffffff1673ffffffffffffffffffffffffffffffffffffffff166142a5613a65565b73ffffffffffffffffffffffffffffffffffffffff16145b614312576040517f08c379a0000000000000000000000000000000000000000000000000000000008152600401808060200182810382526034815260200180614aef6034913960400191505060405180910390fd5b614326816007613a1190919063ffffffff16565b614398576040517f08c379a00000000000000000000000000000000000000000000000000000000081526004018080602001828103825260138152602001807f5461736b20646f65736e27742065786973742e0000000000000000000000000081525060200191505060405180910390fd5b6000600a60008381526020019081526020016000206002015414614424576040517f08c379a00000000000000000000000000000000000000000000000000000000081526004018080602001828103825260158152602001807f5461736b20616c726561647920737461727465642e000000000000000000000081525060200191505060405180910390fd5b42600a600083815260200190815260200160002060020181905550807fe243e4caa36ce8a33d3c02e5880146358bdb0c26b5a2f6b273cc205e7223f9f061446a83612143565b600a600085815260200190815260200160002060000160009054906101000a900473ffffffffffffffffffffffffffffffffffffffff1660405180806020018373ffffffffffffffffffffffffffffffffffffffff1673ffffffffffffffffffffffffffffffffffffffff168152602001828103825284818151815260200191508051906020019080838360005b838110156145135780820151818401526020810190506144f8565b50505050905090810190601f1680156145405780820380516001836020036101000a031916815260200191505b50935050505060405180910390a250565b61455b8282613a6d565b6145b0576040517f08c379a000000000000000000000000000000000000000000000000000000000815260040180806020018281038252602a815260200180614a50602a913960400191505060405180910390fd5b600060016145bd846148c9565b03905060008360000160008473ffffffffffffffffffffffffffffffffffffffff1673ffffffffffffffffffffffffffffffffffffffff1681526020019081526020016000205490508181146146eb57600084600101838154811061461e57fe5b9060005260206000200160009054906101000a900473ffffffffffffffffffffffffffffffffffffffff169050818560000160008373ffffffffffffffffffffffffffffffffffffffff1673ffffffffffffffffffffffffffffffffffffffff16815260200190815260200160002081905550808560010183815481106146a157fe5b9060005260206000200160006101000a81548173ffffffffffffffffffffffffffffffffffffffff021916908373ffffffffffffffffffffffffffffffffffffffff160217905550505b8360000160008473ffffffffffffffffffffffffffffffffffffffff1673ffffffffffffffffffffffffffffffffffffffff168152602001908152602001600020600090558360010180548061473d57fe5b6001900381819060005260206000200160006101000a81549073ffffffffffffffffffffffffffffffffffffffff0219169055905550505050565b61478282826148da565b156147d8576040517f08c379a000000000000000000000000000000000000000000000000000000000815260040180806020018281038252602a815260200180614b23602a913960400191505060405180910390fd5b816001018190806001815401808255809150506001900390600052602060002001600090919091909150556001826001018054905003826000016000838152602001908152602001600020819055505050565b61483f81600b613a6d90919063ffffffff16565b156148b2576040517f08c379a00000000000000000000000000000000000000000000000000000000081526004018080602001828103825260178152602001807f50726f6475637420616c7265616479206578697374732e00000000000000000081525060200191505060405180910390fd5b6148c681600b613b3990919063ffffffff16565b50565b600081600101805490509050919050565b600080836001018054905014156148f45760009050614928565b8183600101846000016000858152602001908152602001600020548154811061491957fe5b90600052602060002001541490505b92915050565b828054600181600116156101000203166002900490600052602060002090601f016020900481019282601f1061496f57805160ff191683800117855561499d565b8280016001018555821561499d579182015b8281111561499c578251825591602001919060010190614981565b5b5090506149aa91906149ae565b5090565b6149d091905b808211156149cc5760008160009055506001016149b4565b5090565b9056fe4f776e61626c653a206e6577206f776e657220697320746865207a65726f20616464726573734d61696e74656e616e63654f7065726174696f6e20646f65736e27742065786973742e4f6e6c7920617574686f72697a6564206d61696e7461696e6572732063616e2063616c6c20746869732066756e6374696f6e2e416464726573735365743a206b657920646f6573206e6f7420657869737420696e20746865207365742e4f6e6c79206d616368696e65206f776e65722063616e2063616c6c20746869732066756e6374696f6e2e55696e745365743a206b657920616c72656164792065786973747320696e20746865207365742e4f6e6c79206d616368696e652063616e2063616c6c20746869732066756e6374696f6e2e4f6e6c7920617574686f72697a6564206d616e7566616374757265732063616e2063616c6c20746869732066756e6374696f6e2e427974657333325365743a206b657920616c72656164792065786973747320696e20746865207365742e416464726573735365743a206b657920616c72656164792065786973747320696e20746865207365742ea2646970667358221220fda466ae6afa0db188dc00d1737145a661429595c802283946523872424ee58864736f6c634300060a0033",
  "immutableReferences": {},
  "source": "// SPDX-License-Identifier: MIT\npragma solidity >=0.4.21 <0.7.0;\n\nimport \"./Machine.sol\";\n\ncontract VGR is Machine {\n\n    enum TasksNames { GetInfo, DropToHBW, MoveHBW2MPO, PickSorted }\n\n    constructor(address _machineOwner, address _machineID) Machine(_machineOwner, _machineID) public {}\n\n    function getTaskName(TasksNames taskName) internal pure returns (string memory) {\n        require(uint8(taskName) <= 5);\n        if (TasksNames.GetInfo == taskName) return \"GetInfo\";\n        if (TasksNames.DropToHBW == taskName) return \"DropToHBW\";\n        if (TasksNames.PickSorted == taskName) return \"PickSorted\";\n        if (TasksNames.MoveHBW2MPO == taskName) return \"MoveHBW2MPO\";\n    }\n\n    function getInfo(address productID) public {\n        uint newTaskID = super.createTask(productID, getTaskName(TasksNames.GetInfo));\n        super.startTask(newTaskID);\n    }\n\n    function finishGetInfo(uint taskID, string memory nfcTag, string memory color) public {\n        address productID = super.getProductID(taskID);\n        super.saveProductOperation(productID, \"NFCTagReading\", nfcTag);\n        super.saveProductOperation(productID, \"ColorDetection\", color);\n        super.finishTask(taskID);\n    }\n\n    function dropToHBW(address productID) public{\n        uint newTaskID = super.createTask(productID, getTaskName(TasksNames.DropToHBW));\n        super.startTask(newTaskID);\n    }\n\n    function moveHBW2MPO(address productID) public{\n        uint newTaskID = super.createTask(productID, getTaskName(TasksNames.MoveHBW2MPO));\n        super.startTask(newTaskID);\n    }\n\n    function pickSorted(address productID, string memory color) public{\n        uint newTaskID = super.createTask(productID, getTaskName(TasksNames.PickSorted));\n        super.saveInput(newTaskID, \"color\", color);\n        super.startTask(newTaskID);\n    }\n\n    function saveReadingVGR(uint taskID, ReadingType readingType, int readingValue) public {\n        super.saveReading(taskID, readingType, readingValue);\n    }\n}",
  "sourcePath": "/Users/mohammadghanem/Desktop/studious-enigma/contracts/machines/VGR.sol",
  "compiler": {
    "name": "solc",
    "version": "0.6.10+commit.00c0fcaf.Emscripten.clang"
  },
  "schemaVersion": "3.2.3",
  "updatedAt": "2020-09-20T13:29:24.600Z",
  "networkType": "ethereum",
  "devdoc": {
    "methods": {
      "owner()": {
        "details": "Returns the address of the current owner."
      },
      "renounceOwnership()": {
        "details": "Leaves the contract without owner. It will not be possible to call `onlyOwner` functions anymore. Can only be called by the current owner. NOTE: Renouncing ownership will leave the contract without an owner, thereby removing any functionality that is only available to the owner."
      },
      "transferOwnership(address)": {
        "details": "Transfers ownership of the contract to a new account (`newOwner`). Can only be called by the current owner."
      }
    }
  },
  "userdoc": {
    "methods": {}
  }
}